{
	"data": {
		"bytecode": {
			"linkReferences": {},
			"object": "608060405234801561000f575f5ffd5b505f8054336001600160a01b03199182168117835560408051610100810182528281528151808301835260148082527f53797374656d2041646d696e6973747261746f720000000000000000000000006020808401919091528084019283526001848601819052855180870187529283527f4d757368436861696e205048202f2050414d534700000000000000000000000083830152606085019290925284518086018652600680825265426f6361756560d01b82840152608086019190915285518087018752600f81526e2137b1b0bab29610213ab630b1b0b760891b8184015260a086015260c085018390524260e08601529588529490945291909420845181546001600160a01b039091169416939093178355519082019061013490826102b9565b50604082015160028201805460ff1916600183600581111561015857610158610202565b02179055506060820151600382019061017190826102b9565b506080820151600482019061018690826102b9565b5060a0820151600582019061019b90826102b9565b5060c082015160068201805460ff191691151591909117905560e09091015160079091015560405133907f5bd06948838b1107ea3cf2c487e1b707cfab3a3024f2d5fa6ee4d85bd2484294906101f5906001904290610377565b60405180910390a26103d7565b634e487b7160e01b5f52602160045260245ffd5b634e487b7160e01b5f52604160045260245ffd5b600181811c9082168061023e57607f821691505b60208210810361025c57634e487b7160e01b5f52602260045260245ffd5b50919050565b601f8211156102b457828211156102b457805f5260205f20601f840160051c602085101561028d57505f5b90810190601f840160051c035f5b818110156102b0575f8382015560010161029b565b5050505b505050565b81516001600160401b038111156102d2576102d2610216565b6102e6816102e0845461022a565b84610262565b6020601f821160018114610318575f83156103015750848201515b5f19600385901b1c1916600184901b178455610370565b5f84815260208120601f198516915b828110156103475787850151825560209485019460019092019101610327565b508482101561036457868401515f19600387901b60f8161c191681555b505060018360011b0184555b5050505050565b60608082526014908201527f53797374656d2041646d696e6973747261746f72000000000000000000000000608082015260a08101600684106103c857634e487b7160e01b5f52602160045260245ffd5b60208201939093526040015290565b615c32806103e45f395ff3fe608060405234801561000f575f5ffd5b50600436106101c5575f3560e01c8063a835e8fa116100fe578063cfc0c4491161009e578063e80e076b1161006e578063e80e076b146104dd578063f22ac6f1146104f2578063f8031e9014610518578063f851a4401461052b575f5ffd5b8063cfc0c44914610480578063d8a3081d146104a4578063de97b81c146104b7578063e3da5f03146104ca575f5ffd5b8063b32c4d8d116100d9578063b32c4d8d146103f1578063b76b75361461041d578063b98eae9c1461043c578063c752e8e91461045b575f5ffd5b8063a835e8fa146103a5578063a9e4a324146103b8578063abd39cfa146103de575f5ffd5b806360f1233d116101695780639377d711116101445780639377d711146103135780639595b8c51461033a578063a217d08e14610361578063a61ecc6214610380575f5ffd5b806360f1233d1461029f5780637143059f146102c857806373247a03146102ee575f5ffd5b8063290b17ec116101a4578063290b17ec146102215780632ac08a93146102425780632d1bbc8e1461026c57806355ceb89d1461028c575f5ffd5b806248e5a5146101c9578063027f99f8146101de57806309e69ede146101f1575b5f5ffd5b6101dc6101d7366004614733565b610555565b005b6101dc6101ec3660046147f0565b61061a565b6102046101ff366004614733565b610b4c565b6040516102189897969594939291906148a2565b60405180910390f35b61023461022f366004614925565b610dbb565b604051908152602001610218565b610255610250366004614925565b610dda565b6040516102189b9a9998979695949392919061493c565b61027f61027a366004614925565b611054565b60405161021891906149ce565b6101dc61029a3660046149f0565b6110aa565b6102b26102ad366004614925565b6113b5565b6040516102189a99989796959493929190614ac4565b6102db6102d6366004614733565b6115b8565b6040516102189796959493929190614b61565b6103016102fc366004614925565b611859565b60405161021896959493929190614c6c565b610326610321366004614925565b611d24565b604051610218989796959493929190614d1b565b61034d610348366004614925565b611dfc565b604051610218989796959493929190614d77565b61023461036f366004614925565b600d6020525f908152604090205481565b61039361038e366004614925565b61213a565b60405161021896959493929190614df9565b6102346103b3366004614e5a565b612337565b6103cb6103c6366004614925565b6127cf565b6040516102189796959493929190614ed3565b6101dc6103ec366004614f2b565b6128a1565b6104046103ff366004614925565b612ce4565b6040516102189d9c9b9a99989796959493929190614ff1565b61023461042b366004614925565b600e6020525f908152604090205481565b61023461044a366004614925565b600f6020525f908152604090205481565b61046e610469366004614925565b613000565b604051610218969594939291906150c0565b61049361048e366004614925565b613184565b60405161021895949392919061510c565b6101dc6104b2366004615157565b613307565b6101dc6104c5366004614733565b6137a9565b6102346104d836600461519b565b613861565b6104e561388c565b60405161021891906151bb565b610505610500366004614925565b6138e2565b60405161021897969594939291906151cd565b61027f610526366004614925565b613a36565b5f5461053d906001600160a01b031681565b6040516001600160a01b039091168152602001610218565b5f546001600160a01b031633146105875760405162461bcd60e51b815260040161057e90615235565b60405180910390fd5b6001600160a01b0381165f908152600660208190526040909120015460ff16156105f35760405162461bcd60e51b815260206004820152601960248201527f4d757368436861696e3a20616c72656164792061637469766500000000000000604482015260640161057e565b6001600160a01b03165f90815260066020819052604090912001805460ff19166001179055565b835f8111801561062c57506001548111155b6106485760405162461bcd60e51b815260040161057e90615277565b5f858152600760205260409020600a0154859061010090046001600160a01b031633146106c95760405162461bcd60e51b815260206004820152602960248201527f4d757368436861696e3a2063616c6c657220646f6573206e6f74206f776e20746044820152680d0d2e640c4c2e8c6d60bb1b606482015260840161057e565b600280335f9081526006602052604090206002015460ff1660058111156106f2576106f261487a565b1461070f5760405162461bcd60e51b815260040161057e906152ae565b335f908152600660208190526040909120015460ff166107415760405162461bcd60e51b815260040161057e906152f7565b5f878152600760205260408120600a015460ff1660038111156107665761076661487a565b146107c95760405162461bcd60e51b815260206004820152602d60248201527f4d757368436861696e3a206261746368206d75737420626520696e205265676960448201526c7374657265642073746174757360981b606482015260840161057e565b60036001600160a01b0387165f9081526006602052604090206002015460ff1660058111156107fa576107fa61487a565b146108645760405162461bcd60e51b815260206004820152603460248201527f4d757368436861696e3a207461726765742061646472657373206973206e6f746044820152731030903932b3b4b9ba32b932b2102a3930b232b960611b606482015260840161057e565b6001600160a01b0386165f908152600660208190526040909120015460ff166108dd5760405162461bcd60e51b815260206004820152602560248201527f4d757368436861696e3a20747261646572206163636f756e7420697320696e61604482015264637469766560d81b606482015260840161057e565b60028054905f6108ec83615355565b91905055505f60075f8981526020019081526020015f206003015490506040518061010001604052806002548152602001898152602001336001600160a01b03168152602001886001600160a01b031681526020018781526020018281526020014281526020018681525060085f60025481526020019081526020015f205f820151815f0155602082015181600101556040820151816002015f6101000a8154816001600160a01b0302191690836001600160a01b031602179055506060820151816003015f6101000a8154816001600160a01b0302191690836001600160a01b031602179055506080820151816004015560a0820151816005015560c0820151816006015560e0820151816007019081610a0791906153f6565b50506002545f8a8152600d602090815260408083209390935560079052908120600a0180546001600160a81b03191660ff196101006001600160a01b038d1602161760011790559050610a5933613b7d565b610a6289613b7d565b610a6b89613f3d565b610a7485613f3d565b89604051602001610a899594939291906154cb565b6040516020818303038152906040529050610af2896040518060400160405280601581526020017413d5d3915494d2125417d514905394d19154949151605a1b81525033604051806040016040528060068152602001652330b936b2b960d11b81525085614044565b6040805188815260208101849052428183015290516001600160a01b038a169133918c917f2dc2cec4355139880f562307bc6dd90b4a8003e590f94529c6270dced6f5e821919081900360600190a4505050505050505050565b60066020525f9081526040902080546001820180546001600160a01b039092169291610b779061536d565b80601f0160208091040260200160405190810160405280929190818152602001828054610ba39061536d565b8015610bee5780601f10610bc557610100808354040283529160200191610bee565b820191905f5260205f20905b815481529060010190602001808311610bd157829003601f168201915b5050506002840154600385018054949560ff909216949193509150610c129061536d565b80601f0160208091040260200160405190810160405280929190818152602001828054610c3e9061536d565b8015610c895780601f10610c6057610100808354040283529160200191610c89565b820191905f5260205f20905b815481529060010190602001808311610c6c57829003601f168201915b505050505090806004018054610c9e9061536d565b80601f0160208091040260200160405190810160405280929190818152602001828054610cca9061536d565b8015610d155780601f10610cec57610100808354040283529160200191610d15565b820191905f5260205f20905b815481529060010190602001808311610cf857829003601f168201915b505050505090806005018054610d2a9061536d565b80601f0160208091040260200160405190810160405280929190818152602001828054610d569061536d565b8015610da15780601f10610d7857610100808354040283529160200191610da1565b820191905f5260205f20905b815481529060010190602001808311610d8457829003601f168201915b505050506006830154600790930154919260ff1691905088565b60108181548110610dca575f80fd5b5f91825260209091200154905081565b60096020525f90815260409020805460018201546002830154600384018054939492936001600160a01b039092169291610e139061536d565b80601f0160208091040260200160405190810160405280929190818152602001828054610e3f9061536d565b8015610e8a5780601f10610e6157610100808354040283529160200191610e8a565b820191905f5260205f20905b815481529060010190602001808311610e6d57829003601f168201915b505050505090806004018054610e9f9061536d565b80601f0160208091040260200160405190810160405280929190818152602001828054610ecb9061536d565b8015610f165780601f10610eed57610100808354040283529160200191610f16565b820191905f5260205f20905b815481529060010190602001808311610ef957829003601f168201915b505050505090806005018054610f2b9061536d565b80601f0160208091040260200160405190810160405280929190818152602001828054610f579061536d565b8015610fa25780601f10610f7957610100808354040283529160200191610fa2565b820191905f5260205f20905b815481529060010190602001808311610f8557829003601f168201915b505050505090806006015490806007015490806008018054610fc39061536d565b80601f0160208091040260200160405190810160405280929190818152602001828054610fef9061536d565b801561103a5780601f106110115761010080835404028352916020019161103a565b820191905f5260205f20905b81548152906001019060200180831161101d57829003601f168201915b505050506009830154600a90930154919260ff169190508b565b6060815f8111801561106857506001548111155b6110845760405162461bcd60e51b815260040161057e90615277565b5f838152600760205260409020600a01546110a19060ff16614194565b91505b50919050565b5f546001600160a01b031633146110d35760405162461bcd60e51b815260040161057e90615235565b6001600160a01b0386166111335760405162461bcd60e51b815260206004820152602160248201527f4d757368436861696e3a20696e76616c69642077616c6c6574206164647265736044820152607360f81b606482015260840161057e565b60028460ff161015801561114b575060058460ff1611155b6111975760405162461bcd60e51b815260206004820152601b60248201527f4d757368436861696e3a20726f6c65206d75737420626520322d350000000000604482015260640161057e565b6001600160a01b0386165f908152600660208190526040909120015460ff16156112155760405162461bcd60e51b815260206004820152602960248201527f4d757368436861696e3a207061727469636970616e7420616c726561647920726044820152681959da5cdd195c995960ba1b606482015260840161057e565b604051806101000160405280876001600160a01b031681526020018681526020018560ff16600581111561124b5761124b61487a565b600581111561125c5761125c61487a565b815260208082018690526040808301869052606083018590526001608084018190524260a0909401939093526001600160a01b038a81165f9081526006845291909120845181546001600160a01b03191692169190911781559083015190918201906112c890826153f6565b50604082015160028201805460ff191660018360058111156112ec576112ec61487a565b02179055506060820151600382019061130590826153f6565b506080820151600482019061131a90826153f6565b5060a0820151600582019061132f90826153f6565b5060c082015160068201805460ff191691151591909117905560e0909101516007909101556001600160a01b0386167f5bd06948838b1107ea3cf2c487e1b707cfab3a3024f2d5fa6ee4d85bd24842948660ff871660058111156113955761139561487a565b426040516113a593929190615575565b60405180910390a2505050505050565b6060805f60608060605f5f5f5f8a5f811180156113d457506001548111155b6113f05760405162461bcd60e51b815260040161057e90615277565b5f8c8152600760205260409020600281015460018201906114139060ff16614286565b8260030154836006018460070185600801604051602001611435929190615612565b60408051601f19818403018152919052600a8601546114569060ff16614194565b6005870154600a8801546004890154600b8a015489546001600160a01b0394851694610100909404909316928a9061148d9061536d565b80601f01602080910402602001604051908101604052809291908181526020018280546114b99061536d565b80156115045780601f106114db57610100808354040283529160200191611504565b820191905f5260205f20905b8154815290600101906020018083116114e757829003601f168201915b505050505099508680546115179061536d565b80601f01602080910402602001604051908101604052809291908181526020018280546115439061536d565b801561158e5780601f106115655761010080835404028352916020019161158e565b820191905f5260205f20905b81548152906001019060200180831161157157829003601f168201915b505050505096509b509b509b509b509b509b509b509b509b509b5050509193959799509193959799565b6001600160a01b0381165f90815260066020526040812060028101546060928392839283928392909182919060018201906115f59060ff166143df565b826003018360040184600501856006015f9054906101000a900460ff1686600701548680546116239061536d565b80601f016020809104026020016040519081016040528092919081815260200182805461164f9061536d565b801561169a5780601f106116715761010080835404028352916020019161169a565b820191905f5260205f20905b81548152906001019060200180831161167d57829003601f168201915b505050505096508480546116ad9061536d565b80601f01602080910402602001604051908101604052809291908181526020018280546116d99061536d565b80156117245780601f106116fb57610100808354040283529160200191611724565b820191905f5260205f20905b81548152906001019060200180831161170757829003601f168201915b505050505094508380546117379061536d565b80601f01602080910402602001604051908101604052809291908181526020018280546117639061536d565b80156117ae5780601f10611785576101008083540402835291602001916117ae565b820191905f5260205f20905b81548152906001019060200180831161179157829003601f168201915b505050505093508280546117c19061536d565b80601f01602080910402602001604051908101604052809291908181526020018280546117ed9061536d565b80156118385780601f1061180f57610100808354040283529160200191611838565b820191905f5260205f20905b81548152906001019060200180831161181b57829003601f168201915b50505050509250975097509750975097509750975050919395979092949650565b606080606080606080865f8111801561187457506001548111155b6118905760405162461bcd60e51b815260040161057e90615277565b5f888152600c602052604090208054806001600160401b038111156118b7576118b7614753565b6040519080825280602002602001820160405280156118e0578160200160208202803683370190505b509850806001600160401b038111156118fb576118fb614753565b60405190808252806020026020018201604052801561192e57816020015b60608152602001906001900390816119195790505b509750806001600160401b0381111561194957611949614753565b604051908082528060200260200182016040528015611972578160200160208202803683370190505b509650806001600160401b0381111561198d5761198d614753565b6040519080825280602002602001820160405280156119c057816020015b60608152602001906001900390816119ab5790505b509550806001600160401b038111156119db576119db614753565b604051908082528060200260200182016040528015611a0e57816020015b60608152602001906001900390816119f95790505b509450806001600160401b03811115611a2957611a29614753565b604051908082528060200260200182016040528015611a52578160200160208202803683370190505b5093505f5b81811015611d17575f600b5f858481548110611a7557611a7561563b565b905f5260205f20015481526020019081526020015f209050805f01548b8381518110611aa357611aa361563b565b602002602001018181525050806002018054611abe9061536d565b80601f0160208091040260200160405190810160405280929190818152602001828054611aea9061536d565b8015611b355780601f10611b0c57610100808354040283529160200191611b35565b820191905f5260205f20905b815481529060010190602001808311611b1857829003601f168201915b50505050508a8381518110611b4c57611b4c61563b565b6020908102919091010152600381015489516001600160a01b03909116908a9084908110611b7c57611b7c61563b565b60200260200101906001600160a01b031690816001600160a01b031681525050806004018054611bab9061536d565b80601f0160208091040260200160405190810160405280929190818152602001828054611bd79061536d565b8015611c225780601f10611bf957610100808354040283529160200191611c22565b820191905f5260205f20905b815481529060010190602001808311611c0557829003601f168201915b5050505050888381518110611c3957611c3961563b565b6020026020010181905250806005018054611c539061536d565b80601f0160208091040260200160405190810160405280929190818152602001828054611c7f9061536d565b8015611cca5780601f10611ca157610100808354040283529160200191611cca565b820191905f5260205f20905b815481529060010190602001808311611cad57829003601f168201915b5050505050878381518110611ce157611ce161563b565b60200260200101819052508060060154868381518110611d0357611d0361563b565b602090810291909101015250600101611a57565b5050505091939550919395565b60086020525f908152604090208054600182015460028301546003840154600485015460058601546006870154600788018054979896976001600160a01b03968716979690951695939492939192611d7b9061536d565b80601f0160208091040260200160405190810160405280929190818152602001828054611da79061536d565b8015611df25780601f10611dc957610100808354040283529160200191611df2565b820191905f5260205f20905b815481529060010190602001808311611dd557829003601f168201915b5050505050905088565b5f60608060605f5f60605f885f81118015611e1957506001548111155b611e355760405162461bcd60e51b815260040161057e90615277565b5f8a8152600e602052604090205480611ea75760405162461bcd60e51b815260206004820152602e60248201527f4d757368436861696e3a206e6f20736869706d656e74207265636f726465642060448201526d0ccdee440e8d0d2e640c4c2e8c6d60931b606482015260840161057e565b5f8181526009602081905260409091206002810154600682015460078301549383015460038401805494956001600160a01b03909416949093600487019360058801939092600889019160ff16908790611f009061536d565b80601f0160208091040260200160405190810160405280929190818152602001828054611f2c9061536d565b8015611f775780601f10611f4e57610100808354040283529160200191611f77565b820191905f5260205f20905b815481529060010190602001808311611f5a57829003601f168201915b50505050509650858054611f8a9061536d565b80601f0160208091040260200160405190810160405280929190818152602001828054611fb69061536d565b80156120015780601f10611fd857610100808354040283529160200191612001565b820191905f5260205f20905b815481529060010190602001808311611fe457829003601f168201915b505050505095508480546120149061536d565b80601f01602080910402602001604051908101604052809291908181526020018280546120409061536d565b801561208b5780601f106120625761010080835404028352916020019161208b565b820191905f5260205f20905b81548152906001019060200180831161206e57829003601f168201915b5050505050945081805461209e9061536d565b80601f01602080910402602001604051908101604052809291908181526020018280546120ca9061536d565b80156121155780601f106120ec57610100808354040283529160200191612115565b820191905f5260205f20905b8154815290600101906020018083116120f857829003601f168201915b505050505091509a509a509a509a509a509a509a509a50505050919395975091939597565b5f60605f6060805f5f600b5f8981526020019081526020015f209050806001015481600201826003015f9054906101000a90046001600160a01b03168360040184600501856006015484805461218f9061536d565b80601f01602080910402602001604051908101604052809291908181526020018280546121bb9061536d565b80156122065780601f106121dd57610100808354040283529160200191612206565b820191905f5260205f20905b8154815290600101906020018083116121e957829003601f168201915b505050505094508280546122199061536d565b80601f01602080910402602001604051908101604052809291908181526020018280546122459061536d565b80156122905780601f1061226757610100808354040283529160200191612290565b820191905f5260205f20905b81548152906001019060200180831161227357829003601f168201915b505050505092508180546122a39061536d565b80601f01602080910402602001604051908101604052809291908181526020018280546122cf9061536d565b801561231a5780601f106122f15761010080835404028352916020019161231a565b820191905f5260205f20905b8154815290600101906020018083116122fd57829003601f168201915b505050505091509650965096509650965096505091939550919395565b5f600280335f9081526006602052604090206002015460ff1660058111156123615761236161487a565b1461237e5760405162461bcd60e51b815260040161057e906152ae565b335f908152600660208190526040909120015460ff166123b05760405162461bcd60e51b815260040161057e906152f7565b60048860ff1611156124105760405162461bcd60e51b815260206004820152602360248201527f4d757368436861696e3a20756e6b6e6f776e206d757368726f6f6d207661726960448201526265747960e81b606482015260840161057e565b5f871161245f5760405162461bcd60e51b815260206004820152601f60248201527f4d757368436861696e3a207175616e74697479206d757374206265203e203000604482015260640161057e565b5f8651116124af5760405162461bcd60e51b815260206004820152601d60248201527f4d757368436861696e3a206661726d206e616d65207265717569726564000000604482015260640161057e565b60018054905f6124be83615355565b919050555060015491505f6124d28361452c565b9050604051806101a001604052808481526020018281526020018a60ff1660048111156125015761250161487a565b60048111156125125761251261487a565b8152602081018a90524260408201523360608201526080810189905260a0810188905260c0810187905260e08101869052610100015f815233602080830191909152426040928301525f86815260078252919091208251815590820151600182019061257e90826153f6565b50604082015160028201805460ff191660018360048111156125a2576125a261487a565b0217905550606082015160038201556080820151600482015560a08201516005820180546001600160a01b0319166001600160a01b0390921691909117905560c082015160068201906125f590826153f6565b5060e0820151600782019061260a90826153f6565b50610100820151600882019061262090826153f6565b50610120820151600982019061263690826153f6565b50610140820151600a8201805460ff1916600183600381111561265b5761265b61487a565b0217905550610160820151600a820180546001600160a01b0390921661010002610100600160a81b031990921691909117905561018090910151600b90910155601080546001810182555f9182527f1b6847dc741a1b0cd08d278845f9d819d87b734759afb55fe2de5cb82a9ae67201849055876126ec60ff8c1660048111156126e7576126e761487a565b614286565b6126f58b613f3d565b898960405160200161270b95949392919061564f565b604051602081830303815290604052905061276f846040518060400160405280601081526020016f10905510d217d49151d254d51154915160821b81525033604051806040016040528060068152602001652330b936b2b960d11b81525085614044565b33847fe7c6ce1e894922f8852157a0e778c785b38e7d24e71e36aff6d322f4ebd31ea08460ff8e1660048111156127a8576127a861487a565b8d426040516127ba94939291906156ea565b60405180910390a35050509695505050505050565b600a6020525f9081526040902080546001820154600283015460038401546004850154600586018054959694956001600160a01b0390941694929360ff909216929161281a9061536d565b80601f01602080910402602001604051908101604052809291908181526020018280546128469061536d565b80156128915780601f1061286857610100808354040283529160200191612891565b820191905f5260205f20905b81548152906001019060200180831161287457829003601f168201915b5050505050908060060154905087565b855f811180156128b357506001548111155b6128cf5760405162461bcd60e51b815260040161057e90615277565b600480335f9081526006602052604090206002015460ff1660058111156128f8576128f861487a565b146129155760405162461bcd60e51b815260040161057e906152ae565b335f908152600660208190526040909120015460ff166129475760405162461bcd60e51b815260040161057e906152f7565b60015f898152600760205260409020600a015460ff16600381111561296e5761296e61487a565b146129e15760405162461bcd60e51b815260206004820152603c60248201527f4d757368436861696e3a206261746368206d757374206265205472616e73666560448201527f72726564546f547261646572206265666f7265207368697070696e6700000000606482015260840161057e565b5f875111612a3b5760405162461bcd60e51b815260206004820152602160248201527f4d757368436861696e3a2076656869636c6520706c61746520726571756972656044820152601960fa1b606482015260840161057e565b5f855111612a8b5760405162461bcd60e51b815260206004820152601f60248201527f4d757368436861696e3a2064657374696e6174696f6e20726571756972656400604482015260640161057e565b60038054905f612a9a83615355565b91905055506040518061016001604052806003548152602001898152602001336001600160a01b0316815260200188815260200187815260200186815260200142815260200185610e10612aee919061571d565b612af8904261573a565b815260208082018690525f6040808401829052426060948501526003805483526009845291819020855181559285015160018401558401516002830180546001600160a01b0319166001600160a01b03909216919091179055918301519091820190612b6490826153f6565b5060808201516004820190612b7990826153f6565b5060a08201516005820190612b8e90826153f6565b5060c0820151600682015560e082015160078201556101008201516008820190612bb890826153f6565b5061012082015160098201805491151560ff1992831617905561014090920151600a918201556003545f8b8152600e602090815260408083209390935560079052200180546002921660018302179055505f878787612c1688613f3d565b87604051602001612c2b95949392919061574d565b6040516020818303038152906040529050612c93896040518060400160405280600f81526020016e14d212541351539517d313d1d1d151608a1b815250336040518060400160405280600b81526020016a2a3930b739b837b93a32b960a91b81525085614044565b336001600160a01b0316897fb9bc597deea6ea578414d5df7c122586efe69dd22fb6846beb64d7401d8c19c68a8942604051612cd1939291906157f1565b60405180910390a3505050505050505050565b60076020525f908152604090208054600182018054919291612d059061536d565b80601f0160208091040260200160405190810160405280929190818152602001828054612d319061536d565b8015612d7c5780601f10612d5357610100808354040283529160200191612d7c565b820191905f5260205f20905b815481529060010190602001808311612d5f57829003601f168201915b5050506002840154600385015460048601546005870154600688018054979860ff909516979396509194506001600160a01b03169291612dbb9061536d565b80601f0160208091040260200160405190810160405280929190818152602001828054612de79061536d565b8015612e325780601f10612e0957610100808354040283529160200191612e32565b820191905f5260205f20905b815481529060010190602001808311612e1557829003601f168201915b505050505090806007018054612e479061536d565b80601f0160208091040260200160405190810160405280929190818152602001828054612e739061536d565b8015612ebe5780601f10612e9557610100808354040283529160200191612ebe565b820191905f5260205f20905b815481529060010190602001808311612ea157829003601f168201915b505050505090806008018054612ed39061536d565b80601f0160208091040260200160405190810160405280929190818152602001828054612eff9061536d565b8015612f4a5780601f10612f2157610100808354040283529160200191612f4a565b820191905f5260205f20905b815481529060010190602001808311612f2d57829003601f168201915b505050505090806009018054612f5f9061536d565b80601f0160208091040260200160405190810160405280929190818152602001828054612f8b9061536d565b8015612fd65780601f10612fad57610100808354040283529160200191612fd6565b820191905f5260205f20905b815481529060010190602001808311612fb957829003601f168201915b50505050600a830154600b90930154919260ff8116926101009091046001600160a01b031691508d565b5f5f5f5f5f6060865f8111801561301957506001548111155b6130355760405162461bcd60e51b815260040161057e90615277565b5f888152600d6020526040902054806130a75760405162461bcd60e51b815260206004820152602e60248201527f4d757368436861696e3a206e6f207472616e73666572207265636f726465642060448201526d0ccdee440e8d0d2e640c4c2e8c6d60931b606482015260840161057e565b5f818152600860205260409020600281015460038201546004830154600584015460068501546007860180546001600160a01b03968716969095169481906130ee9061536d565b80601f016020809104026020016040519081016040528092919081815260200182805461311a9061536d565b80156131655780601f1061313c57610100808354040283529160200191613165565b820191905f5260205f20905b81548152906001019060200180831161314857829003601f168201915b5050505050905098509850985098509850985050505091939550919395565b5f5f6060805f855f8111801561319c57506001548111155b6131b85760405162461bcd60e51b815260040161057e90615277565b5f878152600f60205260409020548061322a5760405162461bcd60e51b815260206004820152602e60248201527f4d757368436861696e3a206e6f2064656c6976657279207265636f726465642060448201526d0ccdee440e8d0d2e640c4c2e8c6d60931b606482015260840161057e565b5f818152600a602052604090206002810154600382015460048301546001600160a01b039092169161325e9060ff16614561565b8360050184600601548180546132739061536d565b80601f016020809104026020016040519081016040528092919081815260200182805461329f9061536d565b80156132ea5780601f106132c1576101008083540402835291602001916132ea565b820191905f5260205f20905b8154815290600101906020018083116132cd57829003601f168201915b505050505091509750975097509750975050505091939590929450565b835f8111801561331957506001548111155b6133355760405162461bcd60e51b815260040161057e90615277565b600580335f9081526006602052604090206002015460ff16600581111561335e5761335e61487a565b1461337b5760405162461bcd60e51b815260040161057e906152ae565b335f908152600660208190526040909120015460ff166133ad5760405162461bcd60e51b815260040161057e906152f7565b60025f878152600760205260409020600a015460ff1660038111156133d4576133d461487a565b146134535760405162461bcd60e51b815260206004820152604360248201527f4d757368436861696e3a206261746368206d75737420626520496e5472616e7360448201527f6974206265666f72652064656c69766572792063616e20626520636f6e6669726064820152621b595960ea1b608482015260a40161057e565b60038460ff1611156134b25760405162461bcd60e51b815260206004820152602260248201527f4d757368436861696e3a20696e76616c696420636f6e646974696f6e2076616c604482015261756560f01b606482015260840161057e565b5f85116135125760405162461bcd60e51b815260206004820152602860248201527f4d757368436861696e3a207175616e74697479207265636569766564206d7573604482015267074206265203e20360c41b606482015260840161057e565b5f868152600e60205260409020548015613543575f81815260096020819052604090912001805460ff191660011790555b60048054905f61355283615355565b91905055506040518060e001604052806004548152602001888152602001336001600160a01b031681526020018781526020018660ff16600381111561359a5761359a61487a565b60038111156135ab576135ab61487a565b815260200185815260200142815250600a5f60045481526020019081526020015f205f820151815f0155602082015181600101556040820151816002015f6101000a8154816001600160a01b0302191690836001600160a01b03160217905550606082015181600301556080820151816004015f6101000a81548160ff0219169083600381111561363e5761363e61487a565b021790555060a0820151600582019061365790826153f6565b5060c091909101516006909101556004545f888152600f602090815260408083209390935560079052908120600a018054610100339081026001600160a81b0319909216919091176003179091556136ae90613b7d565b6136b788613f3d565b6136d48860ff1660038111156136cf576136cf61487a565b614561565b876040516020016136e89493929190615826565b604051602081830303815290604052905061374e8860405180604001604052806012815260200171111153125591549657d0d3d391925493515160721b81525033604051806040016040528060068152602001652b32b73237b960d11b81525085614044565b33887f513c33382f954a41081b15736a23f9e03a5c036bb9c25185adecfe7f727a900460ff891660038111156137865761378661487a565b8a42604051613797939291906158bf565b60405180910390a35050505050505050565b5f546001600160a01b031633146137d25760405162461bcd60e51b815260040161057e90615235565b6001600160a01b0381165f908152600660208190526040909120015460ff1661383d5760405162461bcd60e51b815260206004820152601b60248201527f4d757368436861696e3a20616c726561647920696e6163746976650000000000604482015260640161057e565b6001600160a01b03165f90815260066020819052604090912001805460ff19169055565b600c602052815f5260405f20818154811061387a575f80fd5b905f5260205f20015f91509150505481565b606060108054806020026020016040519081016040528092919081815260200182805480156138d857602002820191905f5260205f20905b8154815260200190600101908083116138c4575b5050505050905090565b600b6020525f9081526040902080546001820154600283018054929391926139099061536d565b80601f01602080910402602001604051908101604052809291908181526020018280546139359061536d565b80156139805780601f1061395757610100808354040283529160200191613980565b820191905f5260205f20905b81548152906001019060200180831161396357829003601f168201915b505050600384015460048501805494956001600160a01b039092169491935091506139aa9061536d565b80601f01602080910402602001604051908101604052809291908181526020018280546139d69061536d565b8015613a215780601f106139f857610100808354040283529160200191613a21565b820191905f5260205f20905b815481529060010190602001808311613a0457829003601f168201915b50505050509080600501805461281a9061536d565b6060815f81118015613a4a57506001548111155b613a665760405162461bcd60e51b815260040161057e90615277565b5f838152600c60209081526040808320805460079093529220600a8101546001820190613a959060ff16614194565b613a9e84613f3d565b604051602001613ab09392919061591b565b60408051601f1981840301815291905294505f5b82811015613b73575f600b5f868481548110613ae257613ae261563b565b905f5260205f20015481526020019081526020015f20905086613b10836001613b0b919061573a565b613f3d565b600383015460028401906004850190613b31906001600160a01b0316613b7d565b85600501613b428760060154613f3d565b604051602001613b5897969594939291906159de565b60408051601f19818403018152919052965050600101613ac4565b5050505050919050565b604051606082811b6bffffffffffffffffffffffff19166020830152905f9060340160408051808303601f19018152600a80845283830190925292505f91906020820181803683370190505090505f6040518060400160405280601081526020016f181899199a1a9b1b9c1cb0b131b232b360811b8152509050600360fc1b825f81518110613c0e57613c0e61563b565b60200101906001600160f81b03191690815f1a905350600f60fb1b82600181518110613c3c57613c3c61563b565b60200101906001600160f81b03191690815f1a905350806004845f81518110613c6757613c6761563b565b0160200151825160f89190911c90911c60ff16908110613c8957613c8961563b565b602001015160f81c60f81b82600281518110613ca757613ca761563b565b60200101906001600160f81b03191690815f1a90535080835f81518110613cd057613cd061563b565b602001015160f81c60f81b60f81c600f1660ff1681518110613cf457613cf461563b565b602001015160f81c60f81b82600381518110613d1257613d1261563b565b60200101906001600160f81b03191690815f1a90535080600484600181518110613d3e57613d3e61563b565b0160200151825160f89190911c90911c60ff16908110613d6057613d6061563b565b602001015160f81c60f81b82600481518110613d7e57613d7e61563b565b60200101906001600160f81b03191690815f1a9053508083600181518110613da857613da861563b565b602001015160f81c60f81b60f81c600f1660ff1681518110613dcc57613dcc61563b565b602001015160f81c60f81b82600581518110613dea57613dea61563b565b60200101906001600160f81b03191690815f1a905350601760f91b82600681518110613e1857613e1861563b565b60200101906001600160f81b03191690815f1a905350601760f91b82600781518110613e4657613e4661563b565b60200101906001600160f81b03191690815f1a90535080600484601381518110613e7257613e7261563b565b0160200151825160f89190911c90911c60ff16908110613e9457613e9461563b565b602001015160f81c60f81b82600881518110613eb257613eb261563b565b60200101906001600160f81b03191690815f1a9053508083601381518110613edc57613edc61563b565b602001015160f81c60f81b60f81c600f1660ff1681518110613f0057613f0061563b565b602001015160f81c60f81b82600981518110613f1e57613f1e61563b565b60200101906001600160f81b03191690815f1a90535090949350505050565b6060815f03613f635750506040805180820190915260018152600360fc1b602082015290565b815f5b8115613f8c5780613f7681615355565b9150613f859050600a83615b44565b9150613f66565b5f816001600160401b03811115613fa557613fa5614753565b6040519080825280601f01601f191660200182016040528015613fcf576020820181803683370190505b509050815b851561403b5780613fe481615b57565b9150613ff39050600a87615b6c565b613ffe90603061573a565b60f81b8282815181106140135761401361563b565b60200101906001600160f81b03191690815f1a905350614034600a87615b44565b9550613fd4565b50949350505050565b60058054905f61405383615355565b90915550506040805160e08101825260055480825260208083018981528385018981526001600160a01b03891660608601526080850188905260a085018790524260c08601525f938452600b9092529390912082518155925160018401555190919060028201906140c490826153f6565b5060608201516003820180546001600160a01b0319166001600160a01b03909216919091179055608082015160048201906140ff90826153f6565b5060a0820151600582019061411490826153f6565b5060c091909101516006909101555f858152600c6020908152604080832060055481546001810183559185529290932090920155516001600160a01b0384169086907f10042177c88eca7ffbb15ca8d2bca496fa73815200ce7e2e99f24cd5946bb546906141859088904290615b7f565b60405180910390a35050505050565b60605f8260038111156141a9576141a961487a565b036141de5750506040805180820190915260148152735265676973746572656420284174204661726d2960601b602082015290565b60018260038111156141f2576141f261487a565b036142285750506040805180820190915260158152742a3930b739b332b93932b2103a37902a3930b232b960591b602082015290565b600282600381111561423c5761423c61487a565b0361426757505060408051808201909152600a815269125b88151c985b9cda5d60b21b602082015290565b604051806060016040528060228152602001615bdb6022913992915050565b60605f82600481111561429b5761429b61487a565b036142d957505060408051808201909152601c81527f4f79737465722028506c6575726f747573206f73747265617475732900000000602082015290565b60018260048111156142ed576142ed61487a565b0361432b57505060408051808201909152601b81527f5368696974616b6520284c656e74696e756c612065646f646573290000000000602082015290565b600282600481111561433f5761433f61487a565b0361437d57505060408051808201909152601a81527f427574746f6e2028416761726963757320626973706f72757329000000000000602082015290565b60038260048111156143915761439161487a565b036143b857505060408051808201909152600681526552656973686960d01b602082015290565b505060408051808201909152600b81526a4c696f6e2773204d616e6560a81b602082015290565b606060018260058111156143f5576143f561487a565b0361441b57505060408051808201909152600581526420b236b4b760d91b602082015290565b600282600581111561442f5761442f61487a565b036144565750506040805180820190915260068152652330b936b2b960d11b602082015290565b600382600581111561446a5761446a61487a565b036144915750506040805180820190915260068152652a3930b232b960d11b602082015290565b60048260058111156144a5576144a561487a565b036144d157505060408051808201909152600b81526a2a3930b739b837b93a32b960a91b602082015290565b60058260058111156144e5576144e561487a565b0361450c5750506040805180820190915260068152652b32b73237b960d11b602082015290565b50506040805180820190915260048152634e6f6e6560e01b602082015290565b60606107ea61453a83614631565b60405160200161454a9190615ba0565b604051602081830303815290604052915050919050565b60605f8260038111156145765761457661487a565b0361459c57505060408051808201909152600581526408ce4cae6d60db1b602082015290565b60018260038111156145b0576145b061487a565b036145d557505060408051808201909152600481526311dbdbd960e21b602082015290565b60028260038111156145e9576145e961487a565b0361460e5750506040805180820190915260048152632330b4b960e11b602082015290565b505060408051808201909152600781526611185b5859d95960ca1b602082015290565b60605f61463d83613f3d565b805160408051602081019091525f815291925090600182900361467b57506040805180820190915260048152630303030360e41b60208201526146ec565b816002036146a3575060408051808201909152600381526203030360ec1b60208201526146ec565b816003036146ca5750604080518082019091526002815261030360f41b60208201526146ec565b816004036146ec57506040805180820190915260018152600360fc1b60208201525b80836040516020016146ff929190615bbe565b6040516020818303038152906040529350505050919050565b80356001600160a01b038116811461472e575f5ffd5b919050565b5f60208284031215614743575f5ffd5b61474c82614718565b9392505050565b634e487b7160e01b5f52604160045260245ffd5b5f82601f830112614776575f5ffd5b81356001600160401b0381111561478f5761478f614753565b604051601f8201601f19908116603f011681016001600160401b03811182821017156147bd576147bd614753565b6040528181528382016020018510156147d4575f5ffd5b816020850160208301375f918101602001919091529392505050565b5f5f5f5f60808587031215614803575f5ffd5b8435935061481360208601614718565b92506040850135915060608501356001600160401b03811115614834575f5ffd5b61484087828801614767565b91505092959194509250565b5f81518084528060208401602086015e5f602082860101526020601f19601f83011685010191505092915050565b634e487b7160e01b5f52602160045260245ffd5b6006811061489e5761489e61487a565b9052565b6001600160a01b0389168152610100602082018190525f906148c69083018a61484c565b6148d3604084018a61488e565b82810360608401526148e5818961484c565b905082810360808401526148f9818861484c565b905082810360a084015261490d818761484c565b94151560c0840152505060e001529695505050505050565b5f60208284031215614935575f5ffd5b5035919050565b8b81528a602082015260018060a01b038a16604082015261016060608201525f61496a61016083018b61484c565b828103608084015261497c818b61484c565b905082810360a0840152614990818a61484c565b90508760c08401528660e08401528281036101008401526149b1818761484c565b941515610120840152505061014001529998505050505050505050565b602081525f61474c602083018461484c565b803560ff8116811461472e575f5ffd5b5f5f5f5f5f5f60c08789031215614a05575f5ffd5b614a0e87614718565b955060208701356001600160401b03811115614a28575f5ffd5b614a3489828a01614767565b955050614a43604088016149e0565b935060608701356001600160401b03811115614a5d575f5ffd5b614a6989828a01614767565b93505060808701356001600160401b03811115614a84575f5ffd5b614a9089828a01614767565b92505060a08701356001600160401b03811115614aab575f5ffd5b614ab789828a01614767565b9150509295509295509295565b61014081525f614ad861014083018d61484c565b8281036020840152614aea818d61484c565b90508a60408401528281036060840152614b04818b61484c565b90508281036080840152614b18818a61484c565b905082810360a0840152614b2c818961484c565b6001600160a01b0397881660c08501529590961660e08301525061010081019290925261012090910152979650505050505050565b60e081525f614b7360e083018a61484c565b8281036020840152614b85818a61484c565b90508281036040840152614b99818961484c565b90508281036060840152614bad818861484c565b90508281036080840152614bc1818761484c565b94151560a0840152505060c0015295945050505050565b5f8151808452602084019350602083015f5b82811015614c08578151865260209586019590910190600101614bea565b5093949350505050565b5f82825180855260208501945060208160051b830101602085015f5b83811015614c6057601f19858403018852614c4a83835161484c565b6020988901989093509190910190600101614c2e565b50909695505050505050565b60c081525f614c7e60c0830189614bd8565b8281036020840152614c908189614c12565b838103604085015287518082526020808a019350909101905f5b81811015614cd15783516001600160a01b0316835260209384019390920191600101614caa565b50508381036060850152614ce58188614c12565b9150508281036080840152614cfa8186614c12565b905082810360a0840152614d0e8185614bd8565b9998505050505050505050565b888152602081018890526001600160a01b038781166040830152861660608201526080810185905260a0810184905260c0810183905261010060e082018190525f90614d699083018461484c565b9a9950505050505050505050565b6001600160a01b0389168152610100602082018190525f90614d9b9083018a61484c565b8281036040840152614dad818a61484c565b90508281036060840152614dc1818961484c565b90508660808401528560a084015282810360c0840152614de1818661484c565b91505082151560e08301529998505050505050505050565b86815260c060208201525f614e1160c083018861484c565b6001600160a01b03871660408401528281036060840152614e32818761484c565b90508281036080840152614e46818661484c565b9150508260a0830152979650505050505050565b5f5f5f5f5f5f60c08789031215614e6f575f5ffd5b614e78876149e0565b95506020870135945060408701356001600160401b03811115614e99575f5ffd5b614ea589828a01614767565b94505060608701356001600160401b03811115614a5d575f5ffd5b60048110614ed057614ed061487a565b50565b878152602081018790526001600160a01b038616604082015260608101859052614efc84614ec0565b83608082015260e060a08201525f614f1760e083018561484c565b90508260c083015298975050505050505050565b5f5f5f5f5f5f60c08789031215614f40575f5ffd5b8635955060208701356001600160401b03811115614f5c575f5ffd5b614f6889828a01614767565b95505060408701356001600160401b03811115614f83575f5ffd5b614f8f89828a01614767565b94505060608701356001600160401b03811115614faa575f5ffd5b614fb689828a01614767565b9350506080870135915060a08701356001600160401b03811115614aab575f5ffd5b6005811061489e5761489e61487a565b61489e81614ec0565b8d81526101a060208201525f61500b6101a083018f61484c565b615018604084018f614fd8565b8c60608401528b608084015261503960a084018c6001600160a01b03169052565b82810360c084015261504b818b61484c565b905082810360e084015261505f818a61484c565b9050828103610100840152615074818961484c565b9050828103610120840152615089818861484c565b91505061509a610140830186614fe8565b6001600160a01b039390931661016082015261018001529b9a5050505050505050505050565b6001600160a01b0387811682528616602082015260408101859052606081018490526080810183905260c060a082018190525f906151009083018461484c565b98975050505050505050565b60018060a01b038616815284602082015260a060408201525f61513260a083018661484c565b8281036060840152615144818661484c565b9150508260808301529695505050505050565b5f5f5f5f6080858703121561516a575f5ffd5b8435935060208501359250615181604086016149e0565b915060608501356001600160401b03811115614834575f5ffd5b5f5f604083850312156151ac575f5ffd5b50508035926020909101359150565b602081525f61474c6020830184614bd8565b87815286602082015260e060408201525f6151eb60e083018861484c565b6001600160a01b0387166060840152828103608084015261520c818761484c565b905082810360a0840152615220818661484c565b9150508260c083015298975050505050505050565b60208082526022908201527f4d757368436861696e3a2063616c6c6572206973206e6f74207468652041646d60408201526134b760f11b606082015260800190565b6020808252601f908201527f4d757368436861696e3a20626174636820646f6573206e6f7420657869737400604082015260600190565b60208082526029908201527f4d757368436861696e3a20696e636f727265637420726f6c6520666f7220746860408201526834b99030b1ba34b7b760b91b606082015260800190565b6020808252602a908201527f4d757368436861696e3a207061727469636970616e74206163636f756e7420696040820152697320696e61637469766560b01b606082015260800190565b634e487b7160e01b5f52601160045260245ffd5b5f6001820161536657615366615341565b5060010190565b600181811c9082168061538157607f821691505b6020821081036110a457634e487b7160e01b5f52602260045260245ffd5b601f8211156153f157828211156153f157805f5260205f20601f840160051c60208510156153ca57505f5b90810190601f840160051c035f5b818110156153ed575f838201556001016153d8565b5050505b505050565b81516001600160401b0381111561540f5761540f614753565b6154238161541d845461536d565b8461539f565b6020601f821160018114615455575f831561543e5750848201515b5f19600385901b1c1916600184901b1784556154ad565b5f84815260208120601f198516915b828110156154845787850151825560209485019460019092019101615464565b50848210156154a157868401515f19600387901b60f8161c191681555b505060018360011b0184555b5050505050565b5f81518060208401855e5f93019283525090919050565b6c0233937b6902330b936b2b91d1609d1b81525f6154ec600d8301886154b4565b6b010169f102a3930b232b91d160a51b815261550b600c8201886154b4565b90506c0103e10283934b1b297b5b39d1609d1b815261552d600d8201876154b4565b9050670103e1028ba3c9d160c51b815261554a60088201866154b4565b905062206b6760e81b8152690103e102737ba32b99d160b51b6003820152615100600d8201856154b4565b606081525f615587606083018661484c565b9050615596602083018561488e565b826040830152949350505050565b5f81546155b08161536d565b6001821680156155c757600181146155dc57615609565b60ff1983168652811515820286019350615609565b845f5260205f205f5b83811015615601578154888201526001909101906020016155e5565b505081860193505b50505092915050565b5f61561d82856155a4565b61016160f51b815261563260028201856155a4565b95945050505050565b634e487b7160e01b5f52603260045260245ffd5b6502330b9369d160d51b81525f61566960068301886154b4565b6b0103e102b30b934b2ba3c9d160a51b8152615688600c8201886154b4565b9050670103e1028ba3c9d160c51b81526156a560088201876154b4565b905062206b6760e81b81526c0103e102130b930b733b0bc9d1609d1b60038201526156d360108201866154b4565b905061016160f51b815261510060028201856154b4565b608081525f6156fc608083018761484c565b905061570b6020830186614fd8565b60408201939093526060015292915050565b808202811582820484141761573457615734615341565b92915050565b8082018082111561573457615734615341565b6802b32b434b1b6329d160bd1b81525f61576a60098301886154b4565b680103e10233937b69d160bd1b815261578660098201886154b4565b9050660103e102a379d160cd1b81526157a260078201876154b4565b9050670103e1022aa209d160c51b81526157bf60088201866154b4565b90506520687228732960d01b81526d0103e1021b7b73234ba34b7b71d160951b600682015261510060148201856154b4565b606081525f615803606083018661484c565b8281036020840152615815818661484c565b915050826040830152949350505050565b6702b32b73237b91d160c51b81525f61584260088301876154b4565b700103e1028ba3c902932b1b2b4bb32b21d1607d1b815261586660118201876154b4565b905062206b6760e81b81526d0103e1021b7b73234ba34b7b71d160951b600382015261589560118201866154b4565b9050690103e102737ba32b99d160b51b81526158b4600a8201856154b4565b979650505050505050565b606081016158cc85614ec0565b938152602081019290925260409091015290565b7f3d3d3d3d3d3d3d3d3d3d3d3d3d3d3d3d3d3d3d3d3d3d3d3d3d3d3d3d3d3d3d3d8152681e9e9e9e9e9e9e9e8560b91b602082015260290190565b5f615925826158e0565b7f20204d555348434841494e205048204155444954205245504f52540a00000000815268010102130ba31b41d160bd1b601c82015261596760258201876155a4565b600560f91b8152690101029ba30ba3ab99d160b51b60018201529050615990600b8201866154b4565b600560f91b81526f010102a37ba30b61022bb32b73a399d160851b600182015290506159bf60118201856154b4565b600560f91b815290506159d4600182016158e0565b9695505050505050565b5f6159e9828a6154b4565b610a5b60f01b81526159fe600282018a6154b4565b90506102e960f51b8152615a1560028201896155a4565b600560f91b81526d0101010102937b632901010101d160951b60018201529050615a42600f8201886155a4565b600560f91b81526d01010101020b1ba37b91010101d160951b60018201529050615a6f600f8201876154b4565b600560f91b81526d0101010102232ba30b4b639901d160951b600182019081529150600f01615a9e81876155a4565b600560f91b815291505060018101615b21615ae6615ad9615ad3846d0101010102a34b6b2901010101d160951b8152600e0190565b886154b4565b600560f91b815260010190565b7f2d2d2d2d2d2d2d2d2d2d2d2d2d2d2d2d2d2d2d2d2d2d2d2d2d2d2d2d2d2d2d2d81526816969696969696968560b91b602082015260290190565b9b9a5050505050505050505050565b634e487b7160e01b5f52601260045260245ffd5b5f82615b5257615b52615b30565b500490565b5f81615b6557615b65615341565b505f190190565b5f82615b7a57615b7a615b30565b500690565b604081525f615b91604083018561484c565b90508260208301529392505050565b69465450482d323032362d60b01b81525f61474c600a8301846154b4565b5f615bd2615bcc83866154b4565b846154b4565b94935050505056fe44656c6976657265643a20436861696e206f6620437573746f647920436c6f736564a2646970667358221220ba36ad02f4fa8442aef65cae22eb8bbd78b9c6be48527fdbcb48c041af4f4ef464736f6c63430008220033",
			"opcodes": "PUSH1 0x80 PUSH1 0x40 MSTORE CALLVALUE DUP1 ISZERO PUSH2 0xF JUMPI PUSH0 PUSH0 REVERT JUMPDEST POP PUSH0 DUP1 SLOAD CALLER PUSH1 0x1 PUSH1 0x1 PUSH1 0xA0 SHL SUB NOT SWAP2 DUP3 AND DUP2 OR DUP4 SSTORE PUSH1 0x40 DUP1 MLOAD PUSH2 0x100 DUP2 ADD DUP3 MSTORE DUP3 DUP2 MSTORE DUP2 MLOAD DUP1 DUP4 ADD DUP4 MSTORE PUSH1 0x14 DUP1 DUP3 MSTORE PUSH32 0x53797374656D2041646D696E6973747261746F72000000000000000000000000 PUSH1 0x20 DUP1 DUP5 ADD SWAP2 SWAP1 SWAP2 MSTORE DUP1 DUP5 ADD SWAP3 DUP4 MSTORE PUSH1 0x1 DUP5 DUP7 ADD DUP2 SWAP1 MSTORE DUP6 MLOAD DUP1 DUP8 ADD DUP8 MSTORE SWAP3 DUP4 MSTORE PUSH32 0x4D757368436861696E205048202F2050414D5347000000000000000000000000 DUP4 DUP4 ADD MSTORE PUSH1 0x60 DUP6 ADD SWAP3 SWAP1 SWAP3 MSTORE DUP5 MLOAD DUP1 DUP7 ADD DUP7 MSTORE PUSH1 0x6 DUP1 DUP3 MSTORE PUSH6 0x426F63617565 PUSH1 0xD0 SHL DUP3 DUP5 ADD MSTORE PUSH1 0x80 DUP7 ADD SWAP2 SWAP1 SWAP2 MSTORE DUP6 MLOAD DUP1 DUP8 ADD DUP8 MSTORE PUSH1 0xF DUP2 MSTORE PUSH15 0x2137B1B0BAB29610213AB630B1B0B7 PUSH1 0x89 SHL DUP2 DUP5 ADD MSTORE PUSH1 0xA0 DUP7 ADD MSTORE PUSH1 0xC0 DUP6 ADD DUP4 SWAP1 MSTORE TIMESTAMP PUSH1 0xE0 DUP7 ADD MSTORE SWAP6 DUP9 MSTORE SWAP5 SWAP1 SWAP5 MSTORE SWAP2 SWAP1 SWAP5 KECCAK256 DUP5 MLOAD DUP2 SLOAD PUSH1 0x1 PUSH1 0x1 PUSH1 0xA0 SHL SUB SWAP1 SWAP2 AND SWAP5 AND SWAP4 SWAP1 SWAP4 OR DUP4 SSTORE MLOAD SWAP1 DUP3 ADD SWAP1 PUSH2 0x134 SWAP1 DUP3 PUSH2 0x2B9 JUMP JUMPDEST POP PUSH1 0x40 DUP3 ADD MLOAD PUSH1 0x2 DUP3 ADD DUP1 SLOAD PUSH1 0xFF NOT AND PUSH1 0x1 DUP4 PUSH1 0x5 DUP2 GT ISZERO PUSH2 0x158 JUMPI PUSH2 0x158 PUSH2 0x202 JUMP JUMPDEST MUL OR SWAP1 SSTORE POP PUSH1 0x60 DUP3 ADD MLOAD PUSH1 0x3 DUP3 ADD SWAP1 PUSH2 0x171 SWAP1 DUP3 PUSH2 0x2B9 JUMP JUMPDEST POP PUSH1 0x80 DUP3 ADD MLOAD PUSH1 0x4 DUP3 ADD SWAP1 PUSH2 0x186 SWAP1 DUP3 PUSH2 0x2B9 JUMP JUMPDEST POP PUSH1 0xA0 DUP3 ADD MLOAD PUSH1 0x5 DUP3 ADD SWAP1 PUSH2 0x19B SWAP1 DUP3 PUSH2 0x2B9 JUMP JUMPDEST POP PUSH1 0xC0 DUP3 ADD MLOAD PUSH1 0x6 DUP3 ADD DUP1 SLOAD PUSH1 0xFF NOT AND SWAP2 ISZERO ISZERO SWAP2 SWAP1 SWAP2 OR SWAP1 SSTORE PUSH1 0xE0 SWAP1 SWAP2 ADD MLOAD PUSH1 0x7 SWAP1 SWAP2 ADD SSTORE PUSH1 0x40 MLOAD CALLER SWAP1 PUSH32 0x5BD06948838B1107EA3CF2C487E1B707CFAB3A3024F2D5FA6EE4D85BD2484294 SWAP1 PUSH2 0x1F5 SWAP1 PUSH1 0x1 SWAP1 TIMESTAMP SWAP1 PUSH2 0x377 JUMP JUMPDEST PUSH1 0x40 MLOAD DUP1 SWAP2 SUB SWAP1 LOG2 PUSH2 0x3D7 JUMP JUMPDEST PUSH4 0x4E487B71 PUSH1 0xE0 SHL PUSH0 MSTORE PUSH1 0x21 PUSH1 0x4 MSTORE PUSH1 0x24 PUSH0 REVERT JUMPDEST PUSH4 0x4E487B71 PUSH1 0xE0 SHL PUSH0 MSTORE PUSH1 0x41 PUSH1 0x4 MSTORE PUSH1 0x24 PUSH0 REVERT JUMPDEST PUSH1 0x1 DUP2 DUP2 SHR SWAP1 DUP3 AND DUP1 PUSH2 0x23E JUMPI PUSH1 0x7F DUP3 AND SWAP2 POP JUMPDEST PUSH1 0x20 DUP3 LT DUP2 SUB PUSH2 0x25C JUMPI PUSH4 0x4E487B71 PUSH1 0xE0 SHL PUSH0 MSTORE PUSH1 0x22 PUSH1 0x4 MSTORE PUSH1 0x24 PUSH0 REVERT JUMPDEST POP SWAP2 SWAP1 POP JUMP JUMPDEST PUSH1 0x1F DUP3 GT ISZERO PUSH2 0x2B4 JUMPI DUP3 DUP3 GT ISZERO PUSH2 0x2B4 JUMPI DUP1 PUSH0 MSTORE PUSH1 0x20 PUSH0 KECCAK256 PUSH1 0x1F DUP5 ADD PUSH1 0x5 SHR PUSH1 0x20 DUP6 LT ISZERO PUSH2 0x28D JUMPI POP PUSH0 JUMPDEST SWAP1 DUP2 ADD SWAP1 PUSH1 0x1F DUP5 ADD PUSH1 0x5 SHR SUB PUSH0 JUMPDEST DUP2 DUP2 LT ISZERO PUSH2 0x2B0 JUMPI PUSH0 DUP4 DUP3 ADD SSTORE PUSH1 0x1 ADD PUSH2 0x29B JUMP JUMPDEST POP POP POP JUMPDEST POP POP POP JUMP JUMPDEST DUP2 MLOAD PUSH1 0x1 PUSH1 0x1 PUSH1 0x40 SHL SUB DUP2 GT ISZERO PUSH2 0x2D2 JUMPI PUSH2 0x2D2 PUSH2 0x216 JUMP JUMPDEST PUSH2 0x2E6 DUP2 PUSH2 0x2E0 DUP5 SLOAD PUSH2 0x22A JUMP JUMPDEST DUP5 PUSH2 0x262 JUMP JUMPDEST PUSH1 0x20 PUSH1 0x1F DUP3 GT PUSH1 0x1 DUP2 EQ PUSH2 0x318 JUMPI PUSH0 DUP4 ISZERO PUSH2 0x301 JUMPI POP DUP5 DUP3 ADD MLOAD JUMPDEST PUSH0 NOT PUSH1 0x3 DUP6 SWAP1 SHL SHR NOT AND PUSH1 0x1 DUP5 SWAP1 SHL OR DUP5 SSTORE PUSH2 0x370 JUMP JUMPDEST PUSH0 DUP5 DUP2 MSTORE PUSH1 0x20 DUP2 KECCAK256 PUSH1 0x1F NOT DUP6 AND SWAP2 JUMPDEST DUP3 DUP2 LT ISZERO PUSH2 0x347 JUMPI DUP8 DUP6 ADD MLOAD DUP3 SSTORE PUSH1 0x20 SWAP5 DUP6 ADD SWAP5 PUSH1 0x1 SWAP1 SWAP3 ADD SWAP2 ADD PUSH2 0x327 JUMP JUMPDEST POP DUP5 DUP3 LT ISZERO PUSH2 0x364 JUMPI DUP7 DUP5 ADD MLOAD PUSH0 NOT PUSH1 0x3 DUP8 SWAP1 SHL PUSH1 0xF8 AND SHR NOT AND DUP2 SSTORE JUMPDEST POP POP PUSH1 0x1 DUP4 PUSH1 0x1 SHL ADD DUP5 SSTORE JUMPDEST POP POP POP POP POP JUMP JUMPDEST PUSH1 0x60 DUP1 DUP3 MSTORE PUSH1 0x14 SWAP1 DUP3 ADD MSTORE PUSH32 0x53797374656D2041646D696E6973747261746F72000000000000000000000000 PUSH1 0x80 DUP3 ADD MSTORE PUSH1 0xA0 DUP2 ADD PUSH1 0x6 DUP5 LT PUSH2 0x3C8 JUMPI PUSH4 0x4E487B71 PUSH1 0xE0 SHL PUSH0 MSTORE PUSH1 0x21 PUSH1 0x4 MSTORE PUSH1 0x24 PUSH0 REVERT JUMPDEST PUSH1 0x20 DUP3 ADD SWAP4 SWAP1 SWAP4 MSTORE PUSH1 0x40 ADD MSTORE SWAP1 JUMP JUMPDEST PUSH2 0x5C32 DUP1 PUSH2 0x3E4 PUSH0 CODECOPY PUSH0 RETURN INVALID PUSH1 0x80 PUSH1 0x40 MSTORE CALLVALUE DUP1 ISZERO PUSH2 0xF JUMPI PUSH0 PUSH0 REVERT JUMPDEST POP PUSH1 0x4 CALLDATASIZE LT PUSH2 0x1C5 JUMPI PUSH0 CALLDATALOAD PUSH1 0xE0 SHR DUP1 PUSH4 0xA835E8FA GT PUSH2 0xFE JUMPI DUP1 PUSH4 0xCFC0C449 GT PUSH2 0x9E JUMPI DUP1 PUSH4 0xE80E076B GT PUSH2 0x6E JUMPI DUP1 PUSH4 0xE80E076B EQ PUSH2 0x4DD JUMPI DUP1 PUSH4 0xF22AC6F1 EQ PUSH2 0x4F2 JUMPI DUP1 PUSH4 0xF8031E90 EQ PUSH2 0x518 JUMPI DUP1 PUSH4 0xF851A440 EQ PUSH2 0x52B JUMPI PUSH0 PUSH0 REVERT JUMPDEST DUP1 PUSH4 0xCFC0C449 EQ PUSH2 0x480 JUMPI DUP1 PUSH4 0xD8A3081D EQ PUSH2 0x4A4 JUMPI DUP1 PUSH4 0xDE97B81C EQ PUSH2 0x4B7 JUMPI DUP1 PUSH4 0xE3DA5F03 EQ PUSH2 0x4CA JUMPI PUSH0 PUSH0 REVERT JUMPDEST DUP1 PUSH4 0xB32C4D8D GT PUSH2 0xD9 JUMPI DUP1 PUSH4 0xB32C4D8D EQ PUSH2 0x3F1 JUMPI DUP1 PUSH4 0xB76B7536 EQ PUSH2 0x41D JUMPI DUP1 PUSH4 0xB98EAE9C EQ PUSH2 0x43C JUMPI DUP1 PUSH4 0xC752E8E9 EQ PUSH2 0x45B JUMPI PUSH0 PUSH0 REVERT JUMPDEST DUP1 PUSH4 0xA835E8FA EQ PUSH2 0x3A5 JUMPI DUP1 PUSH4 0xA9E4A324 EQ PUSH2 0x3B8 JUMPI DUP1 PUSH4 0xABD39CFA EQ PUSH2 0x3DE JUMPI PUSH0 PUSH0 REVERT JUMPDEST DUP1 PUSH4 0x60F1233D GT PUSH2 0x169 JUMPI DUP1 PUSH4 0x9377D711 GT PUSH2 0x144 JUMPI DUP1 PUSH4 0x9377D711 EQ PUSH2 0x313 JUMPI DUP1 PUSH4 0x9595B8C5 EQ PUSH2 0x33A JUMPI DUP1 PUSH4 0xA217D08E EQ PUSH2 0x361 JUMPI DUP1 PUSH4 0xA61ECC62 EQ PUSH2 0x380 JUMPI PUSH0 PUSH0 REVERT JUMPDEST DUP1 PUSH4 0x60F1233D EQ PUSH2 0x29F JUMPI DUP1 PUSH4 0x7143059F EQ PUSH2 0x2C8 JUMPI DUP1 PUSH4 0x73247A03 EQ PUSH2 0x2EE JUMPI PUSH0 PUSH0 REVERT JUMPDEST DUP1 PUSH4 0x290B17EC GT PUSH2 0x1A4 JUMPI DUP1 PUSH4 0x290B17EC EQ PUSH2 0x221 JUMPI DUP1 PUSH4 0x2AC08A93 EQ PUSH2 0x242 JUMPI DUP1 PUSH4 0x2D1BBC8E EQ PUSH2 0x26C JUMPI DUP1 PUSH4 0x55CEB89D EQ PUSH2 0x28C JUMPI PUSH0 PUSH0 REVERT JUMPDEST DUP1 PUSH3 0x48E5A5 EQ PUSH2 0x1C9 JUMPI DUP1 PUSH4 0x27F99F8 EQ PUSH2 0x1DE JUMPI DUP1 PUSH4 0x9E69EDE EQ PUSH2 0x1F1 JUMPI JUMPDEST PUSH0 PUSH0 REVERT JUMPDEST PUSH2 0x1DC PUSH2 0x1D7 CALLDATASIZE PUSH1 0x4 PUSH2 0x4733 JUMP JUMPDEST PUSH2 0x555 JUMP JUMPDEST STOP JUMPDEST PUSH2 0x1DC PUSH2 0x1EC CALLDATASIZE PUSH1 0x4 PUSH2 0x47F0 JUMP JUMPDEST PUSH2 0x61A JUMP JUMPDEST PUSH2 0x204 PUSH2 0x1FF CALLDATASIZE PUSH1 0x4 PUSH2 0x4733 JUMP JUMPDEST PUSH2 0xB4C JUMP JUMPDEST PUSH1 0x40 MLOAD PUSH2 0x218 SWAP9 SWAP8 SWAP7 SWAP6 SWAP5 SWAP4 SWAP3 SWAP2 SWAP1 PUSH2 0x48A2 JUMP JUMPDEST PUSH1 0x40 MLOAD DUP1 SWAP2 SUB SWAP1 RETURN JUMPDEST PUSH2 0x234 PUSH2 0x22F CALLDATASIZE PUSH1 0x4 PUSH2 0x4925 JUMP JUMPDEST PUSH2 0xDBB JUMP JUMPDEST PUSH1 0x40 MLOAD SWAP1 DUP2 MSTORE PUSH1 0x20 ADD PUSH2 0x218 JUMP JUMPDEST PUSH2 0x255 PUSH2 0x250 CALLDATASIZE PUSH1 0x4 PUSH2 0x4925 JUMP JUMPDEST PUSH2 0xDDA JUMP JUMPDEST PUSH1 0x40 MLOAD PUSH2 0x218 SWAP12 SWAP11 SWAP10 SWAP9 SWAP8 SWAP7 SWAP6 SWAP5 SWAP4 SWAP3 SWAP2 SWAP1 PUSH2 0x493C JUMP JUMPDEST PUSH2 0x27F PUSH2 0x27A CALLDATASIZE PUSH1 0x4 PUSH2 0x4925 JUMP JUMPDEST PUSH2 0x1054 JUMP JUMPDEST PUSH1 0x40 MLOAD PUSH2 0x218 SWAP2 SWAP1 PUSH2 0x49CE JUMP JUMPDEST PUSH2 0x1DC PUSH2 0x29A CALLDATASIZE PUSH1 0x4 PUSH2 0x49F0 JUMP JUMPDEST PUSH2 0x10AA JUMP JUMPDEST PUSH2 0x2B2 PUSH2 0x2AD CALLDATASIZE PUSH1 0x4 PUSH2 0x4925 JUMP JUMPDEST PUSH2 0x13B5 JUMP JUMPDEST PUSH1 0x40 MLOAD PUSH2 0x218 SWAP11 SWAP10 SWAP9 SWAP8 SWAP7 SWAP6 SWAP5 SWAP4 SWAP3 SWAP2 SWAP1 PUSH2 0x4AC4 JUMP JUMPDEST PUSH2 0x2DB PUSH2 0x2D6 CALLDATASIZE PUSH1 0x4 PUSH2 0x4733 JUMP JUMPDEST PUSH2 0x15B8 JUMP JUMPDEST PUSH1 0x40 MLOAD PUSH2 0x218 SWAP8 SWAP7 SWAP6 SWAP5 SWAP4 SWAP3 SWAP2 SWAP1 PUSH2 0x4B61 JUMP JUMPDEST PUSH2 0x301 PUSH2 0x2FC CALLDATASIZE PUSH1 0x4 PUSH2 0x4925 JUMP JUMPDEST PUSH2 0x1859 JUMP JUMPDEST PUSH1 0x40 MLOAD PUSH2 0x218 SWAP7 SWAP6 SWAP5 SWAP4 SWAP3 SWAP2 SWAP1 PUSH2 0x4C6C JUMP JUMPDEST PUSH2 0x326 PUSH2 0x321 CALLDATASIZE PUSH1 0x4 PUSH2 0x4925 JUMP JUMPDEST PUSH2 0x1D24 JUMP JUMPDEST PUSH1 0x40 MLOAD PUSH2 0x218 SWAP9 SWAP8 SWAP7 SWAP6 SWAP5 SWAP4 SWAP3 SWAP2 SWAP1 PUSH2 0x4D1B JUMP JUMPDEST PUSH2 0x34D PUSH2 0x348 CALLDATASIZE PUSH1 0x4 PUSH2 0x4925 JUMP JUMPDEST PUSH2 0x1DFC JUMP JUMPDEST PUSH1 0x40 MLOAD PUSH2 0x218 SWAP9 SWAP8 SWAP7 SWAP6 SWAP5 SWAP4 SWAP3 SWAP2 SWAP1 PUSH2 0x4D77 JUMP JUMPDEST PUSH2 0x234 PUSH2 0x36F CALLDATASIZE PUSH1 0x4 PUSH2 0x4925 JUMP JUMPDEST PUSH1 0xD PUSH1 0x20 MSTORE PUSH0 SWAP1 DUP2 MSTORE PUSH1 0x40 SWAP1 KECCAK256 SLOAD DUP2 JUMP JUMPDEST PUSH2 0x393 PUSH2 0x38E CALLDATASIZE PUSH1 0x4 PUSH2 0x4925 JUMP JUMPDEST PUSH2 0x213A JUMP JUMPDEST PUSH1 0x40 MLOAD PUSH2 0x218 SWAP7 SWAP6 SWAP5 SWAP4 SWAP3 SWAP2 SWAP1 PUSH2 0x4DF9 JUMP JUMPDEST PUSH2 0x234 PUSH2 0x3B3 CALLDATASIZE PUSH1 0x4 PUSH2 0x4E5A JUMP JUMPDEST PUSH2 0x2337 JUMP JUMPDEST PUSH2 0x3CB PUSH2 0x3C6 CALLDATASIZE PUSH1 0x4 PUSH2 0x4925 JUMP JUMPDEST PUSH2 0x27CF JUMP JUMPDEST PUSH1 0x40 MLOAD PUSH2 0x218 SWAP8 SWAP7 SWAP6 SWAP5 SWAP4 SWAP3 SWAP2 SWAP1 PUSH2 0x4ED3 JUMP JUMPDEST PUSH2 0x1DC PUSH2 0x3EC CALLDATASIZE PUSH1 0x4 PUSH2 0x4F2B JUMP JUMPDEST PUSH2 0x28A1 JUMP JUMPDEST PUSH2 0x404 PUSH2 0x3FF CALLDATASIZE PUSH1 0x4 PUSH2 0x4925 JUMP JUMPDEST PUSH2 0x2CE4 JUMP JUMPDEST PUSH1 0x40 MLOAD PUSH2 0x218 SWAP14 SWAP13 SWAP12 SWAP11 SWAP10 SWAP9 SWAP8 SWAP7 SWAP6 SWAP5 SWAP4 SWAP3 SWAP2 SWAP1 PUSH2 0x4FF1 JUMP JUMPDEST PUSH2 0x234 PUSH2 0x42B CALLDATASIZE PUSH1 0x4 PUSH2 0x4925 JUMP JUMPDEST PUSH1 0xE PUSH1 0x20 MSTORE PUSH0 SWAP1 DUP2 MSTORE PUSH1 0x40 SWAP1 KECCAK256 SLOAD DUP2 JUMP JUMPDEST PUSH2 0x234 PUSH2 0x44A CALLDATASIZE PUSH1 0x4 PUSH2 0x4925 JUMP JUMPDEST PUSH1 0xF PUSH1 0x20 MSTORE PUSH0 SWAP1 DUP2 MSTORE PUSH1 0x40 SWAP1 KECCAK256 SLOAD DUP2 JUMP JUMPDEST PUSH2 0x46E PUSH2 0x469 CALLDATASIZE PUSH1 0x4 PUSH2 0x4925 JUMP JUMPDEST PUSH2 0x3000 JUMP JUMPDEST PUSH1 0x40 MLOAD PUSH2 0x218 SWAP7 SWAP6 SWAP5 SWAP4 SWAP3 SWAP2 SWAP1 PUSH2 0x50C0 JUMP JUMPDEST PUSH2 0x493 PUSH2 0x48E CALLDATASIZE PUSH1 0x4 PUSH2 0x4925 JUMP JUMPDEST PUSH2 0x3184 JUMP JUMPDEST PUSH1 0x40 MLOAD PUSH2 0x218 SWAP6 SWAP5 SWAP4 SWAP3 SWAP2 SWAP1 PUSH2 0x510C JUMP JUMPDEST PUSH2 0x1DC PUSH2 0x4B2 CALLDATASIZE PUSH1 0x4 PUSH2 0x5157 JUMP JUMPDEST PUSH2 0x3307 JUMP JUMPDEST PUSH2 0x1DC PUSH2 0x4C5 CALLDATASIZE PUSH1 0x4 PUSH2 0x4733 JUMP JUMPDEST PUSH2 0x37A9 JUMP JUMPDEST PUSH2 0x234 PUSH2 0x4D8 CALLDATASIZE PUSH1 0x4 PUSH2 0x519B JUMP JUMPDEST PUSH2 0x3861 JUMP JUMPDEST PUSH2 0x4E5 PUSH2 0x388C JUMP JUMPDEST PUSH1 0x40 MLOAD PUSH2 0x218 SWAP2 SWAP1 PUSH2 0x51BB JUMP JUMPDEST PUSH2 0x505 PUSH2 0x500 CALLDATASIZE PUSH1 0x4 PUSH2 0x4925 JUMP JUMPDEST PUSH2 0x38E2 JUMP JUMPDEST PUSH1 0x40 MLOAD PUSH2 0x218 SWAP8 SWAP7 SWAP6 SWAP5 SWAP4 SWAP3 SWAP2 SWAP1 PUSH2 0x51CD JUMP JUMPDEST PUSH2 0x27F PUSH2 0x526 CALLDATASIZE PUSH1 0x4 PUSH2 0x4925 JUMP JUMPDEST PUSH2 0x3A36 JUMP JUMPDEST PUSH0 SLOAD PUSH2 0x53D SWAP1 PUSH1 0x1 PUSH1 0x1 PUSH1 0xA0 SHL SUB AND DUP2 JUMP JUMPDEST PUSH1 0x40 MLOAD PUSH1 0x1 PUSH1 0x1 PUSH1 0xA0 SHL SUB SWAP1 SWAP2 AND DUP2 MSTORE PUSH1 0x20 ADD PUSH2 0x218 JUMP JUMPDEST PUSH0 SLOAD PUSH1 0x1 PUSH1 0x1 PUSH1 0xA0 SHL SUB AND CALLER EQ PUSH2 0x587 JUMPI PUSH1 0x40 MLOAD PUSH3 0x461BCD PUSH1 0xE5 SHL DUP2 MSTORE PUSH1 0x4 ADD PUSH2 0x57E SWAP1 PUSH2 0x5235 JUMP JUMPDEST PUSH1 0x40 MLOAD DUP1 SWAP2 SUB SWAP1 REVERT JUMPDEST PUSH1 0x1 PUSH1 0x1 PUSH1 0xA0 SHL SUB DUP2 AND PUSH0 SWAP1 DUP2 MSTORE PUSH1 0x6 PUSH1 0x20 DUP2 SWAP1 MSTORE PUSH1 0x40 SWAP1 SWAP2 KECCAK256 ADD SLOAD PUSH1 0xFF AND ISZERO PUSH2 0x5F3 JUMPI PUSH1 0x40 MLOAD PUSH3 0x461BCD PUSH1 0xE5 SHL DUP2 MSTORE PUSH1 0x20 PUSH1 0x4 DUP3 ADD MSTORE PUSH1 0x19 PUSH1 0x24 DUP3 ADD MSTORE PUSH32 0x4D757368436861696E3A20616C72656164792061637469766500000000000000 PUSH1 0x44 DUP3 ADD MSTORE PUSH1 0x64 ADD PUSH2 0x57E JUMP JUMPDEST PUSH1 0x1 PUSH1 0x1 PUSH1 0xA0 SHL SUB AND PUSH0 SWAP1 DUP2 MSTORE PUSH1 0x6 PUSH1 0x20 DUP2 SWAP1 MSTORE PUSH1 0x40 SWAP1 SWAP2 KECCAK256 ADD DUP1 SLOAD PUSH1 0xFF NOT AND PUSH1 0x1 OR SWAP1 SSTORE JUMP JUMPDEST DUP4 PUSH0 DUP2 GT DUP1 ISZERO PUSH2 0x62C JUMPI POP PUSH1 0x1 SLOAD DUP2 GT ISZERO JUMPDEST PUSH2 0x648 JUMPI PUSH1 0x40 MLOAD PUSH3 0x461BCD PUSH1 0xE5 SHL DUP2 MSTORE PUSH1 0x4 ADD PUSH2 0x57E SWAP1 PUSH2 0x5277 JUMP JUMPDEST PUSH0 DUP6 DUP2 MSTORE PUSH1 0x7 PUSH1 0x20 MSTORE PUSH1 0x40 SWAP1 KECCAK256 PUSH1 0xA ADD SLOAD DUP6 SWAP1 PUSH2 0x100 SWAP1 DIV PUSH1 0x1 PUSH1 0x1 PUSH1 0xA0 SHL SUB AND CALLER EQ PUSH2 0x6C9 JUMPI PUSH1 0x40 MLOAD PUSH3 0x461BCD PUSH1 0xE5 SHL DUP2 MSTORE PUSH1 0x20 PUSH1 0x4 DUP3 ADD MSTORE PUSH1 0x29 PUSH1 0x24 DUP3 ADD MSTORE PUSH32 0x4D757368436861696E3A2063616C6C657220646F6573206E6F74206F776E2074 PUSH1 0x44 DUP3 ADD MSTORE PUSH9 0xD0D2E640C4C2E8C6D PUSH1 0xBB SHL PUSH1 0x64 DUP3 ADD MSTORE PUSH1 0x84 ADD PUSH2 0x57E JUMP JUMPDEST PUSH1 0x2 DUP1 CALLER PUSH0 SWAP1 DUP2 MSTORE PUSH1 0x6 PUSH1 0x20 MSTORE PUSH1 0x40 SWAP1 KECCAK256 PUSH1 0x2 ADD SLOAD PUSH1 0xFF AND PUSH1 0x5 DUP2 GT ISZERO PUSH2 0x6F2 JUMPI PUSH2 0x6F2 PUSH2 0x487A JUMP JUMPDEST EQ PUSH2 0x70F JUMPI PUSH1 0x40 MLOAD PUSH3 0x461BCD PUSH1 0xE5 SHL DUP2 MSTORE PUSH1 0x4 ADD PUSH2 0x57E SWAP1 PUSH2 0x52AE JUMP JUMPDEST CALLER PUSH0 SWAP1 DUP2 MSTORE PUSH1 0x6 PUSH1 0x20 DUP2 SWAP1 MSTORE PUSH1 0x40 SWAP1 SWAP2 KECCAK256 ADD SLOAD PUSH1 0xFF AND PUSH2 0x741 JUMPI PUSH1 0x40 MLOAD PUSH3 0x461BCD PUSH1 0xE5 SHL DUP2 MSTORE PUSH1 0x4 ADD PUSH2 0x57E SWAP1 PUSH2 0x52F7 JUMP JUMPDEST PUSH0 DUP8 DUP2 MSTORE PUSH1 0x7 PUSH1 0x20 MSTORE PUSH1 0x40 DUP2 KECCAK256 PUSH1 0xA ADD SLOAD PUSH1 0xFF AND PUSH1 0x3 DUP2 GT ISZERO PUSH2 0x766 JUMPI PUSH2 0x766 PUSH2 0x487A JUMP JUMPDEST EQ PUSH2 0x7C9 JUMPI PUSH1 0x40 MLOAD PUSH3 0x461BCD PUSH1 0xE5 SHL DUP2 MSTORE PUSH1 0x20 PUSH1 0x4 DUP3 ADD MSTORE PUSH1 0x2D PUSH1 0x24 DUP3 ADD MSTORE PUSH32 0x4D757368436861696E3A206261746368206D75737420626520696E2052656769 PUSH1 0x44 DUP3 ADD MSTORE PUSH13 0x73746572656420737461747573 PUSH1 0x98 SHL PUSH1 0x64 DUP3 ADD MSTORE PUSH1 0x84 ADD PUSH2 0x57E JUMP JUMPDEST PUSH1 0x3 PUSH1 0x1 PUSH1 0x1 PUSH1 0xA0 SHL SUB DUP8 AND PUSH0 SWAP1 DUP2 MSTORE PUSH1 0x6 PUSH1 0x20 MSTORE PUSH1 0x40 SWAP1 KECCAK256 PUSH1 0x2 ADD SLOAD PUSH1 0xFF AND PUSH1 0x5 DUP2 GT ISZERO PUSH2 0x7FA JUMPI PUSH2 0x7FA PUSH2 0x487A JUMP JUMPDEST EQ PUSH2 0x864 JUMPI PUSH1 0x40 MLOAD PUSH3 0x461BCD PUSH1 0xE5 SHL DUP2 MSTORE PUSH1 0x20 PUSH1 0x4 DUP3 ADD MSTORE PUSH1 0x34 PUSH1 0x24 DUP3 ADD MSTORE PUSH32 0x4D757368436861696E3A207461726765742061646472657373206973206E6F74 PUSH1 0x44 DUP3 ADD MSTORE PUSH20 0x1030903932B3B4B9BA32B932B2102A3930B232B9 PUSH1 0x61 SHL PUSH1 0x64 DUP3 ADD MSTORE PUSH1 0x84 ADD PUSH2 0x57E JUMP JUMPDEST PUSH1 0x1 PUSH1 0x1 PUSH1 0xA0 SHL SUB DUP7 AND PUSH0 SWAP1 DUP2 MSTORE PUSH1 0x6 PUSH1 0x20 DUP2 SWAP1 MSTORE PUSH1 0x40 SWAP1 SWAP2 KECCAK256 ADD SLOAD PUSH1 0xFF AND PUSH2 0x8DD JUMPI PUSH1 0x40 MLOAD PUSH3 0x461BCD PUSH1 0xE5 SHL DUP2 MSTORE PUSH1 0x20 PUSH1 0x4 DUP3 ADD MSTORE PUSH1 0x25 PUSH1 0x24 DUP3 ADD MSTORE PUSH32 0x4D757368436861696E3A20747261646572206163636F756E7420697320696E61 PUSH1 0x44 DUP3 ADD MSTORE PUSH5 0x6374697665 PUSH1 0xD8 SHL PUSH1 0x64 DUP3 ADD MSTORE PUSH1 0x84 ADD PUSH2 0x57E JUMP JUMPDEST PUSH1 0x2 DUP1 SLOAD SWAP1 PUSH0 PUSH2 0x8EC DUP4 PUSH2 0x5355 JUMP JUMPDEST SWAP2 SWAP1 POP SSTORE POP PUSH0 PUSH1 0x7 PUSH0 DUP10 DUP2 MSTORE PUSH1 0x20 ADD SWAP1 DUP2 MSTORE PUSH1 0x20 ADD PUSH0 KECCAK256 PUSH1 0x3 ADD SLOAD SWAP1 POP PUSH1 0x40 MLOAD DUP1 PUSH2 0x100 ADD PUSH1 0x40 MSTORE DUP1 PUSH1 0x2 SLOAD DUP2 MSTORE PUSH1 0x20 ADD DUP10 DUP2 MSTORE PUSH1 0x20 ADD CALLER PUSH1 0x1 PUSH1 0x1 PUSH1 0xA0 SHL SUB AND DUP2 MSTORE PUSH1 0x20 ADD DUP9 PUSH1 0x1 PUSH1 0x1 PUSH1 0xA0 SHL SUB AND DUP2 MSTORE PUSH1 0x20 ADD DUP8 DUP2 MSTORE PUSH1 0x20 ADD DUP3 DUP2 MSTORE PUSH1 0x20 ADD TIMESTAMP DUP2 MSTORE PUSH1 0x20 ADD DUP7 DUP2 MSTORE POP PUSH1 0x8 PUSH0 PUSH1 0x2 SLOAD DUP2 MSTORE PUSH1 0x20 ADD SWAP1 DUP2 MSTORE PUSH1 0x20 ADD PUSH0 KECCAK256 PUSH0 DUP3 ADD MLOAD DUP2 PUSH0 ADD SSTORE PUSH1 0x20 DUP3 ADD MLOAD DUP2 PUSH1 0x1 ADD SSTORE PUSH1 0x40 DUP3 ADD MLOAD DUP2 PUSH1 0x2 ADD PUSH0 PUSH2 0x100 EXP DUP2 SLOAD DUP2 PUSH1 0x1 PUSH1 0x1 PUSH1 0xA0 SHL SUB MUL NOT AND SWAP1 DUP4 PUSH1 0x1 PUSH1 0x1 PUSH1 0xA0 SHL SUB AND MUL OR SWAP1 SSTORE POP PUSH1 0x60 DUP3 ADD MLOAD DUP2 PUSH1 0x3 ADD PUSH0 PUSH2 0x100 EXP DUP2 SLOAD DUP2 PUSH1 0x1 PUSH1 0x1 PUSH1 0xA0 SHL SUB MUL NOT AND SWAP1 DUP4 PUSH1 0x1 PUSH1 0x1 PUSH1 0xA0 SHL SUB AND MUL OR SWAP1 SSTORE POP PUSH1 0x80 DUP3 ADD MLOAD DUP2 PUSH1 0x4 ADD SSTORE PUSH1 0xA0 DUP3 ADD MLOAD DUP2 PUSH1 0x5 ADD SSTORE PUSH1 0xC0 DUP3 ADD MLOAD DUP2 PUSH1 0x6 ADD SSTORE PUSH1 0xE0 DUP3 ADD MLOAD DUP2 PUSH1 0x7 ADD SWAP1 DUP2 PUSH2 0xA07 SWAP2 SWAP1 PUSH2 0x53F6 JUMP JUMPDEST POP POP PUSH1 0x2 SLOAD PUSH0 DUP11 DUP2 MSTORE PUSH1 0xD PUSH1 0x20 SWAP1 DUP2 MSTORE PUSH1 0x40 DUP1 DUP4 KECCAK256 SWAP4 SWAP1 SWAP4 SSTORE PUSH1 0x7 SWAP1 MSTORE SWAP1 DUP2 KECCAK256 PUSH1 0xA ADD DUP1 SLOAD PUSH1 0x1 PUSH1 0x1 PUSH1 0xA8 SHL SUB NOT AND PUSH1 0xFF NOT PUSH2 0x100 PUSH1 0x1 PUSH1 0x1 PUSH1 0xA0 SHL SUB DUP14 AND MUL AND OR PUSH1 0x1 OR SWAP1 SSTORE SWAP1 POP PUSH2 0xA59 CALLER PUSH2 0x3B7D JUMP JUMPDEST PUSH2 0xA62 DUP10 PUSH2 0x3B7D JUMP JUMPDEST PUSH2 0xA6B DUP10 PUSH2 0x3F3D JUMP JUMPDEST PUSH2 0xA74 DUP6 PUSH2 0x3F3D JUMP JUMPDEST DUP10 PUSH1 0x40 MLOAD PUSH1 0x20 ADD PUSH2 0xA89 SWAP6 SWAP5 SWAP4 SWAP3 SWAP2 SWAP1 PUSH2 0x54CB JUMP JUMPDEST PUSH1 0x40 MLOAD PUSH1 0x20 DUP2 DUP4 SUB SUB DUP2 MSTORE SWAP1 PUSH1 0x40 MSTORE SWAP1 POP PUSH2 0xAF2 DUP10 PUSH1 0x40 MLOAD DUP1 PUSH1 0x40 ADD PUSH1 0x40 MSTORE DUP1 PUSH1 0x15 DUP2 MSTORE PUSH1 0x20 ADD PUSH21 0x13D5D3915494D2125417D514905394D19154949151 PUSH1 0x5A SHL DUP2 MSTORE POP CALLER PUSH1 0x40 MLOAD DUP1 PUSH1 0x40 ADD PUSH1 0x40 MSTORE DUP1 PUSH1 0x6 DUP2 MSTORE PUSH1 0x20 ADD PUSH6 0x2330B936B2B9 PUSH1 0xD1 SHL DUP2 MSTORE POP DUP6 PUSH2 0x4044 JUMP JUMPDEST PUSH1 0x40 DUP1 MLOAD DUP9 DUP2 MSTORE PUSH1 0x20 DUP2 ADD DUP5 SWAP1 MSTORE TIMESTAMP DUP2 DUP4 ADD MSTORE SWAP1 MLOAD PUSH1 0x1 PUSH1 0x1 PUSH1 0xA0 SHL SUB DUP11 AND SWAP2 CALLER SWAP2 DUP13 SWAP2 PUSH32 0x2DC2CEC4355139880F562307BC6DD90B4A8003E590F94529C6270DCED6F5E821 SWAP2 SWAP1 DUP2 SWAP1 SUB PUSH1 0x60 ADD SWAP1 LOG4 POP POP POP POP POP POP POP POP POP JUMP JUMPDEST PUSH1 0x6 PUSH1 0x20 MSTORE PUSH0 SWAP1 DUP2 MSTORE PUSH1 0x40 SWAP1 KECCAK256 DUP1 SLOAD PUSH1 0x1 DUP3 ADD DUP1 SLOAD PUSH1 0x1 PUSH1 0x1 PUSH1 0xA0 SHL SUB SWAP1 SWAP3 AND SWAP3 SWAP2 PUSH2 0xB77 SWAP1 PUSH2 0x536D JUMP JUMPDEST DUP1 PUSH1 0x1F ADD PUSH1 0x20 DUP1 SWAP2 DIV MUL PUSH1 0x20 ADD PUSH1 0x40 MLOAD SWAP1 DUP2 ADD PUSH1 0x40 MSTORE DUP1 SWAP3 SWAP2 SWAP1 DUP2 DUP2 MSTORE PUSH1 0x20 ADD DUP3 DUP1 SLOAD PUSH2 0xBA3 SWAP1 PUSH2 0x536D JUMP JUMPDEST DUP1 ISZERO PUSH2 0xBEE JUMPI DUP1 PUSH1 0x1F LT PUSH2 0xBC5 JUMPI PUSH2 0x100 DUP1 DUP4 SLOAD DIV MUL DUP4 MSTORE SWAP2 PUSH1 0x20 ADD SWAP2 PUSH2 0xBEE JUMP JUMPDEST DUP3 ADD SWAP2 SWAP1 PUSH0 MSTORE PUSH1 0x20 PUSH0 KECCAK256 SWAP1 JUMPDEST DUP2 SLOAD DUP2 MSTORE SWAP1 PUSH1 0x1 ADD SWAP1 PUSH1 0x20 ADD DUP1 DUP4 GT PUSH2 0xBD1 JUMPI DUP3 SWAP1 SUB PUSH1 0x1F AND DUP3 ADD SWAP2 JUMPDEST POP POP POP PUSH1 0x2 DUP5 ADD SLOAD PUSH1 0x3 DUP6 ADD DUP1 SLOAD SWAP5 SWAP6 PUSH1 0xFF SWAP1 SWAP3 AND SWAP5 SWAP2 SWAP4 POP SWAP2 POP PUSH2 0xC12 SWAP1 PUSH2 0x536D JUMP JUMPDEST DUP1 PUSH1 0x1F ADD PUSH1 0x20 DUP1 SWAP2 DIV MUL PUSH1 0x20 ADD PUSH1 0x40 MLOAD SWAP1 DUP2 ADD PUSH1 0x40 MSTORE DUP1 SWAP3 SWAP2 SWAP1 DUP2 DUP2 MSTORE PUSH1 0x20 ADD DUP3 DUP1 SLOAD PUSH2 0xC3E SWAP1 PUSH2 0x536D JUMP JUMPDEST DUP1 ISZERO PUSH2 0xC89 JUMPI DUP1 PUSH1 0x1F LT PUSH2 0xC60 JUMPI PUSH2 0x100 DUP1 DUP4 SLOAD DIV MUL DUP4 MSTORE SWAP2 PUSH1 0x20 ADD SWAP2 PUSH2 0xC89 JUMP JUMPDEST DUP3 ADD SWAP2 SWAP1 PUSH0 MSTORE PUSH1 0x20 PUSH0 KECCAK256 SWAP1 JUMPDEST DUP2 SLOAD DUP2 MSTORE SWAP1 PUSH1 0x1 ADD SWAP1 PUSH1 0x20 ADD DUP1 DUP4 GT PUSH2 0xC6C JUMPI DUP3 SWAP1 SUB PUSH1 0x1F AND DUP3 ADD SWAP2 JUMPDEST POP POP POP POP POP SWAP1 DUP1 PUSH1 0x4 ADD DUP1 SLOAD PUSH2 0xC9E SWAP1 PUSH2 0x536D JUMP JUMPDEST DUP1 PUSH1 0x1F ADD PUSH1 0x20 DUP1 SWAP2 DIV MUL PUSH1 0x20 ADD PUSH1 0x40 MLOAD SWAP1 DUP2 ADD PUSH1 0x40 MSTORE DUP1 SWAP3 SWAP2 SWAP1 DUP2 DUP2 MSTORE PUSH1 0x20 ADD DUP3 DUP1 SLOAD PUSH2 0xCCA SWAP1 PUSH2 0x536D JUMP JUMPDEST DUP1 ISZERO PUSH2 0xD15 JUMPI DUP1 PUSH1 0x1F LT PUSH2 0xCEC JUMPI PUSH2 0x100 DUP1 DUP4 SLOAD DIV MUL DUP4 MSTORE SWAP2 PUSH1 0x20 ADD SWAP2 PUSH2 0xD15 JUMP JUMPDEST DUP3 ADD SWAP2 SWAP1 PUSH0 MSTORE PUSH1 0x20 PUSH0 KECCAK256 SWAP1 JUMPDEST DUP2 SLOAD DUP2 MSTORE SWAP1 PUSH1 0x1 ADD SWAP1 PUSH1 0x20 ADD DUP1 DUP4 GT PUSH2 0xCF8 JUMPI DUP3 SWAP1 SUB PUSH1 0x1F AND DUP3 ADD SWAP2 JUMPDEST POP POP POP POP POP SWAP1 DUP1 PUSH1 0x5 ADD DUP1 SLOAD PUSH2 0xD2A SWAP1 PUSH2 0x536D JUMP JUMPDEST DUP1 PUSH1 0x1F ADD PUSH1 0x20 DUP1 SWAP2 DIV MUL PUSH1 0x20 ADD PUSH1 0x40 MLOAD SWAP1 DUP2 ADD PUSH1 0x40 MSTORE DUP1 SWAP3 SWAP2 SWAP1 DUP2 DUP2 MSTORE PUSH1 0x20 ADD DUP3 DUP1 SLOAD PUSH2 0xD56 SWAP1 PUSH2 0x536D JUMP JUMPDEST DUP1 ISZERO PUSH2 0xDA1 JUMPI DUP1 PUSH1 0x1F LT PUSH2 0xD78 JUMPI PUSH2 0x100 DUP1 DUP4 SLOAD DIV MUL DUP4 MSTORE SWAP2 PUSH1 0x20 ADD SWAP2 PUSH2 0xDA1 JUMP JUMPDEST DUP3 ADD SWAP2 SWAP1 PUSH0 MSTORE PUSH1 0x20 PUSH0 KECCAK256 SWAP1 JUMPDEST DUP2 SLOAD DUP2 MSTORE SWAP1 PUSH1 0x1 ADD SWAP1 PUSH1 0x20 ADD DUP1 DUP4 GT PUSH2 0xD84 JUMPI DUP3 SWAP1 SUB PUSH1 0x1F AND DUP3 ADD SWAP2 JUMPDEST POP POP POP POP PUSH1 0x6 DUP4 ADD SLOAD PUSH1 0x7 SWAP1 SWAP4 ADD SLOAD SWAP2 SWAP3 PUSH1 0xFF AND SWAP2 SWAP1 POP DUP9 JUMP JUMPDEST PUSH1 0x10 DUP2 DUP2 SLOAD DUP2 LT PUSH2 0xDCA JUMPI PUSH0 DUP1 REVERT JUMPDEST PUSH0 SWAP2 DUP3 MSTORE PUSH1 0x20 SWAP1 SWAP2 KECCAK256 ADD SLOAD SWAP1 POP DUP2 JUMP JUMPDEST PUSH1 0x9 PUSH1 0x20 MSTORE PUSH0 SWAP1 DUP2 MSTORE PUSH1 0x40 SWAP1 KECCAK256 DUP1 SLOAD PUSH1 0x1 DUP3 ADD SLOAD PUSH1 0x2 DUP4 ADD SLOAD PUSH1 0x3 DUP5 ADD DUP1 SLOAD SWAP4 SWAP5 SWAP3 SWAP4 PUSH1 0x1 PUSH1 0x1 PUSH1 0xA0 SHL SUB SWAP1 SWAP3 AND SWAP3 SWAP2 PUSH2 0xE13 SWAP1 PUSH2 0x536D JUMP JUMPDEST DUP1 PUSH1 0x1F ADD PUSH1 0x20 DUP1 SWAP2 DIV MUL PUSH1 0x20 ADD PUSH1 0x40 MLOAD SWAP1 DUP2 ADD PUSH1 0x40 MSTORE DUP1 SWAP3 SWAP2 SWAP1 DUP2 DUP2 MSTORE PUSH1 0x20 ADD DUP3 DUP1 SLOAD PUSH2 0xE3F SWAP1 PUSH2 0x536D JUMP JUMPDEST DUP1 ISZERO PUSH2 0xE8A JUMPI DUP1 PUSH1 0x1F LT PUSH2 0xE61 JUMPI PUSH2 0x100 DUP1 DUP4 SLOAD DIV MUL DUP4 MSTORE SWAP2 PUSH1 0x20 ADD SWAP2 PUSH2 0xE8A JUMP JUMPDEST DUP3 ADD SWAP2 SWAP1 PUSH0 MSTORE PUSH1 0x20 PUSH0 KECCAK256 SWAP1 JUMPDEST DUP2 SLOAD DUP2 MSTORE SWAP1 PUSH1 0x1 ADD SWAP1 PUSH1 0x20 ADD DUP1 DUP4 GT PUSH2 0xE6D JUMPI DUP3 SWAP1 SUB PUSH1 0x1F AND DUP3 ADD SWAP2 JUMPDEST POP POP POP POP POP SWAP1 DUP1 PUSH1 0x4 ADD DUP1 SLOAD PUSH2 0xE9F SWAP1 PUSH2 0x536D JUMP JUMPDEST DUP1 PUSH1 0x1F ADD PUSH1 0x20 DUP1 SWAP2 DIV MUL PUSH1 0x20 ADD PUSH1 0x40 MLOAD SWAP1 DUP2 ADD PUSH1 0x40 MSTORE DUP1 SWAP3 SWAP2 SWAP1 DUP2 DUP2 MSTORE PUSH1 0x20 ADD DUP3 DUP1 SLOAD PUSH2 0xECB SWAP1 PUSH2 0x536D JUMP JUMPDEST DUP1 ISZERO PUSH2 0xF16 JUMPI DUP1 PUSH1 0x1F LT PUSH2 0xEED JUMPI PUSH2 0x100 DUP1 DUP4 SLOAD DIV MUL DUP4 MSTORE SWAP2 PUSH1 0x20 ADD SWAP2 PUSH2 0xF16 JUMP JUMPDEST DUP3 ADD SWAP2 SWAP1 PUSH0 MSTORE PUSH1 0x20 PUSH0 KECCAK256 SWAP1 JUMPDEST DUP2 SLOAD DUP2 MSTORE SWAP1 PUSH1 0x1 ADD SWAP1 PUSH1 0x20 ADD DUP1 DUP4 GT PUSH2 0xEF9 JUMPI DUP3 SWAP1 SUB PUSH1 0x1F AND DUP3 ADD SWAP2 JUMPDEST POP POP POP POP POP SWAP1 DUP1 PUSH1 0x5 ADD DUP1 SLOAD PUSH2 0xF2B SWAP1 PUSH2 0x536D JUMP JUMPDEST DUP1 PUSH1 0x1F ADD PUSH1 0x20 DUP1 SWAP2 DIV MUL PUSH1 0x20 ADD PUSH1 0x40 MLOAD SWAP1 DUP2 ADD PUSH1 0x40 MSTORE DUP1 SWAP3 SWAP2 SWAP1 DUP2 DUP2 MSTORE PUSH1 0x20 ADD DUP3 DUP1 SLOAD PUSH2 0xF57 SWAP1 PUSH2 0x536D JUMP JUMPDEST DUP1 ISZERO PUSH2 0xFA2 JUMPI DUP1 PUSH1 0x1F LT PUSH2 0xF79 JUMPI PUSH2 0x100 DUP1 DUP4 SLOAD DIV MUL DUP4 MSTORE SWAP2 PUSH1 0x20 ADD SWAP2 PUSH2 0xFA2 JUMP JUMPDEST DUP3 ADD SWAP2 SWAP1 PUSH0 MSTORE PUSH1 0x20 PUSH0 KECCAK256 SWAP1 JUMPDEST DUP2 SLOAD DUP2 MSTORE SWAP1 PUSH1 0x1 ADD SWAP1 PUSH1 0x20 ADD DUP1 DUP4 GT PUSH2 0xF85 JUMPI DUP3 SWAP1 SUB PUSH1 0x1F AND DUP3 ADD SWAP2 JUMPDEST POP POP POP POP POP SWAP1 DUP1 PUSH1 0x6 ADD SLOAD SWAP1 DUP1 PUSH1 0x7 ADD SLOAD SWAP1 DUP1 PUSH1 0x8 ADD DUP1 SLOAD PUSH2 0xFC3 SWAP1 PUSH2 0x536D JUMP JUMPDEST DUP1 PUSH1 0x1F ADD PUSH1 0x20 DUP1 SWAP2 DIV MUL PUSH1 0x20 ADD PUSH1 0x40 MLOAD SWAP1 DUP2 ADD PUSH1 0x40 MSTORE DUP1 SWAP3 SWAP2 SWAP1 DUP2 DUP2 MSTORE PUSH1 0x20 ADD DUP3 DUP1 SLOAD PUSH2 0xFEF SWAP1 PUSH2 0x536D JUMP JUMPDEST DUP1 ISZERO PUSH2 0x103A JUMPI DUP1 PUSH1 0x1F LT PUSH2 0x1011 JUMPI PUSH2 0x100 DUP1 DUP4 SLOAD DIV MUL DUP4 MSTORE SWAP2 PUSH1 0x20 ADD SWAP2 PUSH2 0x103A JUMP JUMPDEST DUP3 ADD SWAP2 SWAP1 PUSH0 MSTORE PUSH1 0x20 PUSH0 KECCAK256 SWAP1 JUMPDEST DUP2 SLOAD DUP2 MSTORE SWAP1 PUSH1 0x1 ADD SWAP1 PUSH1 0x20 ADD DUP1 DUP4 GT PUSH2 0x101D JUMPI DUP3 SWAP1 SUB PUSH1 0x1F AND DUP3 ADD SWAP2 JUMPDEST POP POP POP POP PUSH1 0x9 DUP4 ADD SLOAD PUSH1 0xA SWAP1 SWAP4 ADD SLOAD SWAP2 SWAP3 PUSH1 0xFF AND SWAP2 SWAP1 POP DUP12 JUMP JUMPDEST PUSH1 0x60 DUP2 PUSH0 DUP2 GT DUP1 ISZERO PUSH2 0x1068 JUMPI POP PUSH1 0x1 SLOAD DUP2 GT ISZERO JUMPDEST PUSH2 0x1084 JUMPI PUSH1 0x40 MLOAD PUSH3 0x461BCD PUSH1 0xE5 SHL DUP2 MSTORE PUSH1 0x4 ADD PUSH2 0x57E SWAP1 PUSH2 0x5277 JUMP JUMPDEST PUSH0 DUP4 DUP2 MSTORE PUSH1 0x7 PUSH1 0x20 MSTORE PUSH1 0x40 SWAP1 KECCAK256 PUSH1 0xA ADD SLOAD PUSH2 0x10A1 SWAP1 PUSH1 0xFF AND PUSH2 0x4194 JUMP JUMPDEST SWAP2 POP JUMPDEST POP SWAP2 SWAP1 POP JUMP JUMPDEST PUSH0 SLOAD PUSH1 0x1 PUSH1 0x1 PUSH1 0xA0 SHL SUB AND CALLER EQ PUSH2 0x10D3 JUMPI PUSH1 0x40 MLOAD PUSH3 0x461BCD PUSH1 0xE5 SHL DUP2 MSTORE PUSH1 0x4 ADD PUSH2 0x57E SWAP1 PUSH2 0x5235 JUMP JUMPDEST PUSH1 0x1 PUSH1 0x1 PUSH1 0xA0 SHL SUB DUP7 AND PUSH2 0x1133 JUMPI PUSH1 0x40 MLOAD PUSH3 0x461BCD PUSH1 0xE5 SHL DUP2 MSTORE PUSH1 0x20 PUSH1 0x4 DUP3 ADD MSTORE PUSH1 0x21 PUSH1 0x24 DUP3 ADD MSTORE PUSH32 0x4D757368436861696E3A20696E76616C69642077616C6C657420616464726573 PUSH1 0x44 DUP3 ADD MSTORE PUSH1 0x73 PUSH1 0xF8 SHL PUSH1 0x64 DUP3 ADD MSTORE PUSH1 0x84 ADD PUSH2 0x57E JUMP JUMPDEST PUSH1 0x2 DUP5 PUSH1 0xFF AND LT ISZERO DUP1 ISZERO PUSH2 0x114B JUMPI POP PUSH1 0x5 DUP5 PUSH1 0xFF AND GT ISZERO JUMPDEST PUSH2 0x1197 JUMPI PUSH1 0x40 MLOAD PUSH3 0x461BCD PUSH1 0xE5 SHL DUP2 MSTORE PUSH1 0x20 PUSH1 0x4 DUP3 ADD MSTORE PUSH1 0x1B PUSH1 0x24 DUP3 ADD MSTORE PUSH32 0x4D757368436861696E3A20726F6C65206D75737420626520322D350000000000 PUSH1 0x44 DUP3 ADD MSTORE PUSH1 0x64 ADD PUSH2 0x57E JUMP JUMPDEST PUSH1 0x1 PUSH1 0x1 PUSH1 0xA0 SHL SUB DUP7 AND PUSH0 SWAP1 DUP2 MSTORE PUSH1 0x6 PUSH1 0x20 DUP2 SWAP1 MSTORE PUSH1 0x40 SWAP1 SWAP2 KECCAK256 ADD SLOAD PUSH1 0xFF AND ISZERO PUSH2 0x1215 JUMPI PUSH1 0x40 MLOAD PUSH3 0x461BCD PUSH1 0xE5 SHL DUP2 MSTORE PUSH1 0x20 PUSH1 0x4 DUP3 ADD MSTORE PUSH1 0x29 PUSH1 0x24 DUP3 ADD MSTORE PUSH32 0x4D757368436861696E3A207061727469636970616E7420616C72656164792072 PUSH1 0x44 DUP3 ADD MSTORE PUSH9 0x1959DA5CDD195C9959 PUSH1 0xBA SHL PUSH1 0x64 DUP3 ADD MSTORE PUSH1 0x84 ADD PUSH2 0x57E JUMP JUMPDEST PUSH1 0x40 MLOAD DUP1 PUSH2 0x100 ADD PUSH1 0x40 MSTORE DUP1 DUP8 PUSH1 0x1 PUSH1 0x1 PUSH1 0xA0 SHL SUB AND DUP2 MSTORE PUSH1 0x20 ADD DUP7 DUP2 MSTORE PUSH1 0x20 ADD DUP6 PUSH1 0xFF AND PUSH1 0x5 DUP2 GT ISZERO PUSH2 0x124B JUMPI PUSH2 0x124B PUSH2 0x487A JUMP JUMPDEST PUSH1 0x5 DUP2 GT ISZERO PUSH2 0x125C JUMPI PUSH2 0x125C PUSH2 0x487A JUMP JUMPDEST DUP2 MSTORE PUSH1 0x20 DUP1 DUP3 ADD DUP7 SWAP1 MSTORE PUSH1 0x40 DUP1 DUP4 ADD DUP7 SWAP1 MSTORE PUSH1 0x60 DUP4 ADD DUP6 SWAP1 MSTORE PUSH1 0x1 PUSH1 0x80 DUP5 ADD DUP2 SWAP1 MSTORE TIMESTAMP PUSH1 0xA0 SWAP1 SWAP5 ADD SWAP4 SWAP1 SWAP4 MSTORE PUSH1 0x1 PUSH1 0x1 PUSH1 0xA0 SHL SUB DUP11 DUP2 AND PUSH0 SWAP1 DUP2 MSTORE PUSH1 0x6 DUP5 MSTORE SWAP2 SWAP1 SWAP2 KECCAK256 DUP5 MLOAD DUP2 SLOAD PUSH1 0x1 PUSH1 0x1 PUSH1 0xA0 SHL SUB NOT AND SWAP3 AND SWAP2 SWAP1 SWAP2 OR DUP2 SSTORE SWAP1 DUP4 ADD MLOAD SWAP1 SWAP2 DUP3 ADD SWAP1 PUSH2 0x12C8 SWAP1 DUP3 PUSH2 0x53F6 JUMP JUMPDEST POP PUSH1 0x40 DUP3 ADD MLOAD PUSH1 0x2 DUP3 ADD DUP1 SLOAD PUSH1 0xFF NOT AND PUSH1 0x1 DUP4 PUSH1 0x5 DUP2 GT ISZERO PUSH2 0x12EC JUMPI PUSH2 0x12EC PUSH2 0x487A JUMP JUMPDEST MUL OR SWAP1 SSTORE POP PUSH1 0x60 DUP3 ADD MLOAD PUSH1 0x3 DUP3 ADD SWAP1 PUSH2 0x1305 SWAP1 DUP3 PUSH2 0x53F6 JUMP JUMPDEST POP PUSH1 0x80 DUP3 ADD MLOAD PUSH1 0x4 DUP3 ADD SWAP1 PUSH2 0x131A SWAP1 DUP3 PUSH2 0x53F6 JUMP JUMPDEST POP PUSH1 0xA0 DUP3 ADD MLOAD PUSH1 0x5 DUP3 ADD SWAP1 PUSH2 0x132F SWAP1 DUP3 PUSH2 0x53F6 JUMP JUMPDEST POP PUSH1 0xC0 DUP3 ADD MLOAD PUSH1 0x6 DUP3 ADD DUP1 SLOAD PUSH1 0xFF NOT AND SWAP2 ISZERO ISZERO SWAP2 SWAP1 SWAP2 OR SWAP1 SSTORE PUSH1 0xE0 SWAP1 SWAP2 ADD MLOAD PUSH1 0x7 SWAP1 SWAP2 ADD SSTORE PUSH1 0x1 PUSH1 0x1 PUSH1 0xA0 SHL SUB DUP7 AND PUSH32 0x5BD06948838B1107EA3CF2C487E1B707CFAB3A3024F2D5FA6EE4D85BD2484294 DUP7 PUSH1 0xFF DUP8 AND PUSH1 0x5 DUP2 GT ISZERO PUSH2 0x1395 JUMPI PUSH2 0x1395 PUSH2 0x487A JUMP JUMPDEST TIMESTAMP PUSH1 0x40 MLOAD PUSH2 0x13A5 SWAP4 SWAP3 SWAP2 SWAP1 PUSH2 0x5575 JUMP JUMPDEST PUSH1 0x40 MLOAD DUP1 SWAP2 SUB SWAP1 LOG2 POP POP POP POP POP POP JUMP JUMPDEST PUSH1 0x60 DUP1 PUSH0 PUSH1 0x60 DUP1 PUSH1 0x60 PUSH0 PUSH0 PUSH0 PUSH0 DUP11 PUSH0 DUP2 GT DUP1 ISZERO PUSH2 0x13D4 JUMPI POP PUSH1 0x1 SLOAD DUP2 GT ISZERO JUMPDEST PUSH2 0x13F0 JUMPI PUSH1 0x40 MLOAD PUSH3 0x461BCD PUSH1 0xE5 SHL DUP2 MSTORE PUSH1 0x4 ADD PUSH2 0x57E SWAP1 PUSH2 0x5277 JUMP JUMPDEST PUSH0 DUP13 DUP2 MSTORE PUSH1 0x7 PUSH1 0x20 MSTORE PUSH1 0x40 SWAP1 KECCAK256 PUSH1 0x2 DUP2 ADD SLOAD PUSH1 0x1 DUP3 ADD SWAP1 PUSH2 0x1413 SWAP1 PUSH1 0xFF AND PUSH2 0x4286 JUMP JUMPDEST DUP3 PUSH1 0x3 ADD SLOAD DUP4 PUSH1 0x6 ADD DUP5 PUSH1 0x7 ADD DUP6 PUSH1 0x8 ADD PUSH1 0x40 MLOAD PUSH1 0x20 ADD PUSH2 0x1435 SWAP3 SWAP2 SWAP1 PUSH2 0x5612 JUMP JUMPDEST PUSH1 0x40 DUP1 MLOAD PUSH1 0x1F NOT DUP2 DUP5 SUB ADD DUP2 MSTORE SWAP2 SWAP1 MSTORE PUSH1 0xA DUP7 ADD SLOAD PUSH2 0x1456 SWAP1 PUSH1 0xFF AND PUSH2 0x4194 JUMP JUMPDEST PUSH1 0x5 DUP8 ADD SLOAD PUSH1 0xA DUP9 ADD SLOAD PUSH1 0x4 DUP10 ADD SLOAD PUSH1 0xB DUP11 ADD SLOAD DUP10 SLOAD PUSH1 0x1 PUSH1 0x1 PUSH1 0xA0 SHL SUB SWAP5 DUP6 AND SWAP5 PUSH2 0x100 SWAP1 SWAP5 DIV SWAP1 SWAP4 AND SWAP3 DUP11 SWAP1 PUSH2 0x148D SWAP1 PUSH2 0x536D JUMP JUMPDEST DUP1 PUSH1 0x1F ADD PUSH1 0x20 DUP1 SWAP2 DIV MUL PUSH1 0x20 ADD PUSH1 0x40 MLOAD SWAP1 DUP2 ADD PUSH1 0x40 MSTORE DUP1 SWAP3 SWAP2 SWAP1 DUP2 DUP2 MSTORE PUSH1 0x20 ADD DUP3 DUP1 SLOAD PUSH2 0x14B9 SWAP1 PUSH2 0x536D JUMP JUMPDEST DUP1 ISZERO PUSH2 0x1504 JUMPI DUP1 PUSH1 0x1F LT PUSH2 0x14DB JUMPI PUSH2 0x100 DUP1 DUP4 SLOAD DIV MUL DUP4 MSTORE SWAP2 PUSH1 0x20 ADD SWAP2 PUSH2 0x1504 JUMP JUMPDEST DUP3 ADD SWAP2 SWAP1 PUSH0 MSTORE PUSH1 0x20 PUSH0 KECCAK256 SWAP1 JUMPDEST DUP2 SLOAD DUP2 MSTORE SWAP1 PUSH1 0x1 ADD SWAP1 PUSH1 0x20 ADD DUP1 DUP4 GT PUSH2 0x14E7 JUMPI DUP3 SWAP1 SUB PUSH1 0x1F AND DUP3 ADD SWAP2 JUMPDEST POP POP POP POP POP SWAP10 POP DUP7 DUP1 SLOAD PUSH2 0x1517 SWAP1 PUSH2 0x536D JUMP JUMPDEST DUP1 PUSH1 0x1F ADD PUSH1 0x20 DUP1 SWAP2 DIV MUL PUSH1 0x20 ADD PUSH1 0x40 MLOAD SWAP1 DUP2 ADD PUSH1 0x40 MSTORE DUP1 SWAP3 SWAP2 SWAP1 DUP2 DUP2 MSTORE PUSH1 0x20 ADD DUP3 DUP1 SLOAD PUSH2 0x1543 SWAP1 PUSH2 0x536D JUMP JUMPDEST DUP1 ISZERO PUSH2 0x158E JUMPI DUP1 PUSH1 0x1F LT PUSH2 0x1565 JUMPI PUSH2 0x100 DUP1 DUP4 SLOAD DIV MUL DUP4 MSTORE SWAP2 PUSH1 0x20 ADD SWAP2 PUSH2 0x158E JUMP JUMPDEST DUP3 ADD SWAP2 SWAP1 PUSH0 MSTORE PUSH1 0x20 PUSH0 KECCAK256 SWAP1 JUMPDEST DUP2 SLOAD DUP2 MSTORE SWAP1 PUSH1 0x1 ADD SWAP1 PUSH1 0x20 ADD DUP1 DUP4 GT PUSH2 0x1571 JUMPI DUP3 SWAP1 SUB PUSH1 0x1F AND DUP3 ADD SWAP2 JUMPDEST POP POP POP POP POP SWAP7 POP SWAP12 POP SWAP12 POP SWAP12 POP SWAP12 POP SWAP12 POP SWAP12 POP SWAP12 POP SWAP12 POP SWAP12 POP SWAP12 POP POP POP SWAP2 SWAP4 SWAP6 SWAP8 SWAP10 POP SWAP2 SWAP4 SWAP6 SWAP8 SWAP10 JUMP JUMPDEST PUSH1 0x1 PUSH1 0x1 PUSH1 0xA0 SHL SUB DUP2 AND PUSH0 SWAP1 DUP2 MSTORE PUSH1 0x6 PUSH1 0x20 MSTORE PUSH1 0x40 DUP2 KECCAK256 PUSH1 0x2 DUP2 ADD SLOAD PUSH1 0x60 SWAP3 DUP4 SWAP3 DUP4 SWAP3 DUP4 SWAP3 DUP4 SWAP3 SWAP1 SWAP2 DUP3 SWAP2 SWAP1 PUSH1 0x1 DUP3 ADD SWAP1 PUSH2 0x15F5 SWAP1 PUSH1 0xFF AND PUSH2 0x43DF JUMP JUMPDEST DUP3 PUSH1 0x3 ADD DUP4 PUSH1 0x4 ADD DUP5 PUSH1 0x5 ADD DUP6 PUSH1 0x6 ADD PUSH0 SWAP1 SLOAD SWAP1 PUSH2 0x100 EXP SWAP1 DIV PUSH1 0xFF AND DUP7 PUSH1 0x7 ADD SLOAD DUP7 DUP1 SLOAD PUSH2 0x1623 SWAP1 PUSH2 0x536D JUMP JUMPDEST DUP1 PUSH1 0x1F ADD PUSH1 0x20 DUP1 SWAP2 DIV MUL PUSH1 0x20 ADD PUSH1 0x40 MLOAD SWAP1 DUP2 ADD PUSH1 0x40 MSTORE DUP1 SWAP3 SWAP2 SWAP1 DUP2 DUP2 MSTORE PUSH1 0x20 ADD DUP3 DUP1 SLOAD PUSH2 0x164F SWAP1 PUSH2 0x536D JUMP JUMPDEST DUP1 ISZERO PUSH2 0x169A JUMPI DUP1 PUSH1 0x1F LT PUSH2 0x1671 JUMPI PUSH2 0x100 DUP1 DUP4 SLOAD DIV MUL DUP4 MSTORE SWAP2 PUSH1 0x20 ADD SWAP2 PUSH2 0x169A JUMP JUMPDEST DUP3 ADD SWAP2 SWAP1 PUSH0 MSTORE PUSH1 0x20 PUSH0 KECCAK256 SWAP1 JUMPDEST DUP2 SLOAD DUP2 MSTORE SWAP1 PUSH1 0x1 ADD SWAP1 PUSH1 0x20 ADD DUP1 DUP4 GT PUSH2 0x167D JUMPI DUP3 SWAP1 SUB PUSH1 0x1F AND DUP3 ADD SWAP2 JUMPDEST POP POP POP POP POP SWAP7 POP DUP5 DUP1 SLOAD PUSH2 0x16AD SWAP1 PUSH2 0x536D JUMP JUMPDEST DUP1 PUSH1 0x1F ADD PUSH1 0x20 DUP1 SWAP2 DIV MUL PUSH1 0x20 ADD PUSH1 0x40 MLOAD SWAP1 DUP2 ADD PUSH1 0x40 MSTORE DUP1 SWAP3 SWAP2 SWAP1 DUP2 DUP2 MSTORE PUSH1 0x20 ADD DUP3 DUP1 SLOAD PUSH2 0x16D9 SWAP1 PUSH2 0x536D JUMP JUMPDEST DUP1 ISZERO PUSH2 0x1724 JUMPI DUP1 PUSH1 0x1F LT PUSH2 0x16FB JUMPI PUSH2 0x100 DUP1 DUP4 SLOAD DIV MUL DUP4 MSTORE SWAP2 PUSH1 0x20 ADD SWAP2 PUSH2 0x1724 JUMP JUMPDEST DUP3 ADD SWAP2 SWAP1 PUSH0 MSTORE PUSH1 0x20 PUSH0 KECCAK256 SWAP1 JUMPDEST DUP2 SLOAD DUP2 MSTORE SWAP1 PUSH1 0x1 ADD SWAP1 PUSH1 0x20 ADD DUP1 DUP4 GT PUSH2 0x1707 JUMPI DUP3 SWAP1 SUB PUSH1 0x1F AND DUP3 ADD SWAP2 JUMPDEST POP POP POP POP POP SWAP5 POP DUP4 DUP1 SLOAD PUSH2 0x1737 SWAP1 PUSH2 0x536D JUMP JUMPDEST DUP1 PUSH1 0x1F ADD PUSH1 0x20 DUP1 SWAP2 DIV MUL PUSH1 0x20 ADD PUSH1 0x40 MLOAD SWAP1 DUP2 ADD PUSH1 0x40 MSTORE DUP1 SWAP3 SWAP2 SWAP1 DUP2 DUP2 MSTORE PUSH1 0x20 ADD DUP3 DUP1 SLOAD PUSH2 0x1763 SWAP1 PUSH2 0x536D JUMP JUMPDEST DUP1 ISZERO PUSH2 0x17AE JUMPI DUP1 PUSH1 0x1F LT PUSH2 0x1785 JUMPI PUSH2 0x100 DUP1 DUP4 SLOAD DIV MUL DUP4 MSTORE SWAP2 PUSH1 0x20 ADD SWAP2 PUSH2 0x17AE JUMP JUMPDEST DUP3 ADD SWAP2 SWAP1 PUSH0 MSTORE PUSH1 0x20 PUSH0 KECCAK256 SWAP1 JUMPDEST DUP2 SLOAD DUP2 MSTORE SWAP1 PUSH1 0x1 ADD SWAP1 PUSH1 0x20 ADD DUP1 DUP4 GT PUSH2 0x1791 JUMPI DUP3 SWAP1 SUB PUSH1 0x1F AND DUP3 ADD SWAP2 JUMPDEST POP POP POP POP POP SWAP4 POP DUP3 DUP1 SLOAD PUSH2 0x17C1 SWAP1 PUSH2 0x536D JUMP JUMPDEST DUP1 PUSH1 0x1F ADD PUSH1 0x20 DUP1 SWAP2 DIV MUL PUSH1 0x20 ADD PUSH1 0x40 MLOAD SWAP1 DUP2 ADD PUSH1 0x40 MSTORE DUP1 SWAP3 SWAP2 SWAP1 DUP2 DUP2 MSTORE PUSH1 0x20 ADD DUP3 DUP1 SLOAD PUSH2 0x17ED SWAP1 PUSH2 0x536D JUMP JUMPDEST DUP1 ISZERO PUSH2 0x1838 JUMPI DUP1 PUSH1 0x1F LT PUSH2 0x180F JUMPI PUSH2 0x100 DUP1 DUP4 SLOAD DIV MUL DUP4 MSTORE SWAP2 PUSH1 0x20 ADD SWAP2 PUSH2 0x1838 JUMP JUMPDEST DUP3 ADD SWAP2 SWAP1 PUSH0 MSTORE PUSH1 0x20 PUSH0 KECCAK256 SWAP1 JUMPDEST DUP2 SLOAD DUP2 MSTORE SWAP1 PUSH1 0x1 ADD SWAP1 PUSH1 0x20 ADD DUP1 DUP4 GT PUSH2 0x181B JUMPI DUP3 SWAP1 SUB PUSH1 0x1F AND DUP3 ADD SWAP2 JUMPDEST POP POP POP POP POP SWAP3 POP SWAP8 POP SWAP8 POP SWAP8 POP SWAP8 POP SWAP8 POP SWAP8 POP SWAP8 POP POP SWAP2 SWAP4 SWAP6 SWAP8 SWAP1 SWAP3 SWAP5 SWAP7 POP JUMP JUMPDEST PUSH1 0x60 DUP1 PUSH1 0x60 DUP1 PUSH1 0x60 DUP1 DUP7 PUSH0 DUP2 GT DUP1 ISZERO PUSH2 0x1874 JUMPI POP PUSH1 0x1 SLOAD DUP2 GT ISZERO JUMPDEST PUSH2 0x1890 JUMPI PUSH1 0x40 MLOAD PUSH3 0x461BCD PUSH1 0xE5 SHL DUP2 MSTORE PUSH1 0x4 ADD PUSH2 0x57E SWAP1 PUSH2 0x5277 JUMP JUMPDEST PUSH0 DUP9 DUP2 MSTORE PUSH1 0xC PUSH1 0x20 MSTORE PUSH1 0x40 SWAP1 KECCAK256 DUP1 SLOAD DUP1 PUSH1 0x1 PUSH1 0x1 PUSH1 0x40 SHL SUB DUP2 GT ISZERO PUSH2 0x18B7 JUMPI PUSH2 0x18B7 PUSH2 0x4753 JUMP JUMPDEST PUSH1 0x40 MLOAD SWAP1 DUP1 DUP3 MSTORE DUP1 PUSH1 0x20 MUL PUSH1 0x20 ADD DUP3 ADD PUSH1 0x40 MSTORE DUP1 ISZERO PUSH2 0x18E0 JUMPI DUP2 PUSH1 0x20 ADD PUSH1 0x20 DUP3 MUL DUP1 CALLDATASIZE DUP4 CALLDATACOPY ADD SWAP1 POP JUMPDEST POP SWAP9 POP DUP1 PUSH1 0x1 PUSH1 0x1 PUSH1 0x40 SHL SUB DUP2 GT ISZERO PUSH2 0x18FB JUMPI PUSH2 0x18FB PUSH2 0x4753 JUMP JUMPDEST PUSH1 0x40 MLOAD SWAP1 DUP1 DUP3 MSTORE DUP1 PUSH1 0x20 MUL PUSH1 0x20 ADD DUP3 ADD PUSH1 0x40 MSTORE DUP1 ISZERO PUSH2 0x192E JUMPI DUP2 PUSH1 0x20 ADD JUMPDEST PUSH1 0x60 DUP2 MSTORE PUSH1 0x20 ADD SWAP1 PUSH1 0x1 SWAP1 SUB SWAP1 DUP2 PUSH2 0x1919 JUMPI SWAP1 POP JUMPDEST POP SWAP8 POP DUP1 PUSH1 0x1 PUSH1 0x1 PUSH1 0x40 SHL SUB DUP2 GT ISZERO PUSH2 0x1949 JUMPI PUSH2 0x1949 PUSH2 0x4753 JUMP JUMPDEST PUSH1 0x40 MLOAD SWAP1 DUP1 DUP3 MSTORE DUP1 PUSH1 0x20 MUL PUSH1 0x20 ADD DUP3 ADD PUSH1 0x40 MSTORE DUP1 ISZERO PUSH2 0x1972 JUMPI DUP2 PUSH1 0x20 ADD PUSH1 0x20 DUP3 MUL DUP1 CALLDATASIZE DUP4 CALLDATACOPY ADD SWAP1 POP JUMPDEST POP SWAP7 POP DUP1 PUSH1 0x1 PUSH1 0x1 PUSH1 0x40 SHL SUB DUP2 GT ISZERO PUSH2 0x198D JUMPI PUSH2 0x198D PUSH2 0x4753 JUMP JUMPDEST PUSH1 0x40 MLOAD SWAP1 DUP1 DUP3 MSTORE DUP1 PUSH1 0x20 MUL PUSH1 0x20 ADD DUP3 ADD PUSH1 0x40 MSTORE DUP1 ISZERO PUSH2 0x19C0 JUMPI DUP2 PUSH1 0x20 ADD JUMPDEST PUSH1 0x60 DUP2 MSTORE PUSH1 0x20 ADD SWAP1 PUSH1 0x1 SWAP1 SUB SWAP1 DUP2 PUSH2 0x19AB JUMPI SWAP1 POP JUMPDEST POP SWAP6 POP DUP1 PUSH1 0x1 PUSH1 0x1 PUSH1 0x40 SHL SUB DUP2 GT ISZERO PUSH2 0x19DB JUMPI PUSH2 0x19DB PUSH2 0x4753 JUMP JUMPDEST PUSH1 0x40 MLOAD SWAP1 DUP1 DUP3 MSTORE DUP1 PUSH1 0x20 MUL PUSH1 0x20 ADD DUP3 ADD PUSH1 0x40 MSTORE DUP1 ISZERO PUSH2 0x1A0E JUMPI DUP2 PUSH1 0x20 ADD JUMPDEST PUSH1 0x60 DUP2 MSTORE PUSH1 0x20 ADD SWAP1 PUSH1 0x1 SWAP1 SUB SWAP1 DUP2 PUSH2 0x19F9 JUMPI SWAP1 POP JUMPDEST POP SWAP5 POP DUP1 PUSH1 0x1 PUSH1 0x1 PUSH1 0x40 SHL SUB DUP2 GT ISZERO PUSH2 0x1A29 JUMPI PUSH2 0x1A29 PUSH2 0x4753 JUMP JUMPDEST PUSH1 0x40 MLOAD SWAP1 DUP1 DUP3 MSTORE DUP1 PUSH1 0x20 MUL PUSH1 0x20 ADD DUP3 ADD PUSH1 0x40 MSTORE DUP1 ISZERO PUSH2 0x1A52 JUMPI DUP2 PUSH1 0x20 ADD PUSH1 0x20 DUP3 MUL DUP1 CALLDATASIZE DUP4 CALLDATACOPY ADD SWAP1 POP JUMPDEST POP SWAP4 POP PUSH0 JUMPDEST DUP2 DUP2 LT ISZERO PUSH2 0x1D17 JUMPI PUSH0 PUSH1 0xB PUSH0 DUP6 DUP5 DUP2 SLOAD DUP2 LT PUSH2 0x1A75 JUMPI PUSH2 0x1A75 PUSH2 0x563B JUMP JUMPDEST SWAP1 PUSH0 MSTORE PUSH1 0x20 PUSH0 KECCAK256 ADD SLOAD DUP2 MSTORE PUSH1 0x20 ADD SWAP1 DUP2 MSTORE PUSH1 0x20 ADD PUSH0 KECCAK256 SWAP1 POP DUP1 PUSH0 ADD SLOAD DUP12 DUP4 DUP2 MLOAD DUP2 LT PUSH2 0x1AA3 JUMPI PUSH2 0x1AA3 PUSH2 0x563B JUMP JUMPDEST PUSH1 0x20 MUL PUSH1 0x20 ADD ADD DUP2 DUP2 MSTORE POP POP DUP1 PUSH1 0x2 ADD DUP1 SLOAD PUSH2 0x1ABE SWAP1 PUSH2 0x536D JUMP JUMPDEST DUP1 PUSH1 0x1F ADD PUSH1 0x20 DUP1 SWAP2 DIV MUL PUSH1 0x20 ADD PUSH1 0x40 MLOAD SWAP1 DUP2 ADD PUSH1 0x40 MSTORE DUP1 SWAP3 SWAP2 SWAP1 DUP2 DUP2 MSTORE PUSH1 0x20 ADD DUP3 DUP1 SLOAD PUSH2 0x1AEA SWAP1 PUSH2 0x536D JUMP JUMPDEST DUP1 ISZERO PUSH2 0x1B35 JUMPI DUP1 PUSH1 0x1F LT PUSH2 0x1B0C JUMPI PUSH2 0x100 DUP1 DUP4 SLOAD DIV MUL DUP4 MSTORE SWAP2 PUSH1 0x20 ADD SWAP2 PUSH2 0x1B35 JUMP JUMPDEST DUP3 ADD SWAP2 SWAP1 PUSH0 MSTORE PUSH1 0x20 PUSH0 KECCAK256 SWAP1 JUMPDEST DUP2 SLOAD DUP2 MSTORE SWAP1 PUSH1 0x1 ADD SWAP1 PUSH1 0x20 ADD DUP1 DUP4 GT PUSH2 0x1B18 JUMPI DUP3 SWAP1 SUB PUSH1 0x1F AND DUP3 ADD SWAP2 JUMPDEST POP POP POP POP POP DUP11 DUP4 DUP2 MLOAD DUP2 LT PUSH2 0x1B4C JUMPI PUSH2 0x1B4C PUSH2 0x563B JUMP JUMPDEST PUSH1 0x20 SWAP1 DUP2 MUL SWAP2 SWAP1 SWAP2 ADD ADD MSTORE PUSH1 0x3 DUP2 ADD SLOAD DUP10 MLOAD PUSH1 0x1 PUSH1 0x1 PUSH1 0xA0 SHL SUB SWAP1 SWAP2 AND SWAP1 DUP11 SWAP1 DUP5 SWAP1 DUP2 LT PUSH2 0x1B7C JUMPI PUSH2 0x1B7C PUSH2 0x563B JUMP JUMPDEST PUSH1 0x20 MUL PUSH1 0x20 ADD ADD SWAP1 PUSH1 0x1 PUSH1 0x1 PUSH1 0xA0 SHL SUB AND SWAP1 DUP2 PUSH1 0x1 PUSH1 0x1 PUSH1 0xA0 SHL SUB AND DUP2 MSTORE POP POP DUP1 PUSH1 0x4 ADD DUP1 SLOAD PUSH2 0x1BAB SWAP1 PUSH2 0x536D JUMP JUMPDEST DUP1 PUSH1 0x1F ADD PUSH1 0x20 DUP1 SWAP2 DIV MUL PUSH1 0x20 ADD PUSH1 0x40 MLOAD SWAP1 DUP2 ADD PUSH1 0x40 MSTORE DUP1 SWAP3 SWAP2 SWAP1 DUP2 DUP2 MSTORE PUSH1 0x20 ADD DUP3 DUP1 SLOAD PUSH2 0x1BD7 SWAP1 PUSH2 0x536D JUMP JUMPDEST DUP1 ISZERO PUSH2 0x1C22 JUMPI DUP1 PUSH1 0x1F LT PUSH2 0x1BF9 JUMPI PUSH2 0x100 DUP1 DUP4 SLOAD DIV MUL DUP4 MSTORE SWAP2 PUSH1 0x20 ADD SWAP2 PUSH2 0x1C22 JUMP JUMPDEST DUP3 ADD SWAP2 SWAP1 PUSH0 MSTORE PUSH1 0x20 PUSH0 KECCAK256 SWAP1 JUMPDEST DUP2 SLOAD DUP2 MSTORE SWAP1 PUSH1 0x1 ADD SWAP1 PUSH1 0x20 ADD DUP1 DUP4 GT PUSH2 0x1C05 JUMPI DUP3 SWAP1 SUB PUSH1 0x1F AND DUP3 ADD SWAP2 JUMPDEST POP POP POP POP POP DUP9 DUP4 DUP2 MLOAD DUP2 LT PUSH2 0x1C39 JUMPI PUSH2 0x1C39 PUSH2 0x563B JUMP JUMPDEST PUSH1 0x20 MUL PUSH1 0x20 ADD ADD DUP2 SWAP1 MSTORE POP DUP1 PUSH1 0x5 ADD DUP1 SLOAD PUSH2 0x1C53 SWAP1 PUSH2 0x536D JUMP JUMPDEST DUP1 PUSH1 0x1F ADD PUSH1 0x20 DUP1 SWAP2 DIV MUL PUSH1 0x20 ADD PUSH1 0x40 MLOAD SWAP1 DUP2 ADD PUSH1 0x40 MSTORE DUP1 SWAP3 SWAP2 SWAP1 DUP2 DUP2 MSTORE PUSH1 0x20 ADD DUP3 DUP1 SLOAD PUSH2 0x1C7F SWAP1 PUSH2 0x536D JUMP JUMPDEST DUP1 ISZERO PUSH2 0x1CCA JUMPI DUP1 PUSH1 0x1F LT PUSH2 0x1CA1 JUMPI PUSH2 0x100 DUP1 DUP4 SLOAD DIV MUL DUP4 MSTORE SWAP2 PUSH1 0x20 ADD SWAP2 PUSH2 0x1CCA JUMP JUMPDEST DUP3 ADD SWAP2 SWAP1 PUSH0 MSTORE PUSH1 0x20 PUSH0 KECCAK256 SWAP1 JUMPDEST DUP2 SLOAD DUP2 MSTORE SWAP1 PUSH1 0x1 ADD SWAP1 PUSH1 0x20 ADD DUP1 DUP4 GT PUSH2 0x1CAD JUMPI DUP3 SWAP1 SUB PUSH1 0x1F AND DUP3 ADD SWAP2 JUMPDEST POP POP POP POP POP DUP8 DUP4 DUP2 MLOAD DUP2 LT PUSH2 0x1CE1 JUMPI PUSH2 0x1CE1 PUSH2 0x563B JUMP JUMPDEST PUSH1 0x20 MUL PUSH1 0x20 ADD ADD DUP2 SWAP1 MSTORE POP DUP1 PUSH1 0x6 ADD SLOAD DUP7 DUP4 DUP2 MLOAD DUP2 LT PUSH2 0x1D03 JUMPI PUSH2 0x1D03 PUSH2 0x563B JUMP JUMPDEST PUSH1 0x20 SWAP1 DUP2 MUL SWAP2 SWAP1 SWAP2 ADD ADD MSTORE POP PUSH1 0x1 ADD PUSH2 0x1A57 JUMP JUMPDEST POP POP POP POP SWAP2 SWAP4 SWAP6 POP SWAP2 SWAP4 SWAP6 JUMP JUMPDEST PUSH1 0x8 PUSH1 0x20 MSTORE PUSH0 SWAP1 DUP2 MSTORE PUSH1 0x40 SWAP1 KECCAK256 DUP1 SLOAD PUSH1 0x1 DUP3 ADD SLOAD PUSH1 0x2 DUP4 ADD SLOAD PUSH1 0x3 DUP5 ADD SLOAD PUSH1 0x4 DUP6 ADD SLOAD PUSH1 0x5 DUP7 ADD SLOAD PUSH1 0x6 DUP8 ADD SLOAD PUSH1 0x7 DUP9 ADD DUP1 SLOAD SWAP8 SWAP9 SWAP7 SWAP8 PUSH1 0x1 PUSH1 0x1 PUSH1 0xA0 SHL SUB SWAP7 DUP8 AND SWAP8 SWAP7 SWAP1 SWAP6 AND SWAP6 SWAP4 SWAP5 SWAP3 SWAP4 SWAP2 SWAP3 PUSH2 0x1D7B SWAP1 PUSH2 0x536D JUMP JUMPDEST DUP1 PUSH1 0x1F ADD PUSH1 0x20 DUP1 SWAP2 DIV MUL PUSH1 0x20 ADD PUSH1 0x40 MLOAD SWAP1 DUP2 ADD PUSH1 0x40 MSTORE DUP1 SWAP3 SWAP2 SWAP1 DUP2 DUP2 MSTORE PUSH1 0x20 ADD DUP3 DUP1 SLOAD PUSH2 0x1DA7 SWAP1 PUSH2 0x536D JUMP JUMPDEST DUP1 ISZERO PUSH2 0x1DF2 JUMPI DUP1 PUSH1 0x1F LT PUSH2 0x1DC9 JUMPI PUSH2 0x100 DUP1 DUP4 SLOAD DIV MUL DUP4 MSTORE SWAP2 PUSH1 0x20 ADD SWAP2 PUSH2 0x1DF2 JUMP JUMPDEST DUP3 ADD SWAP2 SWAP1 PUSH0 MSTORE PUSH1 0x20 PUSH0 KECCAK256 SWAP1 JUMPDEST DUP2 SLOAD DUP2 MSTORE SWAP1 PUSH1 0x1 ADD SWAP1 PUSH1 0x20 ADD DUP1 DUP4 GT PUSH2 0x1DD5 JUMPI DUP3 SWAP1 SUB PUSH1 0x1F AND DUP3 ADD SWAP2 JUMPDEST POP POP POP POP POP SWAP1 POP DUP9 JUMP JUMPDEST PUSH0 PUSH1 0x60 DUP1 PUSH1 0x60 PUSH0 PUSH0 PUSH1 0x60 PUSH0 DUP9 PUSH0 DUP2 GT DUP1 ISZERO PUSH2 0x1E19 JUMPI POP PUSH1 0x1 SLOAD DUP2 GT ISZERO JUMPDEST PUSH2 0x1E35 JUMPI PUSH1 0x40 MLOAD PUSH3 0x461BCD PUSH1 0xE5 SHL DUP2 MSTORE PUSH1 0x4 ADD PUSH2 0x57E SWAP1 PUSH2 0x5277 JUMP JUMPDEST PUSH0 DUP11 DUP2 MSTORE PUSH1 0xE PUSH1 0x20 MSTORE PUSH1 0x40 SWAP1 KECCAK256 SLOAD DUP1 PUSH2 0x1EA7 JUMPI PUSH1 0x40 MLOAD PUSH3 0x461BCD PUSH1 0xE5 SHL DUP2 MSTORE PUSH1 0x20 PUSH1 0x4 DUP3 ADD MSTORE PUSH1 0x2E PUSH1 0x24 DUP3 ADD MSTORE PUSH32 0x4D757368436861696E3A206E6F20736869706D656E74207265636F7264656420 PUSH1 0x44 DUP3 ADD MSTORE PUSH14 0xCCDEE440E8D0D2E640C4C2E8C6D PUSH1 0x93 SHL PUSH1 0x64 DUP3 ADD MSTORE PUSH1 0x84 ADD PUSH2 0x57E JUMP JUMPDEST PUSH0 DUP2 DUP2 MSTORE PUSH1 0x9 PUSH1 0x20 DUP2 SWAP1 MSTORE PUSH1 0x40 SWAP1 SWAP2 KECCAK256 PUSH1 0x2 DUP2 ADD SLOAD PUSH1 0x6 DUP3 ADD SLOAD PUSH1 0x7 DUP4 ADD SLOAD SWAP4 DUP4 ADD SLOAD PUSH1 0x3 DUP5 ADD DUP1 SLOAD SWAP5 SWAP6 PUSH1 0x1 PUSH1 0x1 PUSH1 0xA0 SHL SUB SWAP1 SWAP5 AND SWAP5 SWAP1 SWAP4 PUSH1 0x4 DUP8 ADD SWAP4 PUSH1 0x5 DUP9 ADD SWAP4 SWAP1 SWAP3 PUSH1 0x8 DUP10 ADD SWAP2 PUSH1 0xFF AND SWAP1 DUP8 SWAP1 PUSH2 0x1F00 SWAP1 PUSH2 0x536D JUMP JUMPDEST DUP1 PUSH1 0x1F ADD PUSH1 0x20 DUP1 SWAP2 DIV MUL PUSH1 0x20 ADD PUSH1 0x40 MLOAD SWAP1 DUP2 ADD PUSH1 0x40 MSTORE DUP1 SWAP3 SWAP2 SWAP1 DUP2 DUP2 MSTORE PUSH1 0x20 ADD DUP3 DUP1 SLOAD PUSH2 0x1F2C SWAP1 PUSH2 0x536D JUMP JUMPDEST DUP1 ISZERO PUSH2 0x1F77 JUMPI DUP1 PUSH1 0x1F LT PUSH2 0x1F4E JUMPI PUSH2 0x100 DUP1 DUP4 SLOAD DIV MUL DUP4 MSTORE SWAP2 PUSH1 0x20 ADD SWAP2 PUSH2 0x1F77 JUMP JUMPDEST DUP3 ADD SWAP2 SWAP1 PUSH0 MSTORE PUSH1 0x20 PUSH0 KECCAK256 SWAP1 JUMPDEST DUP2 SLOAD DUP2 MSTORE SWAP1 PUSH1 0x1 ADD SWAP1 PUSH1 0x20 ADD DUP1 DUP4 GT PUSH2 0x1F5A JUMPI DUP3 SWAP1 SUB PUSH1 0x1F AND DUP3 ADD SWAP2 JUMPDEST POP POP POP POP POP SWAP7 POP DUP6 DUP1 SLOAD PUSH2 0x1F8A SWAP1 PUSH2 0x536D JUMP JUMPDEST DUP1 PUSH1 0x1F ADD PUSH1 0x20 DUP1 SWAP2 DIV MUL PUSH1 0x20 ADD PUSH1 0x40 MLOAD SWAP1 DUP2 ADD PUSH1 0x40 MSTORE DUP1 SWAP3 SWAP2 SWAP1 DUP2 DUP2 MSTORE PUSH1 0x20 ADD DUP3 DUP1 SLOAD PUSH2 0x1FB6 SWAP1 PUSH2 0x536D JUMP JUMPDEST DUP1 ISZERO PUSH2 0x2001 JUMPI DUP1 PUSH1 0x1F LT PUSH2 0x1FD8 JUMPI PUSH2 0x100 DUP1 DUP4 SLOAD DIV MUL DUP4 MSTORE SWAP2 PUSH1 0x20 ADD SWAP2 PUSH2 0x2001 JUMP JUMPDEST DUP3 ADD SWAP2 SWAP1 PUSH0 MSTORE PUSH1 0x20 PUSH0 KECCAK256 SWAP1 JUMPDEST DUP2 SLOAD DUP2 MSTORE SWAP1 PUSH1 0x1 ADD SWAP1 PUSH1 0x20 ADD DUP1 DUP4 GT PUSH2 0x1FE4 JUMPI DUP3 SWAP1 SUB PUSH1 0x1F AND DUP3 ADD SWAP2 JUMPDEST POP POP POP POP POP SWAP6 POP DUP5 DUP1 SLOAD PUSH2 0x2014 SWAP1 PUSH2 0x536D JUMP JUMPDEST DUP1 PUSH1 0x1F ADD PUSH1 0x20 DUP1 SWAP2 DIV MUL PUSH1 0x20 ADD PUSH1 0x40 MLOAD SWAP1 DUP2 ADD PUSH1 0x40 MSTORE DUP1 SWAP3 SWAP2 SWAP1 DUP2 DUP2 MSTORE PUSH1 0x20 ADD DUP3 DUP1 SLOAD PUSH2 0x2040 SWAP1 PUSH2 0x536D JUMP JUMPDEST DUP1 ISZERO PUSH2 0x208B JUMPI DUP1 PUSH1 0x1F LT PUSH2 0x2062 JUMPI PUSH2 0x100 DUP1 DUP4 SLOAD DIV MUL DUP4 MSTORE SWAP2 PUSH1 0x20 ADD SWAP2 PUSH2 0x208B JUMP JUMPDEST DUP3 ADD SWAP2 SWAP1 PUSH0 MSTORE PUSH1 0x20 PUSH0 KECCAK256 SWAP1 JUMPDEST DUP2 SLOAD DUP2 MSTORE SWAP1 PUSH1 0x1 ADD SWAP1 PUSH1 0x20 ADD DUP1 DUP4 GT PUSH2 0x206E JUMPI DUP3 SWAP1 SUB PUSH1 0x1F AND DUP3 ADD SWAP2 JUMPDEST POP POP POP POP POP SWAP5 POP DUP2 DUP1 SLOAD PUSH2 0x209E SWAP1 PUSH2 0x536D JUMP JUMPDEST DUP1 PUSH1 0x1F ADD PUSH1 0x20 DUP1 SWAP2 DIV MUL PUSH1 0x20 ADD PUSH1 0x40 MLOAD SWAP1 DUP2 ADD PUSH1 0x40 MSTORE DUP1 SWAP3 SWAP2 SWAP1 DUP2 DUP2 MSTORE PUSH1 0x20 ADD DUP3 DUP1 SLOAD PUSH2 0x20CA SWAP1 PUSH2 0x536D JUMP JUMPDEST DUP1 ISZERO PUSH2 0x2115 JUMPI DUP1 PUSH1 0x1F LT PUSH2 0x20EC JUMPI PUSH2 0x100 DUP1 DUP4 SLOAD DIV MUL DUP4 MSTORE SWAP2 PUSH1 0x20 ADD SWAP2 PUSH2 0x2115 JUMP JUMPDEST DUP3 ADD SWAP2 SWAP1 PUSH0 MSTORE PUSH1 0x20 PUSH0 KECCAK256 SWAP1 JUMPDEST DUP2 SLOAD DUP2 MSTORE SWAP1 PUSH1 0x1 ADD SWAP1 PUSH1 0x20 ADD DUP1 DUP4 GT PUSH2 0x20F8 JUMPI DUP3 SWAP1 SUB PUSH1 0x1F AND DUP3 ADD SWAP2 JUMPDEST POP POP POP POP POP SWAP2 POP SWAP11 POP SWAP11 POP SWAP11 POP SWAP11 POP SWAP11 POP SWAP11 POP SWAP11 POP SWAP11 POP POP POP POP SWAP2 SWAP4 SWAP6 SWAP8 POP SWAP2 SWAP4 SWAP6 SWAP8 JUMP JUMPDEST PUSH0 PUSH1 0x60 PUSH0 PUSH1 0x60 DUP1 PUSH0 PUSH0 PUSH1 0xB PUSH0 DUP10 DUP2 MSTORE PUSH1 0x20 ADD SWAP1 DUP2 MSTORE PUSH1 0x20 ADD PUSH0 KECCAK256 SWAP1 POP DUP1 PUSH1 0x1 ADD SLOAD DUP2 PUSH1 0x2 ADD DUP3 PUSH1 0x3 ADD PUSH0 SWAP1 SLOAD SWAP1 PUSH2 0x100 EXP SWAP1 DIV PUSH1 0x1 PUSH1 0x1 PUSH1 0xA0 SHL SUB AND DUP4 PUSH1 0x4 ADD DUP5 PUSH1 0x5 ADD DUP6 PUSH1 0x6 ADD SLOAD DUP5 DUP1 SLOAD PUSH2 0x218F SWAP1 PUSH2 0x536D JUMP JUMPDEST DUP1 PUSH1 0x1F ADD PUSH1 0x20 DUP1 SWAP2 DIV MUL PUSH1 0x20 ADD PUSH1 0x40 MLOAD SWAP1 DUP2 ADD PUSH1 0x40 MSTORE DUP1 SWAP3 SWAP2 SWAP1 DUP2 DUP2 MSTORE PUSH1 0x20 ADD DUP3 DUP1 SLOAD PUSH2 0x21BB SWAP1 PUSH2 0x536D JUMP JUMPDEST DUP1 ISZERO PUSH2 0x2206 JUMPI DUP1 PUSH1 0x1F LT PUSH2 0x21DD JUMPI PUSH2 0x100 DUP1 DUP4 SLOAD DIV MUL DUP4 MSTORE SWAP2 PUSH1 0x20 ADD SWAP2 PUSH2 0x2206 JUMP JUMPDEST DUP3 ADD SWAP2 SWAP1 PUSH0 MSTORE PUSH1 0x20 PUSH0 KECCAK256 SWAP1 JUMPDEST DUP2 SLOAD DUP2 MSTORE SWAP1 PUSH1 0x1 ADD SWAP1 PUSH1 0x20 ADD DUP1 DUP4 GT PUSH2 0x21E9 JUMPI DUP3 SWAP1 SUB PUSH1 0x1F AND DUP3 ADD SWAP2 JUMPDEST POP POP POP POP POP SWAP5 POP DUP3 DUP1 SLOAD PUSH2 0x2219 SWAP1 PUSH2 0x536D JUMP JUMPDEST DUP1 PUSH1 0x1F ADD PUSH1 0x20 DUP1 SWAP2 DIV MUL PUSH1 0x20 ADD PUSH1 0x40 MLOAD SWAP1 DUP2 ADD PUSH1 0x40 MSTORE DUP1 SWAP3 SWAP2 SWAP1 DUP2 DUP2 MSTORE PUSH1 0x20 ADD DUP3 DUP1 SLOAD PUSH2 0x2245 SWAP1 PUSH2 0x536D JUMP JUMPDEST DUP1 ISZERO PUSH2 0x2290 JUMPI DUP1 PUSH1 0x1F LT PUSH2 0x2267 JUMPI PUSH2 0x100 DUP1 DUP4 SLOAD DIV MUL DUP4 MSTORE SWAP2 PUSH1 0x20 ADD SWAP2 PUSH2 0x2290 JUMP JUMPDEST DUP3 ADD SWAP2 SWAP1 PUSH0 MSTORE PUSH1 0x20 PUSH0 KECCAK256 SWAP1 JUMPDEST DUP2 SLOAD DUP2 MSTORE SWAP1 PUSH1 0x1 ADD SWAP1 PUSH1 0x20 ADD DUP1 DUP4 GT PUSH2 0x2273 JUMPI DUP3 SWAP1 SUB PUSH1 0x1F AND DUP3 ADD SWAP2 JUMPDEST POP POP POP POP POP SWAP3 POP DUP2 DUP1 SLOAD PUSH2 0x22A3 SWAP1 PUSH2 0x536D JUMP JUMPDEST DUP1 PUSH1 0x1F ADD PUSH1 0x20 DUP1 SWAP2 DIV MUL PUSH1 0x20 ADD PUSH1 0x40 MLOAD SWAP1 DUP2 ADD PUSH1 0x40 MSTORE DUP1 SWAP3 SWAP2 SWAP1 DUP2 DUP2 MSTORE PUSH1 0x20 ADD DUP3 DUP1 SLOAD PUSH2 0x22CF SWAP1 PUSH2 0x536D JUMP JUMPDEST DUP1 ISZERO PUSH2 0x231A JUMPI DUP1 PUSH1 0x1F LT PUSH2 0x22F1 JUMPI PUSH2 0x100 DUP1 DUP4 SLOAD DIV MUL DUP4 MSTORE SWAP2 PUSH1 0x20 ADD SWAP2 PUSH2 0x231A JUMP JUMPDEST DUP3 ADD SWAP2 SWAP1 PUSH0 MSTORE PUSH1 0x20 PUSH0 KECCAK256 SWAP1 JUMPDEST DUP2 SLOAD DUP2 MSTORE SWAP1 PUSH1 0x1 ADD SWAP1 PUSH1 0x20 ADD DUP1 DUP4 GT PUSH2 0x22FD JUMPI DUP3 SWAP1 SUB PUSH1 0x1F AND DUP3 ADD SWAP2 JUMPDEST POP POP POP POP POP SWAP2 POP SWAP7 POP SWAP7 POP SWAP7 POP SWAP7 POP SWAP7 POP SWAP7 POP POP SWAP2 SWAP4 SWAP6 POP SWAP2 SWAP4 SWAP6 JUMP JUMPDEST PUSH0 PUSH1 0x2 DUP1 CALLER PUSH0 SWAP1 DUP2 MSTORE PUSH1 0x6 PUSH1 0x20 MSTORE PUSH1 0x40 SWAP1 KECCAK256 PUSH1 0x2 ADD SLOAD PUSH1 0xFF AND PUSH1 0x5 DUP2 GT ISZERO PUSH2 0x2361 JUMPI PUSH2 0x2361 PUSH2 0x487A JUMP JUMPDEST EQ PUSH2 0x237E JUMPI PUSH1 0x40 MLOAD PUSH3 0x461BCD PUSH1 0xE5 SHL DUP2 MSTORE PUSH1 0x4 ADD PUSH2 0x57E SWAP1 PUSH2 0x52AE JUMP JUMPDEST CALLER PUSH0 SWAP1 DUP2 MSTORE PUSH1 0x6 PUSH1 0x20 DUP2 SWAP1 MSTORE PUSH1 0x40 SWAP1 SWAP2 KECCAK256 ADD SLOAD PUSH1 0xFF AND PUSH2 0x23B0 JUMPI PUSH1 0x40 MLOAD PUSH3 0x461BCD PUSH1 0xE5 SHL DUP2 MSTORE PUSH1 0x4 ADD PUSH2 0x57E SWAP1 PUSH2 0x52F7 JUMP JUMPDEST PUSH1 0x4 DUP9 PUSH1 0xFF AND GT ISZERO PUSH2 0x2410 JUMPI PUSH1 0x40 MLOAD PUSH3 0x461BCD PUSH1 0xE5 SHL DUP2 MSTORE PUSH1 0x20 PUSH1 0x4 DUP3 ADD MSTORE PUSH1 0x23 PUSH1 0x24 DUP3 ADD MSTORE PUSH32 0x4D757368436861696E3A20756E6B6E6F776E206D757368726F6F6D2076617269 PUSH1 0x44 DUP3 ADD MSTORE PUSH3 0x657479 PUSH1 0xE8 SHL PUSH1 0x64 DUP3 ADD MSTORE PUSH1 0x84 ADD PUSH2 0x57E JUMP JUMPDEST PUSH0 DUP8 GT PUSH2 0x245F JUMPI PUSH1 0x40 MLOAD PUSH3 0x461BCD PUSH1 0xE5 SHL DUP2 MSTORE PUSH1 0x20 PUSH1 0x4 DUP3 ADD MSTORE PUSH1 0x1F PUSH1 0x24 DUP3 ADD MSTORE PUSH32 0x4D757368436861696E3A207175616E74697479206D757374206265203E203000 PUSH1 0x44 DUP3 ADD MSTORE PUSH1 0x64 ADD PUSH2 0x57E JUMP JUMPDEST PUSH0 DUP7 MLOAD GT PUSH2 0x24AF JUMPI PUSH1 0x40 MLOAD PUSH3 0x461BCD PUSH1 0xE5 SHL DUP2 MSTORE PUSH1 0x20 PUSH1 0x4 DUP3 ADD MSTORE PUSH1 0x1D PUSH1 0x24 DUP3 ADD MSTORE PUSH32 0x4D757368436861696E3A206661726D206E616D65207265717569726564000000 PUSH1 0x44 DUP3 ADD MSTORE PUSH1 0x64 ADD PUSH2 0x57E JUMP JUMPDEST PUSH1 0x1 DUP1 SLOAD SWAP1 PUSH0 PUSH2 0x24BE DUP4 PUSH2 0x5355 JUMP JUMPDEST SWAP2 SWAP1 POP SSTORE POP PUSH1 0x1 SLOAD SWAP2 POP PUSH0 PUSH2 0x24D2 DUP4 PUSH2 0x452C JUMP JUMPDEST SWAP1 POP PUSH1 0x40 MLOAD DUP1 PUSH2 0x1A0 ADD PUSH1 0x40 MSTORE DUP1 DUP5 DUP2 MSTORE PUSH1 0x20 ADD DUP3 DUP2 MSTORE PUSH1 0x20 ADD DUP11 PUSH1 0xFF AND PUSH1 0x4 DUP2 GT ISZERO PUSH2 0x2501 JUMPI PUSH2 0x2501 PUSH2 0x487A JUMP JUMPDEST PUSH1 0x4 DUP2 GT ISZERO PUSH2 0x2512 JUMPI PUSH2 0x2512 PUSH2 0x487A JUMP JUMPDEST DUP2 MSTORE PUSH1 0x20 DUP2 ADD DUP11 SWAP1 MSTORE TIMESTAMP PUSH1 0x40 DUP3 ADD MSTORE CALLER PUSH1 0x60 DUP3 ADD MSTORE PUSH1 0x80 DUP2 ADD DUP10 SWAP1 MSTORE PUSH1 0xA0 DUP2 ADD DUP9 SWAP1 MSTORE PUSH1 0xC0 DUP2 ADD DUP8 SWAP1 MSTORE PUSH1 0xE0 DUP2 ADD DUP7 SWAP1 MSTORE PUSH2 0x100 ADD PUSH0 DUP2 MSTORE CALLER PUSH1 0x20 DUP1 DUP4 ADD SWAP2 SWAP1 SWAP2 MSTORE TIMESTAMP PUSH1 0x40 SWAP3 DUP4 ADD MSTORE PUSH0 DUP7 DUP2 MSTORE PUSH1 0x7 DUP3 MSTORE SWAP2 SWAP1 SWAP2 KECCAK256 DUP3 MLOAD DUP2 SSTORE SWAP1 DUP3 ADD MLOAD PUSH1 0x1 DUP3 ADD SWAP1 PUSH2 0x257E SWAP1 DUP3 PUSH2 0x53F6 JUMP JUMPDEST POP PUSH1 0x40 DUP3 ADD MLOAD PUSH1 0x2 DUP3 ADD DUP1 SLOAD PUSH1 0xFF NOT AND PUSH1 0x1 DUP4 PUSH1 0x4 DUP2 GT ISZERO PUSH2 0x25A2 JUMPI PUSH2 0x25A2 PUSH2 0x487A JUMP JUMPDEST MUL OR SWAP1 SSTORE POP PUSH1 0x60 DUP3 ADD MLOAD PUSH1 0x3 DUP3 ADD SSTORE PUSH1 0x80 DUP3 ADD MLOAD PUSH1 0x4 DUP3 ADD SSTORE PUSH1 0xA0 DUP3 ADD MLOAD PUSH1 0x5 DUP3 ADD DUP1 SLOAD PUSH1 0x1 PUSH1 0x1 PUSH1 0xA0 SHL SUB NOT AND PUSH1 0x1 PUSH1 0x1 PUSH1 0xA0 SHL SUB SWAP1 SWAP3 AND SWAP2 SWAP1 SWAP2 OR SWAP1 SSTORE PUSH1 0xC0 DUP3 ADD MLOAD PUSH1 0x6 DUP3 ADD SWAP1 PUSH2 0x25F5 SWAP1 DUP3 PUSH2 0x53F6 JUMP JUMPDEST POP PUSH1 0xE0 DUP3 ADD MLOAD PUSH1 0x7 DUP3 ADD SWAP1 PUSH2 0x260A SWAP1 DUP3 PUSH2 0x53F6 JUMP JUMPDEST POP PUSH2 0x100 DUP3 ADD MLOAD PUSH1 0x8 DUP3 ADD SWAP1 PUSH2 0x2620 SWAP1 DUP3 PUSH2 0x53F6 JUMP JUMPDEST POP PUSH2 0x120 DUP3 ADD MLOAD PUSH1 0x9 DUP3 ADD SWAP1 PUSH2 0x2636 SWAP1 DUP3 PUSH2 0x53F6 JUMP JUMPDEST POP PUSH2 0x140 DUP3 ADD MLOAD PUSH1 0xA DUP3 ADD DUP1 SLOAD PUSH1 0xFF NOT AND PUSH1 0x1 DUP4 PUSH1 0x3 DUP2 GT ISZERO PUSH2 0x265B JUMPI PUSH2 0x265B PUSH2 0x487A JUMP JUMPDEST MUL OR SWAP1 SSTORE POP PUSH2 0x160 DUP3 ADD MLOAD PUSH1 0xA DUP3 ADD DUP1 SLOAD PUSH1 0x1 PUSH1 0x1 PUSH1 0xA0 SHL SUB SWAP1 SWAP3 AND PUSH2 0x100 MUL PUSH2 0x100 PUSH1 0x1 PUSH1 0xA8 SHL SUB NOT SWAP1 SWAP3 AND SWAP2 SWAP1 SWAP2 OR SWAP1 SSTORE PUSH2 0x180 SWAP1 SWAP2 ADD MLOAD PUSH1 0xB SWAP1 SWAP2 ADD SSTORE PUSH1 0x10 DUP1 SLOAD PUSH1 0x1 DUP2 ADD DUP3 SSTORE PUSH0 SWAP2 DUP3 MSTORE PUSH32 0x1B6847DC741A1B0CD08D278845F9D819D87B734759AFB55FE2DE5CB82A9AE672 ADD DUP5 SWAP1 SSTORE DUP8 PUSH2 0x26EC PUSH1 0xFF DUP13 AND PUSH1 0x4 DUP2 GT ISZERO PUSH2 0x26E7 JUMPI PUSH2 0x26E7 PUSH2 0x487A JUMP JUMPDEST PUSH2 0x4286 JUMP JUMPDEST PUSH2 0x26F5 DUP12 PUSH2 0x3F3D JUMP JUMPDEST DUP10 DUP10 PUSH1 0x40 MLOAD PUSH1 0x20 ADD PUSH2 0x270B SWAP6 SWAP5 SWAP4 SWAP3 SWAP2 SWAP1 PUSH2 0x564F JUMP JUMPDEST PUSH1 0x40 MLOAD PUSH1 0x20 DUP2 DUP4 SUB SUB DUP2 MSTORE SWAP1 PUSH1 0x40 MSTORE SWAP1 POP PUSH2 0x276F DUP5 PUSH1 0x40 MLOAD DUP1 PUSH1 0x40 ADD PUSH1 0x40 MSTORE DUP1 PUSH1 0x10 DUP2 MSTORE PUSH1 0x20 ADD PUSH16 0x10905510D217D49151D254D511549151 PUSH1 0x82 SHL DUP2 MSTORE POP CALLER PUSH1 0x40 MLOAD DUP1 PUSH1 0x40 ADD PUSH1 0x40 MSTORE DUP1 PUSH1 0x6 DUP2 MSTORE PUSH1 0x20 ADD PUSH6 0x2330B936B2B9 PUSH1 0xD1 SHL DUP2 MSTORE POP DUP6 PUSH2 0x4044 JUMP JUMPDEST CALLER DUP5 PUSH32 0xE7C6CE1E894922F8852157A0E778C785B38E7D24E71E36AFF6D322F4EBD31EA0 DUP5 PUSH1 0xFF DUP15 AND PUSH1 0x4 DUP2 GT ISZERO PUSH2 0x27A8 JUMPI PUSH2 0x27A8 PUSH2 0x487A JUMP JUMPDEST DUP14 TIMESTAMP PUSH1 0x40 MLOAD PUSH2 0x27BA SWAP5 SWAP4 SWAP3 SWAP2 SWAP1 PUSH2 0x56EA JUMP JUMPDEST PUSH1 0x40 MLOAD DUP1 SWAP2 SUB SWAP1 LOG3 POP POP POP SWAP7 SWAP6 POP POP POP POP POP POP JUMP JUMPDEST PUSH1 0xA PUSH1 0x20 MSTORE PUSH0 SWAP1 DUP2 MSTORE PUSH1 0x40 SWAP1 KECCAK256 DUP1 SLOAD PUSH1 0x1 DUP3 ADD SLOAD PUSH1 0x2 DUP4 ADD SLOAD PUSH1 0x3 DUP5 ADD SLOAD PUSH1 0x4 DUP6 ADD SLOAD PUSH1 0x5 DUP7 ADD DUP1 SLOAD SWAP6 SWAP7 SWAP5 SWAP6 PUSH1 0x1 PUSH1 0x1 PUSH1 0xA0 SHL SUB SWAP1 SWAP5 AND SWAP5 SWAP3 SWAP4 PUSH1 0xFF SWAP1 SWAP3 AND SWAP3 SWAP2 PUSH2 0x281A SWAP1 PUSH2 0x536D JUMP JUMPDEST DUP1 PUSH1 0x1F ADD PUSH1 0x20 DUP1 SWAP2 DIV MUL PUSH1 0x20 ADD PUSH1 0x40 MLOAD SWAP1 DUP2 ADD PUSH1 0x40 MSTORE DUP1 SWAP3 SWAP2 SWAP1 DUP2 DUP2 MSTORE PUSH1 0x20 ADD DUP3 DUP1 SLOAD PUSH2 0x2846 SWAP1 PUSH2 0x536D JUMP JUMPDEST DUP1 ISZERO PUSH2 0x2891 JUMPI DUP1 PUSH1 0x1F LT PUSH2 0x2868 JUMPI PUSH2 0x100 DUP1 DUP4 SLOAD DIV MUL DUP4 MSTORE SWAP2 PUSH1 0x20 ADD SWAP2 PUSH2 0x2891 JUMP JUMPDEST DUP3 ADD SWAP2 SWAP1 PUSH0 MSTORE PUSH1 0x20 PUSH0 KECCAK256 SWAP1 JUMPDEST DUP2 SLOAD DUP2 MSTORE SWAP1 PUSH1 0x1 ADD SWAP1 PUSH1 0x20 ADD DUP1 DUP4 GT PUSH2 0x2874 JUMPI DUP3 SWAP1 SUB PUSH1 0x1F AND DUP3 ADD SWAP2 JUMPDEST POP POP POP POP POP SWAP1 DUP1 PUSH1 0x6 ADD SLOAD SWAP1 POP DUP8 JUMP JUMPDEST DUP6 PUSH0 DUP2 GT DUP1 ISZERO PUSH2 0x28B3 JUMPI POP PUSH1 0x1 SLOAD DUP2 GT ISZERO JUMPDEST PUSH2 0x28CF JUMPI PUSH1 0x40 MLOAD PUSH3 0x461BCD PUSH1 0xE5 SHL DUP2 MSTORE PUSH1 0x4 ADD PUSH2 0x57E SWAP1 PUSH2 0x5277 JUMP JUMPDEST PUSH1 0x4 DUP1 CALLER PUSH0 SWAP1 DUP2 MSTORE PUSH1 0x6 PUSH1 0x20 MSTORE PUSH1 0x40 SWAP1 KECCAK256 PUSH1 0x2 ADD SLOAD PUSH1 0xFF AND PUSH1 0x5 DUP2 GT ISZERO PUSH2 0x28F8 JUMPI PUSH2 0x28F8 PUSH2 0x487A JUMP JUMPDEST EQ PUSH2 0x2915 JUMPI PUSH1 0x40 MLOAD PUSH3 0x461BCD PUSH1 0xE5 SHL DUP2 MSTORE PUSH1 0x4 ADD PUSH2 0x57E SWAP1 PUSH2 0x52AE JUMP JUMPDEST CALLER PUSH0 SWAP1 DUP2 MSTORE PUSH1 0x6 PUSH1 0x20 DUP2 SWAP1 MSTORE PUSH1 0x40 SWAP1 SWAP2 KECCAK256 ADD SLOAD PUSH1 0xFF AND PUSH2 0x2947 JUMPI PUSH1 0x40 MLOAD PUSH3 0x461BCD PUSH1 0xE5 SHL DUP2 MSTORE PUSH1 0x4 ADD PUSH2 0x57E SWAP1 PUSH2 0x52F7 JUMP JUMPDEST PUSH1 0x1 PUSH0 DUP10 DUP2 MSTORE PUSH1 0x7 PUSH1 0x20 MSTORE PUSH1 0x40 SWAP1 KECCAK256 PUSH1 0xA ADD SLOAD PUSH1 0xFF AND PUSH1 0x3 DUP2 GT ISZERO PUSH2 0x296E JUMPI PUSH2 0x296E PUSH2 0x487A JUMP JUMPDEST EQ PUSH2 0x29E1 JUMPI PUSH1 0x40 MLOAD PUSH3 0x461BCD PUSH1 0xE5 SHL DUP2 MSTORE PUSH1 0x20 PUSH1 0x4 DUP3 ADD MSTORE PUSH1 0x3C PUSH1 0x24 DUP3 ADD MSTORE PUSH32 0x4D757368436861696E3A206261746368206D757374206265205472616E736665 PUSH1 0x44 DUP3 ADD MSTORE PUSH32 0x72726564546F547261646572206265666F7265207368697070696E6700000000 PUSH1 0x64 DUP3 ADD MSTORE PUSH1 0x84 ADD PUSH2 0x57E JUMP JUMPDEST PUSH0 DUP8 MLOAD GT PUSH2 0x2A3B JUMPI PUSH1 0x40 MLOAD PUSH3 0x461BCD PUSH1 0xE5 SHL DUP2 MSTORE PUSH1 0x20 PUSH1 0x4 DUP3 ADD MSTORE PUSH1 0x21 PUSH1 0x24 DUP3 ADD MSTORE PUSH32 0x4D757368436861696E3A2076656869636C6520706C6174652072657175697265 PUSH1 0x44 DUP3 ADD MSTORE PUSH1 0x19 PUSH1 0xFA SHL PUSH1 0x64 DUP3 ADD MSTORE PUSH1 0x84 ADD PUSH2 0x57E JUMP JUMPDEST PUSH0 DUP6 MLOAD GT PUSH2 0x2A8B JUMPI PUSH1 0x40 MLOAD PUSH3 0x461BCD PUSH1 0xE5 SHL DUP2 MSTORE PUSH1 0x20 PUSH1 0x4 DUP3 ADD MSTORE PUSH1 0x1F PUSH1 0x24 DUP3 ADD MSTORE PUSH32 0x4D757368436861696E3A2064657374696E6174696F6E20726571756972656400 PUSH1 0x44 DUP3 ADD MSTORE PUSH1 0x64 ADD PUSH2 0x57E JUMP JUMPDEST PUSH1 0x3 DUP1 SLOAD SWAP1 PUSH0 PUSH2 0x2A9A DUP4 PUSH2 0x5355 JUMP JUMPDEST SWAP2 SWAP1 POP SSTORE POP PUSH1 0x40 MLOAD DUP1 PUSH2 0x160 ADD PUSH1 0x40 MSTORE DUP1 PUSH1 0x3 SLOAD DUP2 MSTORE PUSH1 0x20 ADD DUP10 DUP2 MSTORE PUSH1 0x20 ADD CALLER PUSH1 0x1 PUSH1 0x1 PUSH1 0xA0 SHL SUB AND DUP2 MSTORE PUSH1 0x20 ADD DUP9 DUP2 MSTORE PUSH1 0x20 ADD DUP8 DUP2 MSTORE PUSH1 0x20 ADD DUP7 DUP2 MSTORE PUSH1 0x20 ADD TIMESTAMP DUP2 MSTORE PUSH1 0x20 ADD DUP6 PUSH2 0xE10 PUSH2 0x2AEE SWAP2 SWAP1 PUSH2 0x571D JUMP JUMPDEST PUSH2 0x2AF8 SWAP1 TIMESTAMP PUSH2 0x573A JUMP JUMPDEST DUP2 MSTORE PUSH1 0x20 DUP1 DUP3 ADD DUP7 SWAP1 MSTORE PUSH0 PUSH1 0x40 DUP1 DUP5 ADD DUP3 SWAP1 MSTORE TIMESTAMP PUSH1 0x60 SWAP5 DUP6 ADD MSTORE PUSH1 0x3 DUP1 SLOAD DUP4 MSTORE PUSH1 0x9 DUP5 MSTORE SWAP2 DUP2 SWAP1 KECCAK256 DUP6 MLOAD DUP2 SSTORE SWAP3 DUP6 ADD MLOAD PUSH1 0x1 DUP5 ADD SSTORE DUP5 ADD MLOAD PUSH1 0x2 DUP4 ADD DUP1 SLOAD PUSH1 0x1 PUSH1 0x1 PUSH1 0xA0 SHL SUB NOT AND PUSH1 0x1 PUSH1 0x1 PUSH1 0xA0 SHL SUB SWAP1 SWAP3 AND SWAP2 SWAP1 SWAP2 OR SWAP1 SSTORE SWAP2 DUP4 ADD MLOAD SWAP1 SWAP2 DUP3 ADD SWAP1 PUSH2 0x2B64 SWAP1 DUP3 PUSH2 0x53F6 JUMP JUMPDEST POP PUSH1 0x80 DUP3 ADD MLOAD PUSH1 0x4 DUP3 ADD SWAP1 PUSH2 0x2B79 SWAP1 DUP3 PUSH2 0x53F6 JUMP JUMPDEST POP PUSH1 0xA0 DUP3 ADD MLOAD PUSH1 0x5 DUP3 ADD SWAP1 PUSH2 0x2B8E SWAP1 DUP3 PUSH2 0x53F6 JUMP JUMPDEST POP PUSH1 0xC0 DUP3 ADD MLOAD PUSH1 0x6 DUP3 ADD SSTORE PUSH1 0xE0 DUP3 ADD MLOAD PUSH1 0x7 DUP3 ADD SSTORE PUSH2 0x100 DUP3 ADD MLOAD PUSH1 0x8 DUP3 ADD SWAP1 PUSH2 0x2BB8 SWAP1 DUP3 PUSH2 0x53F6 JUMP JUMPDEST POP PUSH2 0x120 DUP3 ADD MLOAD PUSH1 0x9 DUP3 ADD DUP1 SLOAD SWAP2 ISZERO ISZERO PUSH1 0xFF NOT SWAP3 DUP4 AND OR SWAP1 SSTORE PUSH2 0x140 SWAP1 SWAP3 ADD MLOAD PUSH1 0xA SWAP2 DUP3 ADD SSTORE PUSH1 0x3 SLOAD PUSH0 DUP12 DUP2 MSTORE PUSH1 0xE PUSH1 0x20 SWAP1 DUP2 MSTORE PUSH1 0x40 DUP1 DUP4 KECCAK256 SWAP4 SWAP1 SWAP4 SSTORE PUSH1 0x7 SWAP1 MSTORE KECCAK256 ADD DUP1 SLOAD PUSH1 0x2 SWAP3 AND PUSH1 0x1 DUP4 MUL OR SWAP1 SSTORE POP PUSH0 DUP8 DUP8 DUP8 PUSH2 0x2C16 DUP9 PUSH2 0x3F3D JUMP JUMPDEST DUP8 PUSH1 0x40 MLOAD PUSH1 0x20 ADD PUSH2 0x2C2B SWAP6 SWAP5 SWAP4 SWAP3 SWAP2 SWAP1 PUSH2 0x574D JUMP JUMPDEST PUSH1 0x40 MLOAD PUSH1 0x20 DUP2 DUP4 SUB SUB DUP2 MSTORE SWAP1 PUSH1 0x40 MSTORE SWAP1 POP PUSH2 0x2C93 DUP10 PUSH1 0x40 MLOAD DUP1 PUSH1 0x40 ADD PUSH1 0x40 MSTORE DUP1 PUSH1 0xF DUP2 MSTORE PUSH1 0x20 ADD PUSH15 0x14D212541351539517D313D1D1D151 PUSH1 0x8A SHL DUP2 MSTORE POP CALLER PUSH1 0x40 MLOAD DUP1 PUSH1 0x40 ADD PUSH1 0x40 MSTORE DUP1 PUSH1 0xB DUP2 MSTORE PUSH1 0x20 ADD PUSH11 0x2A3930B739B837B93A32B9 PUSH1 0xA9 SHL DUP2 MSTORE POP DUP6 PUSH2 0x4044 JUMP JUMPDEST CALLER PUSH1 0x1 PUSH1 0x1 PUSH1 0xA0 SHL SUB AND DUP10 PUSH32 0xB9BC597DEEA6EA578414D5DF7C122586EFE69DD22FB6846BEB64D7401D8C19C6 DUP11 DUP10 TIMESTAMP PUSH1 0x40 MLOAD PUSH2 0x2CD1 SWAP4 SWAP3 SWAP2 SWAP1 PUSH2 0x57F1 JUMP JUMPDEST PUSH1 0x40 MLOAD DUP1 SWAP2 SUB SWAP1 LOG3 POP POP POP POP POP POP POP POP POP JUMP JUMPDEST PUSH1 0x7 PUSH1 0x20 MSTORE PUSH0 SWAP1 DUP2 MSTORE PUSH1 0x40 SWAP1 KECCAK256 DUP1 SLOAD PUSH1 0x1 DUP3 ADD DUP1 SLOAD SWAP2 SWAP3 SWAP2 PUSH2 0x2D05 SWAP1 PUSH2 0x536D JUMP JUMPDEST DUP1 PUSH1 0x1F ADD PUSH1 0x20 DUP1 SWAP2 DIV MUL PUSH1 0x20 ADD PUSH1 0x40 MLOAD SWAP1 DUP2 ADD PUSH1 0x40 MSTORE DUP1 SWAP3 SWAP2 SWAP1 DUP2 DUP2 MSTORE PUSH1 0x20 ADD DUP3 DUP1 SLOAD PUSH2 0x2D31 SWAP1 PUSH2 0x536D JUMP JUMPDEST DUP1 ISZERO PUSH2 0x2D7C JUMPI DUP1 PUSH1 0x1F LT PUSH2 0x2D53 JUMPI PUSH2 0x100 DUP1 DUP4 SLOAD DIV MUL DUP4 MSTORE SWAP2 PUSH1 0x20 ADD SWAP2 PUSH2 0x2D7C JUMP JUMPDEST DUP3 ADD SWAP2 SWAP1 PUSH0 MSTORE PUSH1 0x20 PUSH0 KECCAK256 SWAP1 JUMPDEST DUP2 SLOAD DUP2 MSTORE SWAP1 PUSH1 0x1 ADD SWAP1 PUSH1 0x20 ADD DUP1 DUP4 GT PUSH2 0x2D5F JUMPI DUP3 SWAP1 SUB PUSH1 0x1F AND DUP3 ADD SWAP2 JUMPDEST POP POP POP PUSH1 0x2 DUP5 ADD SLOAD PUSH1 0x3 DUP6 ADD SLOAD PUSH1 0x4 DUP7 ADD SLOAD PUSH1 0x5 DUP8 ADD SLOAD PUSH1 0x6 DUP9 ADD DUP1 SLOAD SWAP8 SWAP9 PUSH1 0xFF SWAP1 SWAP6 AND SWAP8 SWAP4 SWAP7 POP SWAP2 SWAP5 POP PUSH1 0x1 PUSH1 0x1 PUSH1 0xA0 SHL SUB AND SWAP3 SWAP2 PUSH2 0x2DBB SWAP1 PUSH2 0x536D JUMP JUMPDEST DUP1 PUSH1 0x1F ADD PUSH1 0x20 DUP1 SWAP2 DIV MUL PUSH1 0x20 ADD PUSH1 0x40 MLOAD SWAP1 DUP2 ADD PUSH1 0x40 MSTORE DUP1 SWAP3 SWAP2 SWAP1 DUP2 DUP2 MSTORE PUSH1 0x20 ADD DUP3 DUP1 SLOAD PUSH2 0x2DE7 SWAP1 PUSH2 0x536D JUMP JUMPDEST DUP1 ISZERO PUSH2 0x2E32 JUMPI DUP1 PUSH1 0x1F LT PUSH2 0x2E09 JUMPI PUSH2 0x100 DUP1 DUP4 SLOAD DIV MUL DUP4 MSTORE SWAP2 PUSH1 0x20 ADD SWAP2 PUSH2 0x2E32 JUMP JUMPDEST DUP3 ADD SWAP2 SWAP1 PUSH0 MSTORE PUSH1 0x20 PUSH0 KECCAK256 SWAP1 JUMPDEST DUP2 SLOAD DUP2 MSTORE SWAP1 PUSH1 0x1 ADD SWAP1 PUSH1 0x20 ADD DUP1 DUP4 GT PUSH2 0x2E15 JUMPI DUP3 SWAP1 SUB PUSH1 0x1F AND DUP3 ADD SWAP2 JUMPDEST POP POP POP POP POP SWAP1 DUP1 PUSH1 0x7 ADD DUP1 SLOAD PUSH2 0x2E47 SWAP1 PUSH2 0x536D JUMP JUMPDEST DUP1 PUSH1 0x1F ADD PUSH1 0x20 DUP1 SWAP2 DIV MUL PUSH1 0x20 ADD PUSH1 0x40 MLOAD SWAP1 DUP2 ADD PUSH1 0x40 MSTORE DUP1 SWAP3 SWAP2 SWAP1 DUP2 DUP2 MSTORE PUSH1 0x20 ADD DUP3 DUP1 SLOAD PUSH2 0x2E73 SWAP1 PUSH2 0x536D JUMP JUMPDEST DUP1 ISZERO PUSH2 0x2EBE JUMPI DUP1 PUSH1 0x1F LT PUSH2 0x2E95 JUMPI PUSH2 0x100 DUP1 DUP4 SLOAD DIV MUL DUP4 MSTORE SWAP2 PUSH1 0x20 ADD SWAP2 PUSH2 0x2EBE JUMP JUMPDEST DUP3 ADD SWAP2 SWAP1 PUSH0 MSTORE PUSH1 0x20 PUSH0 KECCAK256 SWAP1 JUMPDEST DUP2 SLOAD DUP2 MSTORE SWAP1 PUSH1 0x1 ADD SWAP1 PUSH1 0x20 ADD DUP1 DUP4 GT PUSH2 0x2EA1 JUMPI DUP3 SWAP1 SUB PUSH1 0x1F AND DUP3 ADD SWAP2 JUMPDEST POP POP POP POP POP SWAP1 DUP1 PUSH1 0x8 ADD DUP1 SLOAD PUSH2 0x2ED3 SWAP1 PUSH2 0x536D JUMP JUMPDEST DUP1 PUSH1 0x1F ADD PUSH1 0x20 DUP1 SWAP2 DIV MUL PUSH1 0x20 ADD PUSH1 0x40 MLOAD SWAP1 DUP2 ADD PUSH1 0x40 MSTORE DUP1 SWAP3 SWAP2 SWAP1 DUP2 DUP2 MSTORE PUSH1 0x20 ADD DUP3 DUP1 SLOAD PUSH2 0x2EFF SWAP1 PUSH2 0x536D JUMP JUMPDEST DUP1 ISZERO PUSH2 0x2F4A JUMPI DUP1 PUSH1 0x1F LT PUSH2 0x2F21 JUMPI PUSH2 0x100 DUP1 DUP4 SLOAD DIV MUL DUP4 MSTORE SWAP2 PUSH1 0x20 ADD SWAP2 PUSH2 0x2F4A JUMP JUMPDEST DUP3 ADD SWAP2 SWAP1 PUSH0 MSTORE PUSH1 0x20 PUSH0 KECCAK256 SWAP1 JUMPDEST DUP2 SLOAD DUP2 MSTORE SWAP1 PUSH1 0x1 ADD SWAP1 PUSH1 0x20 ADD DUP1 DUP4 GT PUSH2 0x2F2D JUMPI DUP3 SWAP1 SUB PUSH1 0x1F AND DUP3 ADD SWAP2 JUMPDEST POP POP POP POP POP SWAP1 DUP1 PUSH1 0x9 ADD DUP1 SLOAD PUSH2 0x2F5F SWAP1 PUSH2 0x536D JUMP JUMPDEST DUP1 PUSH1 0x1F ADD PUSH1 0x20 DUP1 SWAP2 DIV MUL PUSH1 0x20 ADD PUSH1 0x40 MLOAD SWAP1 DUP2 ADD PUSH1 0x40 MSTORE DUP1 SWAP3 SWAP2 SWAP1 DUP2 DUP2 MSTORE PUSH1 0x20 ADD DUP3 DUP1 SLOAD PUSH2 0x2F8B SWAP1 PUSH2 0x536D JUMP JUMPDEST DUP1 ISZERO PUSH2 0x2FD6 JUMPI DUP1 PUSH1 0x1F LT PUSH2 0x2FAD JUMPI PUSH2 0x100 DUP1 DUP4 SLOAD DIV MUL DUP4 MSTORE SWAP2 PUSH1 0x20 ADD SWAP2 PUSH2 0x2FD6 JUMP JUMPDEST DUP3 ADD SWAP2 SWAP1 PUSH0 MSTORE PUSH1 0x20 PUSH0 KECCAK256 SWAP1 JUMPDEST DUP2 SLOAD DUP2 MSTORE SWAP1 PUSH1 0x1 ADD SWAP1 PUSH1 0x20 ADD DUP1 DUP4 GT PUSH2 0x2FB9 JUMPI DUP3 SWAP1 SUB PUSH1 0x1F AND DUP3 ADD SWAP2 JUMPDEST POP POP POP POP PUSH1 0xA DUP4 ADD SLOAD PUSH1 0xB SWAP1 SWAP4 ADD SLOAD SWAP2 SWAP3 PUSH1 0xFF DUP2 AND SWAP3 PUSH2 0x100 SWAP1 SWAP2 DIV PUSH1 0x1 PUSH1 0x1 PUSH1 0xA0 SHL SUB AND SWAP2 POP DUP14 JUMP JUMPDEST PUSH0 PUSH0 PUSH0 PUSH0 PUSH0 PUSH1 0x60 DUP7 PUSH0 DUP2 GT DUP1 ISZERO PUSH2 0x3019 JUMPI POP PUSH1 0x1 SLOAD DUP2 GT ISZERO JUMPDEST PUSH2 0x3035 JUMPI PUSH1 0x40 MLOAD PUSH3 0x461BCD PUSH1 0xE5 SHL DUP2 MSTORE PUSH1 0x4 ADD PUSH2 0x57E SWAP1 PUSH2 0x5277 JUMP JUMPDEST PUSH0 DUP9 DUP2 MSTORE PUSH1 0xD PUSH1 0x20 MSTORE PUSH1 0x40 SWAP1 KECCAK256 SLOAD DUP1 PUSH2 0x30A7 JUMPI PUSH1 0x40 MLOAD PUSH3 0x461BCD PUSH1 0xE5 SHL DUP2 MSTORE PUSH1 0x20 PUSH1 0x4 DUP3 ADD MSTORE PUSH1 0x2E PUSH1 0x24 DUP3 ADD MSTORE PUSH32 0x4D757368436861696E3A206E6F207472616E73666572207265636F7264656420 PUSH1 0x44 DUP3 ADD MSTORE PUSH14 0xCCDEE440E8D0D2E640C4C2E8C6D PUSH1 0x93 SHL PUSH1 0x64 DUP3 ADD MSTORE PUSH1 0x84 ADD PUSH2 0x57E JUMP JUMPDEST PUSH0 DUP2 DUP2 MSTORE PUSH1 0x8 PUSH1 0x20 MSTORE PUSH1 0x40 SWAP1 KECCAK256 PUSH1 0x2 DUP2 ADD SLOAD PUSH1 0x3 DUP3 ADD SLOAD PUSH1 0x4 DUP4 ADD SLOAD PUSH1 0x5 DUP5 ADD SLOAD PUSH1 0x6 DUP6 ADD SLOAD PUSH1 0x7 DUP7 ADD DUP1 SLOAD PUSH1 0x1 PUSH1 0x1 PUSH1 0xA0 SHL SUB SWAP7 DUP8 AND SWAP7 SWAP1 SWAP6 AND SWAP5 DUP2 SWAP1 PUSH2 0x30EE SWAP1 PUSH2 0x536D JUMP JUMPDEST DUP1 PUSH1 0x1F ADD PUSH1 0x20 DUP1 SWAP2 DIV MUL PUSH1 0x20 ADD PUSH1 0x40 MLOAD SWAP1 DUP2 ADD PUSH1 0x40 MSTORE DUP1 SWAP3 SWAP2 SWAP1 DUP2 DUP2 MSTORE PUSH1 0x20 ADD DUP3 DUP1 SLOAD PUSH2 0x311A SWAP1 PUSH2 0x536D JUMP JUMPDEST DUP1 ISZERO PUSH2 0x3165 JUMPI DUP1 PUSH1 0x1F LT PUSH2 0x313C JUMPI PUSH2 0x100 DUP1 DUP4 SLOAD DIV MUL DUP4 MSTORE SWAP2 PUSH1 0x20 ADD SWAP2 PUSH2 0x3165 JUMP JUMPDEST DUP3 ADD SWAP2 SWAP1 PUSH0 MSTORE PUSH1 0x20 PUSH0 KECCAK256 SWAP1 JUMPDEST DUP2 SLOAD DUP2 MSTORE SWAP1 PUSH1 0x1 ADD SWAP1 PUSH1 0x20 ADD DUP1 DUP4 GT PUSH2 0x3148 JUMPI DUP3 SWAP1 SUB PUSH1 0x1F AND DUP3 ADD SWAP2 JUMPDEST POP POP POP POP POP SWAP1 POP SWAP9 POP SWAP9 POP SWAP9 POP SWAP9 POP SWAP9 POP SWAP9 POP POP POP POP SWAP2 SWAP4 SWAP6 POP SWAP2 SWAP4 SWAP6 JUMP JUMPDEST PUSH0 PUSH0 PUSH1 0x60 DUP1 PUSH0 DUP6 PUSH0 DUP2 GT DUP1 ISZERO PUSH2 0x319C JUMPI POP PUSH1 0x1 SLOAD DUP2 GT ISZERO JUMPDEST PUSH2 0x31B8 JUMPI PUSH1 0x40 MLOAD PUSH3 0x461BCD PUSH1 0xE5 SHL DUP2 MSTORE PUSH1 0x4 ADD PUSH2 0x57E SWAP1 PUSH2 0x5277 JUMP JUMPDEST PUSH0 DUP8 DUP2 MSTORE PUSH1 0xF PUSH1 0x20 MSTORE PUSH1 0x40 SWAP1 KECCAK256 SLOAD DUP1 PUSH2 0x322A JUMPI PUSH1 0x40 MLOAD PUSH3 0x461BCD PUSH1 0xE5 SHL DUP2 MSTORE PUSH1 0x20 PUSH1 0x4 DUP3 ADD MSTORE PUSH1 0x2E PUSH1 0x24 DUP3 ADD MSTORE PUSH32 0x4D757368436861696E3A206E6F2064656C6976657279207265636F7264656420 PUSH1 0x44 DUP3 ADD MSTORE PUSH14 0xCCDEE440E8D0D2E640C4C2E8C6D PUSH1 0x93 SHL PUSH1 0x64 DUP3 ADD MSTORE PUSH1 0x84 ADD PUSH2 0x57E JUMP JUMPDEST PUSH0 DUP2 DUP2 MSTORE PUSH1 0xA PUSH1 0x20 MSTORE PUSH1 0x40 SWAP1 KECCAK256 PUSH1 0x2 DUP2 ADD SLOAD PUSH1 0x3 DUP3 ADD SLOAD PUSH1 0x4 DUP4 ADD SLOAD PUSH1 0x1 PUSH1 0x1 PUSH1 0xA0 SHL SUB SWAP1 SWAP3 AND SWAP2 PUSH2 0x325E SWAP1 PUSH1 0xFF AND PUSH2 0x4561 JUMP JUMPDEST DUP4 PUSH1 0x5 ADD DUP5 PUSH1 0x6 ADD SLOAD DUP2 DUP1 SLOAD PUSH2 0x3273 SWAP1 PUSH2 0x536D JUMP JUMPDEST DUP1 PUSH1 0x1F ADD PUSH1 0x20 DUP1 SWAP2 DIV MUL PUSH1 0x20 ADD PUSH1 0x40 MLOAD SWAP1 DUP2 ADD PUSH1 0x40 MSTORE DUP1 SWAP3 SWAP2 SWAP1 DUP2 DUP2 MSTORE PUSH1 0x20 ADD DUP3 DUP1 SLOAD PUSH2 0x329F SWAP1 PUSH2 0x536D JUMP JUMPDEST DUP1 ISZERO PUSH2 0x32EA JUMPI DUP1 PUSH1 0x1F LT PUSH2 0x32C1 JUMPI PUSH2 0x100 DUP1 DUP4 SLOAD DIV MUL DUP4 MSTORE SWAP2 PUSH1 0x20 ADD SWAP2 PUSH2 0x32EA JUMP JUMPDEST DUP3 ADD SWAP2 SWAP1 PUSH0 MSTORE PUSH1 0x20 PUSH0 KECCAK256 SWAP1 JUMPDEST DUP2 SLOAD DUP2 MSTORE SWAP1 PUSH1 0x1 ADD SWAP1 PUSH1 0x20 ADD DUP1 DUP4 GT PUSH2 0x32CD JUMPI DUP3 SWAP1 SUB PUSH1 0x1F AND DUP3 ADD SWAP2 JUMPDEST POP POP POP POP POP SWAP2 POP SWAP8 POP SWAP8 POP SWAP8 POP SWAP8 POP SWAP8 POP POP POP POP SWAP2 SWAP4 SWAP6 SWAP1 SWAP3 SWAP5 POP JUMP JUMPDEST DUP4 PUSH0 DUP2 GT DUP1 ISZERO PUSH2 0x3319 JUMPI POP PUSH1 0x1 SLOAD DUP2 GT ISZERO JUMPDEST PUSH2 0x3335 JUMPI PUSH1 0x40 MLOAD PUSH3 0x461BCD PUSH1 0xE5 SHL DUP2 MSTORE PUSH1 0x4 ADD PUSH2 0x57E SWAP1 PUSH2 0x5277 JUMP JUMPDEST PUSH1 0x5 DUP1 CALLER PUSH0 SWAP1 DUP2 MSTORE PUSH1 0x6 PUSH1 0x20 MSTORE PUSH1 0x40 SWAP1 KECCAK256 PUSH1 0x2 ADD SLOAD PUSH1 0xFF AND PUSH1 0x5 DUP2 GT ISZERO PUSH2 0x335E JUMPI PUSH2 0x335E PUSH2 0x487A JUMP JUMPDEST EQ PUSH2 0x337B JUMPI PUSH1 0x40 MLOAD PUSH3 0x461BCD PUSH1 0xE5 SHL DUP2 MSTORE PUSH1 0x4 ADD PUSH2 0x57E SWAP1 PUSH2 0x52AE JUMP JUMPDEST CALLER PUSH0 SWAP1 DUP2 MSTORE PUSH1 0x6 PUSH1 0x20 DUP2 SWAP1 MSTORE PUSH1 0x40 SWAP1 SWAP2 KECCAK256 ADD SLOAD PUSH1 0xFF AND PUSH2 0x33AD JUMPI PUSH1 0x40 MLOAD PUSH3 0x461BCD PUSH1 0xE5 SHL DUP2 MSTORE PUSH1 0x4 ADD PUSH2 0x57E SWAP1 PUSH2 0x52F7 JUMP JUMPDEST PUSH1 0x2 PUSH0 DUP8 DUP2 MSTORE PUSH1 0x7 PUSH1 0x20 MSTORE PUSH1 0x40 SWAP1 KECCAK256 PUSH1 0xA ADD SLOAD PUSH1 0xFF AND PUSH1 0x3 DUP2 GT ISZERO PUSH2 0x33D4 JUMPI PUSH2 0x33D4 PUSH2 0x487A JUMP JUMPDEST EQ PUSH2 0x3453 JUMPI PUSH1 0x40 MLOAD PUSH3 0x461BCD PUSH1 0xE5 SHL DUP2 MSTORE PUSH1 0x20 PUSH1 0x4 DUP3 ADD MSTORE PUSH1 0x43 PUSH1 0x24 DUP3 ADD MSTORE PUSH32 0x4D757368436861696E3A206261746368206D75737420626520496E5472616E73 PUSH1 0x44 DUP3 ADD MSTORE PUSH32 0x6974206265666F72652064656C69766572792063616E20626520636F6E666972 PUSH1 0x64 DUP3 ADD MSTORE PUSH3 0x1B5959 PUSH1 0xEA SHL PUSH1 0x84 DUP3 ADD MSTORE PUSH1 0xA4 ADD PUSH2 0x57E JUMP JUMPDEST PUSH1 0x3 DUP5 PUSH1 0xFF AND GT ISZERO PUSH2 0x34B2 JUMPI PUSH1 0x40 MLOAD PUSH3 0x461BCD PUSH1 0xE5 SHL DUP2 MSTORE PUSH1 0x20 PUSH1 0x4 DUP3 ADD MSTORE PUSH1 0x22 PUSH1 0x24 DUP3 ADD MSTORE PUSH32 0x4D757368436861696E3A20696E76616C696420636F6E646974696F6E2076616C PUSH1 0x44 DUP3 ADD MSTORE PUSH2 0x7565 PUSH1 0xF0 SHL PUSH1 0x64 DUP3 ADD MSTORE PUSH1 0x84 ADD PUSH2 0x57E JUMP JUMPDEST PUSH0 DUP6 GT PUSH2 0x3512 JUMPI PUSH1 0x40 MLOAD PUSH3 0x461BCD PUSH1 0xE5 SHL DUP2 MSTORE PUSH1 0x20 PUSH1 0x4 DUP3 ADD MSTORE PUSH1 0x28 PUSH1 0x24 DUP3 ADD MSTORE PUSH32 0x4D757368436861696E3A207175616E74697479207265636569766564206D7573 PUSH1 0x44 DUP3 ADD MSTORE PUSH8 0x74206265203E203 PUSH1 0xC4 SHL PUSH1 0x64 DUP3 ADD MSTORE PUSH1 0x84 ADD PUSH2 0x57E JUMP JUMPDEST PUSH0 DUP7 DUP2 MSTORE PUSH1 0xE PUSH1 0x20 MSTORE PUSH1 0x40 SWAP1 KECCAK256 SLOAD DUP1 ISZERO PUSH2 0x3543 JUMPI PUSH0 DUP2 DUP2 MSTORE PUSH1 0x9 PUSH1 0x20 DUP2 SWAP1 MSTORE PUSH1 0x40 SWAP1 SWAP2 KECCAK256 ADD DUP1 SLOAD PUSH1 0xFF NOT AND PUSH1 0x1 OR SWAP1 SSTORE JUMPDEST PUSH1 0x4 DUP1 SLOAD SWAP1 PUSH0 PUSH2 0x3552 DUP4 PUSH2 0x5355 JUMP JUMPDEST SWAP2 SWAP1 POP SSTORE POP PUSH1 0x40 MLOAD DUP1 PUSH1 0xE0 ADD PUSH1 0x40 MSTORE DUP1 PUSH1 0x4 SLOAD DUP2 MSTORE PUSH1 0x20 ADD DUP9 DUP2 MSTORE PUSH1 0x20 ADD CALLER PUSH1 0x1 PUSH1 0x1 PUSH1 0xA0 SHL SUB AND DUP2 MSTORE PUSH1 0x20 ADD DUP8 DUP2 MSTORE PUSH1 0x20 ADD DUP7 PUSH1 0xFF AND PUSH1 0x3 DUP2 GT ISZERO PUSH2 0x359A JUMPI PUSH2 0x359A PUSH2 0x487A JUMP JUMPDEST PUSH1 0x3 DUP2 GT ISZERO PUSH2 0x35AB JUMPI PUSH2 0x35AB PUSH2 0x487A JUMP JUMPDEST DUP2 MSTORE PUSH1 0x20 ADD DUP6 DUP2 MSTORE PUSH1 0x20 ADD TIMESTAMP DUP2 MSTORE POP PUSH1 0xA PUSH0 PUSH1 0x4 SLOAD DUP2 MSTORE PUSH1 0x20 ADD SWAP1 DUP2 MSTORE PUSH1 0x20 ADD PUSH0 KECCAK256 PUSH0 DUP3 ADD MLOAD DUP2 PUSH0 ADD SSTORE PUSH1 0x20 DUP3 ADD MLOAD DUP2 PUSH1 0x1 ADD SSTORE PUSH1 0x40 DUP3 ADD MLOAD DUP2 PUSH1 0x2 ADD PUSH0 PUSH2 0x100 EXP DUP2 SLOAD DUP2 PUSH1 0x1 PUSH1 0x1 PUSH1 0xA0 SHL SUB MUL NOT AND SWAP1 DUP4 PUSH1 0x1 PUSH1 0x1 PUSH1 0xA0 SHL SUB AND MUL OR SWAP1 SSTORE POP PUSH1 0x60 DUP3 ADD MLOAD DUP2 PUSH1 0x3 ADD SSTORE PUSH1 0x80 DUP3 ADD MLOAD DUP2 PUSH1 0x4 ADD PUSH0 PUSH2 0x100 EXP DUP2 SLOAD DUP2 PUSH1 0xFF MUL NOT AND SWAP1 DUP4 PUSH1 0x3 DUP2 GT ISZERO PUSH2 0x363E JUMPI PUSH2 0x363E PUSH2 0x487A JUMP JUMPDEST MUL OR SWAP1 SSTORE POP PUSH1 0xA0 DUP3 ADD MLOAD PUSH1 0x5 DUP3 ADD SWAP1 PUSH2 0x3657 SWAP1 DUP3 PUSH2 0x53F6 JUMP JUMPDEST POP PUSH1 0xC0 SWAP2 SWAP1 SWAP2 ADD MLOAD PUSH1 0x6 SWAP1 SWAP2 ADD SSTORE PUSH1 0x4 SLOAD PUSH0 DUP9 DUP2 MSTORE PUSH1 0xF PUSH1 0x20 SWAP1 DUP2 MSTORE PUSH1 0x40 DUP1 DUP4 KECCAK256 SWAP4 SWAP1 SWAP4 SSTORE PUSH1 0x7 SWAP1 MSTORE SWAP1 DUP2 KECCAK256 PUSH1 0xA ADD DUP1 SLOAD PUSH2 0x100 CALLER SWAP1 DUP2 MUL PUSH1 0x1 PUSH1 0x1 PUSH1 0xA8 SHL SUB NOT SWAP1 SWAP3 AND SWAP2 SWAP1 SWAP2 OR PUSH1 0x3 OR SWAP1 SWAP2 SSTORE PUSH2 0x36AE SWAP1 PUSH2 0x3B7D JUMP JUMPDEST PUSH2 0x36B7 DUP9 PUSH2 0x3F3D JUMP JUMPDEST PUSH2 0x36D4 DUP9 PUSH1 0xFF AND PUSH1 0x3 DUP2 GT ISZERO PUSH2 0x36CF JUMPI PUSH2 0x36CF PUSH2 0x487A JUMP JUMPDEST PUSH2 0x4561 JUMP JUMPDEST DUP8 PUSH1 0x40 MLOAD PUSH1 0x20 ADD PUSH2 0x36E8 SWAP5 SWAP4 SWAP3 SWAP2 SWAP1 PUSH2 0x5826 JUMP JUMPDEST PUSH1 0x40 MLOAD PUSH1 0x20 DUP2 DUP4 SUB SUB DUP2 MSTORE SWAP1 PUSH1 0x40 MSTORE SWAP1 POP PUSH2 0x374E DUP9 PUSH1 0x40 MLOAD DUP1 PUSH1 0x40 ADD PUSH1 0x40 MSTORE DUP1 PUSH1 0x12 DUP2 MSTORE PUSH1 0x20 ADD PUSH18 0x111153125591549657D0D3D3919254935151 PUSH1 0x72 SHL DUP2 MSTORE POP CALLER PUSH1 0x40 MLOAD DUP1 PUSH1 0x40 ADD PUSH1 0x40 MSTORE DUP1 PUSH1 0x6 DUP2 MSTORE PUSH1 0x20 ADD PUSH6 0x2B32B73237B9 PUSH1 0xD1 SHL DUP2 MSTORE POP DUP6 PUSH2 0x4044 JUMP JUMPDEST CALLER DUP9 PUSH32 0x513C33382F954A41081B15736A23F9E03A5C036BB9C25185ADECFE7F727A9004 PUSH1 0xFF DUP10 AND PUSH1 0x3 DUP2 GT ISZERO PUSH2 0x3786 JUMPI PUSH2 0x3786 PUSH2 0x487A JUMP JUMPDEST DUP11 TIMESTAMP PUSH1 0x40 MLOAD PUSH2 0x3797 SWAP4 SWAP3 SWAP2 SWAP1 PUSH2 0x58BF JUMP JUMPDEST PUSH1 0x40 MLOAD DUP1 SWAP2 SUB SWAP1 LOG3 POP POP POP POP POP POP POP POP JUMP JUMPDEST PUSH0 SLOAD PUSH1 0x1 PUSH1 0x1 PUSH1 0xA0 SHL SUB AND CALLER EQ PUSH2 0x37D2 JUMPI PUSH1 0x40 MLOAD PUSH3 0x461BCD PUSH1 0xE5 SHL DUP2 MSTORE PUSH1 0x4 ADD PUSH2 0x57E SWAP1 PUSH2 0x5235 JUMP JUMPDEST PUSH1 0x1 PUSH1 0x1 PUSH1 0xA0 SHL SUB DUP2 AND PUSH0 SWAP1 DUP2 MSTORE PUSH1 0x6 PUSH1 0x20 DUP2 SWAP1 MSTORE PUSH1 0x40 SWAP1 SWAP2 KECCAK256 ADD SLOAD PUSH1 0xFF AND PUSH2 0x383D JUMPI PUSH1 0x40 MLOAD PUSH3 0x461BCD PUSH1 0xE5 SHL DUP2 MSTORE PUSH1 0x20 PUSH1 0x4 DUP3 ADD MSTORE PUSH1 0x1B PUSH1 0x24 DUP3 ADD MSTORE PUSH32 0x4D757368436861696E3A20616C726561647920696E6163746976650000000000 PUSH1 0x44 DUP3 ADD MSTORE PUSH1 0x64 ADD PUSH2 0x57E JUMP JUMPDEST PUSH1 0x1 PUSH1 0x1 PUSH1 0xA0 SHL SUB AND PUSH0 SWAP1 DUP2 MSTORE PUSH1 0x6 PUSH1 0x20 DUP2 SWAP1 MSTORE PUSH1 0x40 SWAP1 SWAP2 KECCAK256 ADD DUP1 SLOAD PUSH1 0xFF NOT AND SWAP1 SSTORE JUMP JUMPDEST PUSH1 0xC PUSH1 0x20 MSTORE DUP2 PUSH0 MSTORE PUSH1 0x40 PUSH0 KECCAK256 DUP2 DUP2 SLOAD DUP2 LT PUSH2 0x387A JUMPI PUSH0 DUP1 REVERT JUMPDEST SWAP1 PUSH0 MSTORE PUSH1 0x20 PUSH0 KECCAK256 ADD PUSH0 SWAP2 POP SWAP2 POP POP SLOAD DUP2 JUMP JUMPDEST PUSH1 0x60 PUSH1 0x10 DUP1 SLOAD DUP1 PUSH1 0x20 MUL PUSH1 0x20 ADD PUSH1 0x40 MLOAD SWAP1 DUP2 ADD PUSH1 0x40 MSTORE DUP1 SWAP3 SWAP2 SWAP1 DUP2 DUP2 MSTORE PUSH1 0x20 ADD DUP3 DUP1 SLOAD DUP1 ISZERO PUSH2 0x38D8 JUMPI PUSH1 0x20 MUL DUP3 ADD SWAP2 SWAP1 PUSH0 MSTORE PUSH1 0x20 PUSH0 KECCAK256 SWAP1 JUMPDEST DUP2 SLOAD DUP2 MSTORE PUSH1 0x20 ADD SWAP1 PUSH1 0x1 ADD SWAP1 DUP1 DUP4 GT PUSH2 0x38C4 JUMPI JUMPDEST POP POP POP POP POP SWAP1 POP SWAP1 JUMP JUMPDEST PUSH1 0xB PUSH1 0x20 MSTORE PUSH0 SWAP1 DUP2 MSTORE PUSH1 0x40 SWAP1 KECCAK256 DUP1 SLOAD PUSH1 0x1 DUP3 ADD SLOAD PUSH1 0x2 DUP4 ADD DUP1 SLOAD SWAP3 SWAP4 SWAP2 SWAP3 PUSH2 0x3909 SWAP1 PUSH2 0x536D JUMP JUMPDEST DUP1 PUSH1 0x1F ADD PUSH1 0x20 DUP1 SWAP2 DIV MUL PUSH1 0x20 ADD PUSH1 0x40 MLOAD SWAP1 DUP2 ADD PUSH1 0x40 MSTORE DUP1 SWAP3 SWAP2 SWAP1 DUP2 DUP2 MSTORE PUSH1 0x20 ADD DUP3 DUP1 SLOAD PUSH2 0x3935 SWAP1 PUSH2 0x536D JUMP JUMPDEST DUP1 ISZERO PUSH2 0x3980 JUMPI DUP1 PUSH1 0x1F LT PUSH2 0x3957 JUMPI PUSH2 0x100 DUP1 DUP4 SLOAD DIV MUL DUP4 MSTORE SWAP2 PUSH1 0x20 ADD SWAP2 PUSH2 0x3980 JUMP JUMPDEST DUP3 ADD SWAP2 SWAP1 PUSH0 MSTORE PUSH1 0x20 PUSH0 KECCAK256 SWAP1 JUMPDEST DUP2 SLOAD DUP2 MSTORE SWAP1 PUSH1 0x1 ADD SWAP1 PUSH1 0x20 ADD DUP1 DUP4 GT PUSH2 0x3963 JUMPI DUP3 SWAP1 SUB PUSH1 0x1F AND DUP3 ADD SWAP2 JUMPDEST POP POP POP PUSH1 0x3 DUP5 ADD SLOAD PUSH1 0x4 DUP6 ADD DUP1 SLOAD SWAP5 SWAP6 PUSH1 0x1 PUSH1 0x1 PUSH1 0xA0 SHL SUB SWAP1 SWAP3 AND SWAP5 SWAP2 SWAP4 POP SWAP2 POP PUSH2 0x39AA SWAP1 PUSH2 0x536D JUMP JUMPDEST DUP1 PUSH1 0x1F ADD PUSH1 0x20 DUP1 SWAP2 DIV MUL PUSH1 0x20 ADD PUSH1 0x40 MLOAD SWAP1 DUP2 ADD PUSH1 0x40 MSTORE DUP1 SWAP3 SWAP2 SWAP1 DUP2 DUP2 MSTORE PUSH1 0x20 ADD DUP3 DUP1 SLOAD PUSH2 0x39D6 SWAP1 PUSH2 0x536D JUMP JUMPDEST DUP1 ISZERO PUSH2 0x3A21 JUMPI DUP1 PUSH1 0x1F LT PUSH2 0x39F8 JUMPI PUSH2 0x100 DUP1 DUP4 SLOAD DIV MUL DUP4 MSTORE SWAP2 PUSH1 0x20 ADD SWAP2 PUSH2 0x3A21 JUMP JUMPDEST DUP3 ADD SWAP2 SWAP1 PUSH0 MSTORE PUSH1 0x20 PUSH0 KECCAK256 SWAP1 JUMPDEST DUP2 SLOAD DUP2 MSTORE SWAP1 PUSH1 0x1 ADD SWAP1 PUSH1 0x20 ADD DUP1 DUP4 GT PUSH2 0x3A04 JUMPI DUP3 SWAP1 SUB PUSH1 0x1F AND DUP3 ADD SWAP2 JUMPDEST POP POP POP POP POP SWAP1 DUP1 PUSH1 0x5 ADD DUP1 SLOAD PUSH2 0x281A SWAP1 PUSH2 0x536D JUMP JUMPDEST PUSH1 0x60 DUP2 PUSH0 DUP2 GT DUP1 ISZERO PUSH2 0x3A4A JUMPI POP PUSH1 0x1 SLOAD DUP2 GT ISZERO JUMPDEST PUSH2 0x3A66 JUMPI PUSH1 0x40 MLOAD PUSH3 0x461BCD PUSH1 0xE5 SHL DUP2 MSTORE PUSH1 0x4 ADD PUSH2 0x57E SWAP1 PUSH2 0x5277 JUMP JUMPDEST PUSH0 DUP4 DUP2 MSTORE PUSH1 0xC PUSH1 0x20 SWAP1 DUP2 MSTORE PUSH1 0x40 DUP1 DUP4 KECCAK256 DUP1 SLOAD PUSH1 0x7 SWAP1 SWAP4 MSTORE SWAP3 KECCAK256 PUSH1 0xA DUP2 ADD SLOAD PUSH1 0x1 DUP3 ADD SWAP1 PUSH2 0x3A95 SWAP1 PUSH1 0xFF AND PUSH2 0x4194 JUMP JUMPDEST PUSH2 0x3A9E DUP5 PUSH2 0x3F3D JUMP JUMPDEST PUSH1 0x40 MLOAD PUSH1 0x20 ADD PUSH2 0x3AB0 SWAP4 SWAP3 SWAP2 SWAP1 PUSH2 0x591B JUMP JUMPDEST PUSH1 0x40 DUP1 MLOAD PUSH1 0x1F NOT DUP2 DUP5 SUB ADD DUP2 MSTORE SWAP2 SWAP1 MSTORE SWAP5 POP PUSH0 JUMPDEST DUP3 DUP2 LT ISZERO PUSH2 0x3B73 JUMPI PUSH0 PUSH1 0xB PUSH0 DUP7 DUP5 DUP2 SLOAD DUP2 LT PUSH2 0x3AE2 JUMPI PUSH2 0x3AE2 PUSH2 0x563B JUMP JUMPDEST SWAP1 PUSH0 MSTORE PUSH1 0x20 PUSH0 KECCAK256 ADD SLOAD DUP2 MSTORE PUSH1 0x20 ADD SWAP1 DUP2 MSTORE PUSH1 0x20 ADD PUSH0 KECCAK256 SWAP1 POP DUP7 PUSH2 0x3B10 DUP4 PUSH1 0x1 PUSH2 0x3B0B SWAP2 SWAP1 PUSH2 0x573A JUMP JUMPDEST PUSH2 0x3F3D JUMP JUMPDEST PUSH1 0x3 DUP4 ADD SLOAD PUSH1 0x2 DUP5 ADD SWAP1 PUSH1 0x4 DUP6 ADD SWAP1 PUSH2 0x3B31 SWAP1 PUSH1 0x1 PUSH1 0x1 PUSH1 0xA0 SHL SUB AND PUSH2 0x3B7D JUMP JUMPDEST DUP6 PUSH1 0x5 ADD PUSH2 0x3B42 DUP8 PUSH1 0x6 ADD SLOAD PUSH2 0x3F3D JUMP JUMPDEST PUSH1 0x40 MLOAD PUSH1 0x20 ADD PUSH2 0x3B58 SWAP8 SWAP7 SWAP6 SWAP5 SWAP4 SWAP3 SWAP2 SWAP1 PUSH2 0x59DE JUMP JUMPDEST PUSH1 0x40 DUP1 MLOAD PUSH1 0x1F NOT DUP2 DUP5 SUB ADD DUP2 MSTORE SWAP2 SWAP1 MSTORE SWAP7 POP POP PUSH1 0x1 ADD PUSH2 0x3AC4 JUMP JUMPDEST POP POP POP POP POP SWAP2 SWAP1 POP JUMP JUMPDEST PUSH1 0x40 MLOAD PUSH1 0x60 DUP3 DUP2 SHL PUSH12 0xFFFFFFFFFFFFFFFFFFFFFFFF NOT AND PUSH1 0x20 DUP4 ADD MSTORE SWAP1 PUSH0 SWAP1 PUSH1 0x34 ADD PUSH1 0x40 DUP1 MLOAD DUP1 DUP4 SUB PUSH1 0x1F NOT ADD DUP2 MSTORE PUSH1 0xA DUP1 DUP5 MSTORE DUP4 DUP4 ADD SWAP1 SWAP3 MSTORE SWAP3 POP PUSH0 SWAP2 SWAP1 PUSH1 0x20 DUP3 ADD DUP2 DUP1 CALLDATASIZE DUP4 CALLDATACOPY ADD SWAP1 POP POP SWAP1 POP PUSH0 PUSH1 0x40 MLOAD DUP1 PUSH1 0x40 ADD PUSH1 0x40 MSTORE DUP1 PUSH1 0x10 DUP2 MSTORE PUSH1 0x20 ADD PUSH16 0x181899199A1A9B1B9C1CB0B131B232B3 PUSH1 0x81 SHL DUP2 MSTORE POP SWAP1 POP PUSH1 0x3 PUSH1 0xFC SHL DUP3 PUSH0 DUP2 MLOAD DUP2 LT PUSH2 0x3C0E JUMPI PUSH2 0x3C0E PUSH2 0x563B JUMP JUMPDEST PUSH1 0x20 ADD ADD SWAP1 PUSH1 0x1 PUSH1 0x1 PUSH1 0xF8 SHL SUB NOT AND SWAP1 DUP2 PUSH0 BYTE SWAP1 MSTORE8 POP PUSH1 0xF PUSH1 0xFB SHL DUP3 PUSH1 0x1 DUP2 MLOAD DUP2 LT PUSH2 0x3C3C JUMPI PUSH2 0x3C3C PUSH2 0x563B JUMP JUMPDEST PUSH1 0x20 ADD ADD SWAP1 PUSH1 0x1 PUSH1 0x1 PUSH1 0xF8 SHL SUB NOT AND SWAP1 DUP2 PUSH0 BYTE SWAP1 MSTORE8 POP DUP1 PUSH1 0x4 DUP5 PUSH0 DUP2 MLOAD DUP2 LT PUSH2 0x3C67 JUMPI PUSH2 0x3C67 PUSH2 0x563B JUMP JUMPDEST ADD PUSH1 0x20 ADD MLOAD DUP3 MLOAD PUSH1 0xF8 SWAP2 SWAP1 SWAP2 SHR SWAP1 SWAP2 SHR PUSH1 0xFF AND SWAP1 DUP2 LT PUSH2 0x3C89 JUMPI PUSH2 0x3C89 PUSH2 0x563B JUMP JUMPDEST PUSH1 0x20 ADD ADD MLOAD PUSH1 0xF8 SHR PUSH1 0xF8 SHL DUP3 PUSH1 0x2 DUP2 MLOAD DUP2 LT PUSH2 0x3CA7 JUMPI PUSH2 0x3CA7 PUSH2 0x563B JUMP JUMPDEST PUSH1 0x20 ADD ADD SWAP1 PUSH1 0x1 PUSH1 0x1 PUSH1 0xF8 SHL SUB NOT AND SWAP1 DUP2 PUSH0 BYTE SWAP1 MSTORE8 POP DUP1 DUP4 PUSH0 DUP2 MLOAD DUP2 LT PUSH2 0x3CD0 JUMPI PUSH2 0x3CD0 PUSH2 0x563B JUMP JUMPDEST PUSH1 0x20 ADD ADD MLOAD PUSH1 0xF8 SHR PUSH1 0xF8 SHL PUSH1 0xF8 SHR PUSH1 0xF AND PUSH1 0xFF AND DUP2 MLOAD DUP2 LT PUSH2 0x3CF4 JUMPI PUSH2 0x3CF4 PUSH2 0x563B JUMP JUMPDEST PUSH1 0x20 ADD ADD MLOAD PUSH1 0xF8 SHR PUSH1 0xF8 SHL DUP3 PUSH1 0x3 DUP2 MLOAD DUP2 LT PUSH2 0x3D12 JUMPI PUSH2 0x3D12 PUSH2 0x563B JUMP JUMPDEST PUSH1 0x20 ADD ADD SWAP1 PUSH1 0x1 PUSH1 0x1 PUSH1 0xF8 SHL SUB NOT AND SWAP1 DUP2 PUSH0 BYTE SWAP1 MSTORE8 POP DUP1 PUSH1 0x4 DUP5 PUSH1 0x1 DUP2 MLOAD DUP2 LT PUSH2 0x3D3E JUMPI PUSH2 0x3D3E PUSH2 0x563B JUMP JUMPDEST ADD PUSH1 0x20 ADD MLOAD DUP3 MLOAD PUSH1 0xF8 SWAP2 SWAP1 SWAP2 SHR SWAP1 SWAP2 SHR PUSH1 0xFF AND SWAP1 DUP2 LT PUSH2 0x3D60 JUMPI PUSH2 0x3D60 PUSH2 0x563B JUMP JUMPDEST PUSH1 0x20 ADD ADD MLOAD PUSH1 0xF8 SHR PUSH1 0xF8 SHL DUP3 PUSH1 0x4 DUP2 MLOAD DUP2 LT PUSH2 0x3D7E JUMPI PUSH2 0x3D7E PUSH2 0x563B JUMP JUMPDEST PUSH1 0x20 ADD ADD SWAP1 PUSH1 0x1 PUSH1 0x1 PUSH1 0xF8 SHL SUB NOT AND SWAP1 DUP2 PUSH0 BYTE SWAP1 MSTORE8 POP DUP1 DUP4 PUSH1 0x1 DUP2 MLOAD DUP2 LT PUSH2 0x3DA8 JUMPI PUSH2 0x3DA8 PUSH2 0x563B JUMP JUMPDEST PUSH1 0x20 ADD ADD MLOAD PUSH1 0xF8 SHR PUSH1 0xF8 SHL PUSH1 0xF8 SHR PUSH1 0xF AND PUSH1 0xFF AND DUP2 MLOAD DUP2 LT PUSH2 0x3DCC JUMPI PUSH2 0x3DCC PUSH2 0x563B JUMP JUMPDEST PUSH1 0x20 ADD ADD MLOAD PUSH1 0xF8 SHR PUSH1 0xF8 SHL DUP3 PUSH1 0x5 DUP2 MLOAD DUP2 LT PUSH2 0x3DEA JUMPI PUSH2 0x3DEA PUSH2 0x563B JUMP JUMPDEST PUSH1 0x20 ADD ADD SWAP1 PUSH1 0x1 PUSH1 0x1 PUSH1 0xF8 SHL SUB NOT AND SWAP1 DUP2 PUSH0 BYTE SWAP1 MSTORE8 POP PUSH1 0x17 PUSH1 0xF9 SHL DUP3 PUSH1 0x6 DUP2 MLOAD DUP2 LT PUSH2 0x3E18 JUMPI PUSH2 0x3E18 PUSH2 0x563B JUMP JUMPDEST PUSH1 0x20 ADD ADD SWAP1 PUSH1 0x1 PUSH1 0x1 PUSH1 0xF8 SHL SUB NOT AND SWAP1 DUP2 PUSH0 BYTE SWAP1 MSTORE8 POP PUSH1 0x17 PUSH1 0xF9 SHL DUP3 PUSH1 0x7 DUP2 MLOAD DUP2 LT PUSH2 0x3E46 JUMPI PUSH2 0x3E46 PUSH2 0x563B JUMP JUMPDEST PUSH1 0x20 ADD ADD SWAP1 PUSH1 0x1 PUSH1 0x1 PUSH1 0xF8 SHL SUB NOT AND SWAP1 DUP2 PUSH0 BYTE SWAP1 MSTORE8 POP DUP1 PUSH1 0x4 DUP5 PUSH1 0x13 DUP2 MLOAD DUP2 LT PUSH2 0x3E72 JUMPI PUSH2 0x3E72 PUSH2 0x563B JUMP JUMPDEST ADD PUSH1 0x20 ADD MLOAD DUP3 MLOAD PUSH1 0xF8 SWAP2 SWAP1 SWAP2 SHR SWAP1 SWAP2 SHR PUSH1 0xFF AND SWAP1 DUP2 LT PUSH2 0x3E94 JUMPI PUSH2 0x3E94 PUSH2 0x563B JUMP JUMPDEST PUSH1 0x20 ADD ADD MLOAD PUSH1 0xF8 SHR PUSH1 0xF8 SHL DUP3 PUSH1 0x8 DUP2 MLOAD DUP2 LT PUSH2 0x3EB2 JUMPI PUSH2 0x3EB2 PUSH2 0x563B JUMP JUMPDEST PUSH1 0x20 ADD ADD SWAP1 PUSH1 0x1 PUSH1 0x1 PUSH1 0xF8 SHL SUB NOT AND SWAP1 DUP2 PUSH0 BYTE SWAP1 MSTORE8 POP DUP1 DUP4 PUSH1 0x13 DUP2 MLOAD DUP2 LT PUSH2 0x3EDC JUMPI PUSH2 0x3EDC PUSH2 0x563B JUMP JUMPDEST PUSH1 0x20 ADD ADD MLOAD PUSH1 0xF8 SHR PUSH1 0xF8 SHL PUSH1 0xF8 SHR PUSH1 0xF AND PUSH1 0xFF AND DUP2 MLOAD DUP2 LT PUSH2 0x3F00 JUMPI PUSH2 0x3F00 PUSH2 0x563B JUMP JUMPDEST PUSH1 0x20 ADD ADD MLOAD PUSH1 0xF8 SHR PUSH1 0xF8 SHL DUP3 PUSH1 0x9 DUP2 MLOAD DUP2 LT PUSH2 0x3F1E JUMPI PUSH2 0x3F1E PUSH2 0x563B JUMP JUMPDEST PUSH1 0x20 ADD ADD SWAP1 PUSH1 0x1 PUSH1 0x1 PUSH1 0xF8 SHL SUB NOT AND SWAP1 DUP2 PUSH0 BYTE SWAP1 MSTORE8 POP SWAP1 SWAP5 SWAP4 POP POP POP POP JUMP JUMPDEST PUSH1 0x60 DUP2 PUSH0 SUB PUSH2 0x3F63 JUMPI POP POP PUSH1 0x40 DUP1 MLOAD DUP1 DUP3 ADD SWAP1 SWAP2 MSTORE PUSH1 0x1 DUP2 MSTORE PUSH1 0x3 PUSH1 0xFC SHL PUSH1 0x20 DUP3 ADD MSTORE SWAP1 JUMP JUMPDEST DUP2 PUSH0 JUMPDEST DUP2 ISZERO PUSH2 0x3F8C JUMPI DUP1 PUSH2 0x3F76 DUP2 PUSH2 0x5355 JUMP JUMPDEST SWAP2 POP PUSH2 0x3F85 SWAP1 POP PUSH1 0xA DUP4 PUSH2 0x5B44 JUMP JUMPDEST SWAP2 POP PUSH2 0x3F66 JUMP JUMPDEST PUSH0 DUP2 PUSH1 0x1 PUSH1 0x1 PUSH1 0x40 SHL SUB DUP2 GT ISZERO PUSH2 0x3FA5 JUMPI PUSH2 0x3FA5 PUSH2 0x4753 JUMP JUMPDEST PUSH1 0x40 MLOAD SWAP1 DUP1 DUP3 MSTORE DUP1 PUSH1 0x1F ADD PUSH1 0x1F NOT AND PUSH1 0x20 ADD DUP3 ADD PUSH1 0x40 MSTORE DUP1 ISZERO PUSH2 0x3FCF JUMPI PUSH1 0x20 DUP3 ADD DUP2 DUP1 CALLDATASIZE DUP4 CALLDATACOPY ADD SWAP1 POP JUMPDEST POP SWAP1 POP DUP2 JUMPDEST DUP6 ISZERO PUSH2 0x403B JUMPI DUP1 PUSH2 0x3FE4 DUP2 PUSH2 0x5B57 JUMP JUMPDEST SWAP2 POP PUSH2 0x3FF3 SWAP1 POP PUSH1 0xA DUP8 PUSH2 0x5B6C JUMP JUMPDEST PUSH2 0x3FFE SWAP1 PUSH1 0x30 PUSH2 0x573A JUMP JUMPDEST PUSH1 0xF8 SHL DUP3 DUP3 DUP2 MLOAD DUP2 LT PUSH2 0x4013 JUMPI PUSH2 0x4013 PUSH2 0x563B JUMP JUMPDEST PUSH1 0x20 ADD ADD SWAP1 PUSH1 0x1 PUSH1 0x1 PUSH1 0xF8 SHL SUB NOT AND SWAP1 DUP2 PUSH0 BYTE SWAP1 MSTORE8 POP PUSH2 0x4034 PUSH1 0xA DUP8 PUSH2 0x5B44 JUMP JUMPDEST SWAP6 POP PUSH2 0x3FD4 JUMP JUMPDEST POP SWAP5 SWAP4 POP POP POP POP JUMP JUMPDEST PUSH1 0x5 DUP1 SLOAD SWAP1 PUSH0 PUSH2 0x4053 DUP4 PUSH2 0x5355 JUMP JUMPDEST SWAP1 SWAP2 SSTORE POP POP PUSH1 0x40 DUP1 MLOAD PUSH1 0xE0 DUP2 ADD DUP3 MSTORE PUSH1 0x5 SLOAD DUP1 DUP3 MSTORE PUSH1 0x20 DUP1 DUP4 ADD DUP10 DUP2 MSTORE DUP4 DUP6 ADD DUP10 DUP2 MSTORE PUSH1 0x1 PUSH1 0x1 PUSH1 0xA0 SHL SUB DUP10 AND PUSH1 0x60 DUP7 ADD MSTORE PUSH1 0x80 DUP6 ADD DUP9 SWAP1 MSTORE PUSH1 0xA0 DUP6 ADD DUP8 SWAP1 MSTORE TIMESTAMP PUSH1 0xC0 DUP7 ADD MSTORE PUSH0 SWAP4 DUP5 MSTORE PUSH1 0xB SWAP1 SWAP3 MSTORE SWAP4 SWAP1 SWAP2 KECCAK256 DUP3 MLOAD DUP2 SSTORE SWAP3 MLOAD PUSH1 0x1 DUP5 ADD SSTORE MLOAD SWAP1 SWAP2 SWAP1 PUSH1 0x2 DUP3 ADD SWAP1 PUSH2 0x40C4 SWAP1 DUP3 PUSH2 0x53F6 JUMP JUMPDEST POP PUSH1 0x60 DUP3 ADD MLOAD PUSH1 0x3 DUP3 ADD DUP1 SLOAD PUSH1 0x1 PUSH1 0x1 PUSH1 0xA0 SHL SUB NOT AND PUSH1 0x1 PUSH1 0x1 PUSH1 0xA0 SHL SUB SWAP1 SWAP3 AND SWAP2 SWAP1 SWAP2 OR SWAP1 SSTORE PUSH1 0x80 DUP3 ADD MLOAD PUSH1 0x4 DUP3 ADD SWAP1 PUSH2 0x40FF SWAP1 DUP3 PUSH2 0x53F6 JUMP JUMPDEST POP PUSH1 0xA0 DUP3 ADD MLOAD PUSH1 0x5 DUP3 ADD SWAP1 PUSH2 0x4114 SWAP1 DUP3 PUSH2 0x53F6 JUMP JUMPDEST POP PUSH1 0xC0 SWAP2 SWAP1 SWAP2 ADD MLOAD PUSH1 0x6 SWAP1 SWAP2 ADD SSTORE PUSH0 DUP6 DUP2 MSTORE PUSH1 0xC PUSH1 0x20 SWAP1 DUP2 MSTORE PUSH1 0x40 DUP1 DUP4 KECCAK256 PUSH1 0x5 SLOAD DUP2 SLOAD PUSH1 0x1 DUP2 ADD DUP4 SSTORE SWAP2 DUP6 MSTORE SWAP3 SWAP1 SWAP4 KECCAK256 SWAP1 SWAP3 ADD SSTORE MLOAD PUSH1 0x1 PUSH1 0x1 PUSH1 0xA0 SHL SUB DUP5 AND SWAP1 DUP7 SWAP1 PUSH32 0x10042177C88ECA7FFBB15CA8D2BCA496FA73815200CE7E2E99F24CD5946BB546 SWAP1 PUSH2 0x4185 SWAP1 DUP9 SWAP1 TIMESTAMP SWAP1 PUSH2 0x5B7F JUMP JUMPDEST PUSH1 0x40 MLOAD DUP1 SWAP2 SUB SWAP1 LOG3 POP POP POP POP POP JUMP JUMPDEST PUSH1 0x60 PUSH0 DUP3 PUSH1 0x3 DUP2 GT ISZERO PUSH2 0x41A9 JUMPI PUSH2 0x41A9 PUSH2 0x487A JUMP JUMPDEST SUB PUSH2 0x41DE JUMPI POP POP PUSH1 0x40 DUP1 MLOAD DUP1 DUP3 ADD SWAP1 SWAP2 MSTORE PUSH1 0x14 DUP2 MSTORE PUSH20 0x5265676973746572656420284174204661726D29 PUSH1 0x60 SHL PUSH1 0x20 DUP3 ADD MSTORE SWAP1 JUMP JUMPDEST PUSH1 0x1 DUP3 PUSH1 0x3 DUP2 GT ISZERO PUSH2 0x41F2 JUMPI PUSH2 0x41F2 PUSH2 0x487A JUMP JUMPDEST SUB PUSH2 0x4228 JUMPI POP POP PUSH1 0x40 DUP1 MLOAD DUP1 DUP3 ADD SWAP1 SWAP2 MSTORE PUSH1 0x15 DUP2 MSTORE PUSH21 0x2A3930B739B332B93932B2103A37902A3930B232B9 PUSH1 0x59 SHL PUSH1 0x20 DUP3 ADD MSTORE SWAP1 JUMP JUMPDEST PUSH1 0x2 DUP3 PUSH1 0x3 DUP2 GT ISZERO PUSH2 0x423C JUMPI PUSH2 0x423C PUSH2 0x487A JUMP JUMPDEST SUB PUSH2 0x4267 JUMPI POP POP PUSH1 0x40 DUP1 MLOAD DUP1 DUP3 ADD SWAP1 SWAP2 MSTORE PUSH1 0xA DUP2 MSTORE PUSH10 0x125B88151C985B9CDA5D PUSH1 0xB2 SHL PUSH1 0x20 DUP3 ADD MSTORE SWAP1 JUMP JUMPDEST PUSH1 0x40 MLOAD DUP1 PUSH1 0x60 ADD PUSH1 0x40 MSTORE DUP1 PUSH1 0x22 DUP2 MSTORE PUSH1 0x20 ADD PUSH2 0x5BDB PUSH1 0x22 SWAP2 CODECOPY SWAP3 SWAP2 POP POP JUMP JUMPDEST PUSH1 0x60 PUSH0 DUP3 PUSH1 0x4 DUP2 GT ISZERO PUSH2 0x429B JUMPI PUSH2 0x429B PUSH2 0x487A JUMP JUMPDEST SUB PUSH2 0x42D9 JUMPI POP POP PUSH1 0x40 DUP1 MLOAD DUP1 DUP3 ADD SWAP1 SWAP2 MSTORE PUSH1 0x1C DUP2 MSTORE PUSH32 0x4F79737465722028506C6575726F747573206F73747265617475732900000000 PUSH1 0x20 DUP3 ADD MSTORE SWAP1 JUMP JUMPDEST PUSH1 0x1 DUP3 PUSH1 0x4 DUP2 GT ISZERO PUSH2 0x42ED JUMPI PUSH2 0x42ED PUSH2 0x487A JUMP JUMPDEST SUB PUSH2 0x432B JUMPI POP POP PUSH1 0x40 DUP1 MLOAD DUP1 DUP3 ADD SWAP1 SWAP2 MSTORE PUSH1 0x1B DUP2 MSTORE PUSH32 0x5368696974616B6520284C656E74696E756C612065646F646573290000000000 PUSH1 0x20 DUP3 ADD MSTORE SWAP1 JUMP JUMPDEST PUSH1 0x2 DUP3 PUSH1 0x4 DUP2 GT ISZERO PUSH2 0x433F JUMPI PUSH2 0x433F PUSH2 0x487A JUMP JUMPDEST SUB PUSH2 0x437D JUMPI POP POP PUSH1 0x40 DUP1 MLOAD DUP1 DUP3 ADD SWAP1 SWAP2 MSTORE PUSH1 0x1A DUP2 MSTORE PUSH32 0x427574746F6E2028416761726963757320626973706F72757329000000000000 PUSH1 0x20 DUP3 ADD MSTORE SWAP1 JUMP JUMPDEST PUSH1 0x3 DUP3 PUSH1 0x4 DUP2 GT ISZERO PUSH2 0x4391 JUMPI PUSH2 0x4391 PUSH2 0x487A JUMP JUMPDEST SUB PUSH2 0x43B8 JUMPI POP POP PUSH1 0x40 DUP1 MLOAD DUP1 DUP3 ADD SWAP1 SWAP2 MSTORE PUSH1 0x6 DUP2 MSTORE PUSH6 0x526569736869 PUSH1 0xD0 SHL PUSH1 0x20 DUP3 ADD MSTORE SWAP1 JUMP JUMPDEST POP POP PUSH1 0x40 DUP1 MLOAD DUP1 DUP3 ADD SWAP1 SWAP2 MSTORE PUSH1 0xB DUP2 MSTORE PUSH11 0x4C696F6E2773204D616E65 PUSH1 0xA8 SHL PUSH1 0x20 DUP3 ADD MSTORE SWAP1 JUMP JUMPDEST PUSH1 0x60 PUSH1 0x1 DUP3 PUSH1 0x5 DUP2 GT ISZERO PUSH2 0x43F5 JUMPI PUSH2 0x43F5 PUSH2 0x487A JUMP JUMPDEST SUB PUSH2 0x441B JUMPI POP POP PUSH1 0x40 DUP1 MLOAD DUP1 DUP3 ADD SWAP1 SWAP2 MSTORE PUSH1 0x5 DUP2 MSTORE PUSH5 0x20B236B4B7 PUSH1 0xD9 SHL PUSH1 0x20 DUP3 ADD MSTORE SWAP1 JUMP JUMPDEST PUSH1 0x2 DUP3 PUSH1 0x5 DUP2 GT ISZERO PUSH2 0x442F JUMPI PUSH2 0x442F PUSH2 0x487A JUMP JUMPDEST SUB PUSH2 0x4456 JUMPI POP POP PUSH1 0x40 DUP1 MLOAD DUP1 DUP3 ADD SWAP1 SWAP2 MSTORE PUSH1 0x6 DUP2 MSTORE PUSH6 0x2330B936B2B9 PUSH1 0xD1 SHL PUSH1 0x20 DUP3 ADD MSTORE SWAP1 JUMP JUMPDEST PUSH1 0x3 DUP3 PUSH1 0x5 DUP2 GT ISZERO PUSH2 0x446A JUMPI PUSH2 0x446A PUSH2 0x487A JUMP JUMPDEST SUB PUSH2 0x4491 JUMPI POP POP PUSH1 0x40 DUP1 MLOAD DUP1 DUP3 ADD SWAP1 SWAP2 MSTORE PUSH1 0x6 DUP2 MSTORE PUSH6 0x2A3930B232B9 PUSH1 0xD1 SHL PUSH1 0x20 DUP3 ADD MSTORE SWAP1 JUMP JUMPDEST PUSH1 0x4 DUP3 PUSH1 0x5 DUP2 GT ISZERO PUSH2 0x44A5 JUMPI PUSH2 0x44A5 PUSH2 0x487A JUMP JUMPDEST SUB PUSH2 0x44D1 JUMPI POP POP PUSH1 0x40 DUP1 MLOAD DUP1 DUP3 ADD SWAP1 SWAP2 MSTORE PUSH1 0xB DUP2 MSTORE PUSH11 0x2A3930B739B837B93A32B9 PUSH1 0xA9 SHL PUSH1 0x20 DUP3 ADD MSTORE SWAP1 JUMP JUMPDEST PUSH1 0x5 DUP3 PUSH1 0x5 DUP2 GT ISZERO PUSH2 0x44E5 JUMPI PUSH2 0x44E5 PUSH2 0x487A JUMP JUMPDEST SUB PUSH2 0x450C JUMPI POP POP PUSH1 0x40 DUP1 MLOAD DUP1 DUP3 ADD SWAP1 SWAP2 MSTORE PUSH1 0x6 DUP2 MSTORE PUSH6 0x2B32B73237B9 PUSH1 0xD1 SHL PUSH1 0x20 DUP3 ADD MSTORE SWAP1 JUMP JUMPDEST POP POP PUSH1 0x40 DUP1 MLOAD DUP1 DUP3 ADD SWAP1 SWAP2 MSTORE PUSH1 0x4 DUP2 MSTORE PUSH4 0x4E6F6E65 PUSH1 0xE0 SHL PUSH1 0x20 DUP3 ADD MSTORE SWAP1 JUMP JUMPDEST PUSH1 0x60 PUSH2 0x7EA PUSH2 0x453A DUP4 PUSH2 0x4631 JUMP JUMPDEST PUSH1 0x40 MLOAD PUSH1 0x20 ADD PUSH2 0x454A SWAP2 SWAP1 PUSH2 0x5BA0 JUMP JUMPDEST PUSH1 0x40 MLOAD PUSH1 0x20 DUP2 DUP4 SUB SUB DUP2 MSTORE SWAP1 PUSH1 0x40 MSTORE SWAP2 POP POP SWAP2 SWAP1 POP JUMP JUMPDEST PUSH1 0x60 PUSH0 DUP3 PUSH1 0x3 DUP2 GT ISZERO PUSH2 0x4576 JUMPI PUSH2 0x4576 PUSH2 0x487A JUMP JUMPDEST SUB PUSH2 0x459C JUMPI POP POP PUSH1 0x40 DUP1 MLOAD DUP1 DUP3 ADD SWAP1 SWAP2 MSTORE PUSH1 0x5 DUP2 MSTORE PUSH5 0x8CE4CAE6D PUSH1 0xDB SHL PUSH1 0x20 DUP3 ADD MSTORE SWAP1 JUMP JUMPDEST PUSH1 0x1 DUP3 PUSH1 0x3 DUP2 GT ISZERO PUSH2 0x45B0 JUMPI PUSH2 0x45B0 PUSH2 0x487A JUMP JUMPDEST SUB PUSH2 0x45D5 JUMPI POP POP PUSH1 0x40 DUP1 MLOAD DUP1 DUP3 ADD SWAP1 SWAP2 MSTORE PUSH1 0x4 DUP2 MSTORE PUSH4 0x11DBDBD9 PUSH1 0xE2 SHL PUSH1 0x20 DUP3 ADD MSTORE SWAP1 JUMP JUMPDEST PUSH1 0x2 DUP3 PUSH1 0x3 DUP2 GT ISZERO PUSH2 0x45E9 JUMPI PUSH2 0x45E9 PUSH2 0x487A JUMP JUMPDEST SUB PUSH2 0x460E JUMPI POP POP PUSH1 0x40 DUP1 MLOAD DUP1 DUP3 ADD SWAP1 SWAP2 MSTORE PUSH1 0x4 DUP2 MSTORE PUSH4 0x2330B4B9 PUSH1 0xE1 SHL PUSH1 0x20 DUP3 ADD MSTORE SWAP1 JUMP JUMPDEST POP POP PUSH1 0x40 DUP1 MLOAD DUP1 DUP3 ADD SWAP1 SWAP2 MSTORE PUSH1 0x7 DUP2 MSTORE PUSH7 0x11185B5859D959 PUSH1 0xCA SHL PUSH1 0x20 DUP3 ADD MSTORE SWAP1 JUMP JUMPDEST PUSH1 0x60 PUSH0 PUSH2 0x463D DUP4 PUSH2 0x3F3D JUMP JUMPDEST DUP1 MLOAD PUSH1 0x40 DUP1 MLOAD PUSH1 0x20 DUP2 ADD SWAP1 SWAP2 MSTORE PUSH0 DUP2 MSTORE SWAP2 SWAP3 POP SWAP1 PUSH1 0x1 DUP3 SWAP1 SUB PUSH2 0x467B JUMPI POP PUSH1 0x40 DUP1 MLOAD DUP1 DUP3 ADD SWAP1 SWAP2 MSTORE PUSH1 0x4 DUP2 MSTORE PUSH4 0x3030303 PUSH1 0xE4 SHL PUSH1 0x20 DUP3 ADD MSTORE PUSH2 0x46EC JUMP JUMPDEST DUP2 PUSH1 0x2 SUB PUSH2 0x46A3 JUMPI POP PUSH1 0x40 DUP1 MLOAD DUP1 DUP3 ADD SWAP1 SWAP2 MSTORE PUSH1 0x3 DUP2 MSTORE PUSH3 0x30303 PUSH1 0xEC SHL PUSH1 0x20 DUP3 ADD MSTORE PUSH2 0x46EC JUMP JUMPDEST DUP2 PUSH1 0x3 SUB PUSH2 0x46CA JUMPI POP PUSH1 0x40 DUP1 MLOAD DUP1 DUP3 ADD SWAP1 SWAP2 MSTORE PUSH1 0x2 DUP2 MSTORE PUSH2 0x303 PUSH1 0xF4 SHL PUSH1 0x20 DUP3 ADD MSTORE PUSH2 0x46EC JUMP JUMPDEST DUP2 PUSH1 0x4 SUB PUSH2 0x46EC JUMPI POP PUSH1 0x40 DUP1 MLOAD DUP1 DUP3 ADD SWAP1 SWAP2 MSTORE PUSH1 0x1 DUP2 MSTORE PUSH1 0x3 PUSH1 0xFC SHL PUSH1 0x20 DUP3 ADD MSTORE JUMPDEST DUP1 DUP4 PUSH1 0x40 MLOAD PUSH1 0x20 ADD PUSH2 0x46FF SWAP3 SWAP2 SWAP1 PUSH2 0x5BBE JUMP JUMPDEST PUSH1 0x40 MLOAD PUSH1 0x20 DUP2 DUP4 SUB SUB DUP2 MSTORE SWAP1 PUSH1 0x40 MSTORE SWAP4 POP POP POP POP SWAP2 SWAP1 POP JUMP JUMPDEST DUP1 CALLDATALOAD PUSH1 0x1 PUSH1 0x1 PUSH1 0xA0 SHL SUB DUP2 AND DUP2 EQ PUSH2 0x472E JUMPI PUSH0 PUSH0 REVERT JUMPDEST SWAP2 SWAP1 POP JUMP JUMPDEST PUSH0 PUSH1 0x20 DUP3 DUP5 SUB SLT ISZERO PUSH2 0x4743 JUMPI PUSH0 PUSH0 REVERT JUMPDEST PUSH2 0x474C DUP3 PUSH2 0x4718 JUMP JUMPDEST SWAP4 SWAP3 POP POP POP JUMP JUMPDEST PUSH4 0x4E487B71 PUSH1 0xE0 SHL PUSH0 MSTORE PUSH1 0x41 PUSH1 0x4 MSTORE PUSH1 0x24 PUSH0 REVERT JUMPDEST PUSH0 DUP3 PUSH1 0x1F DUP4 ADD SLT PUSH2 0x4776 JUMPI PUSH0 PUSH0 REVERT JUMPDEST DUP2 CALLDATALOAD PUSH1 0x1 PUSH1 0x1 PUSH1 0x40 SHL SUB DUP2 GT ISZERO PUSH2 0x478F JUMPI PUSH2 0x478F PUSH2 0x4753 JUMP JUMPDEST PUSH1 0x40 MLOAD PUSH1 0x1F DUP3 ADD PUSH1 0x1F NOT SWAP1 DUP2 AND PUSH1 0x3F ADD AND DUP2 ADD PUSH1 0x1 PUSH1 0x1 PUSH1 0x40 SHL SUB DUP2 GT DUP3 DUP3 LT OR ISZERO PUSH2 0x47BD JUMPI PUSH2 0x47BD PUSH2 0x4753 JUMP JUMPDEST PUSH1 0x40 MSTORE DUP2 DUP2 MSTORE DUP4 DUP3 ADD PUSH1 0x20 ADD DUP6 LT ISZERO PUSH2 0x47D4 JUMPI PUSH0 PUSH0 REVERT JUMPDEST DUP2 PUSH1 0x20 DUP6 ADD PUSH1 0x20 DUP4 ADD CALLDATACOPY PUSH0 SWAP2 DUP2 ADD PUSH1 0x20 ADD SWAP2 SWAP1 SWAP2 MSTORE SWAP4 SWAP3 POP POP POP JUMP JUMPDEST PUSH0 PUSH0 PUSH0 PUSH0 PUSH1 0x80 DUP6 DUP8 SUB SLT ISZERO PUSH2 0x4803 JUMPI PUSH0 PUSH0 REVERT JUMPDEST DUP5 CALLDATALOAD SWAP4 POP PUSH2 0x4813 PUSH1 0x20 DUP7 ADD PUSH2 0x4718 JUMP JUMPDEST SWAP3 POP PUSH1 0x40 DUP6 ADD CALLDATALOAD SWAP2 POP PUSH1 0x60 DUP6 ADD CALLDATALOAD PUSH1 0x1 PUSH1 0x1 PUSH1 0x40 SHL SUB DUP2 GT ISZERO PUSH2 0x4834 JUMPI PUSH0 PUSH0 REVERT JUMPDEST PUSH2 0x4840 DUP8 DUP3 DUP9 ADD PUSH2 0x4767 JUMP JUMPDEST SWAP2 POP POP SWAP3 SWAP6 SWAP2 SWAP5 POP SWAP3 POP JUMP JUMPDEST PUSH0 DUP2 MLOAD DUP1 DUP5 MSTORE DUP1 PUSH1 0x20 DUP5 ADD PUSH1 0x20 DUP7 ADD MCOPY PUSH0 PUSH1 0x20 DUP3 DUP7 ADD ADD MSTORE PUSH1 0x20 PUSH1 0x1F NOT PUSH1 0x1F DUP4 ADD AND DUP6 ADD ADD SWAP2 POP POP SWAP3 SWAP2 POP POP JUMP JUMPDEST PUSH4 0x4E487B71 PUSH1 0xE0 SHL PUSH0 MSTORE PUSH1 0x21 PUSH1 0x4 MSTORE PUSH1 0x24 PUSH0 REVERT JUMPDEST PUSH1 0x6 DUP2 LT PUSH2 0x489E JUMPI PUSH2 0x489E PUSH2 0x487A JUMP JUMPDEST SWAP1 MSTORE JUMP JUMPDEST PUSH1 0x1 PUSH1 0x1 PUSH1 0xA0 SHL SUB DUP10 AND DUP2 MSTORE PUSH2 0x100 PUSH1 0x20 DUP3 ADD DUP2 SWAP1 MSTORE PUSH0 SWAP1 PUSH2 0x48C6 SWAP1 DUP4 ADD DUP11 PUSH2 0x484C JUMP JUMPDEST PUSH2 0x48D3 PUSH1 0x40 DUP5 ADD DUP11 PUSH2 0x488E JUMP JUMPDEST DUP3 DUP2 SUB PUSH1 0x60 DUP5 ADD MSTORE PUSH2 0x48E5 DUP2 DUP10 PUSH2 0x484C JUMP JUMPDEST SWAP1 POP DUP3 DUP2 SUB PUSH1 0x80 DUP5 ADD MSTORE PUSH2 0x48F9 DUP2 DUP9 PUSH2 0x484C JUMP JUMPDEST SWAP1 POP DUP3 DUP2 SUB PUSH1 0xA0 DUP5 ADD MSTORE PUSH2 0x490D DUP2 DUP8 PUSH2 0x484C JUMP JUMPDEST SWAP5 ISZERO ISZERO PUSH1 0xC0 DUP5 ADD MSTORE POP POP PUSH1 0xE0 ADD MSTORE SWAP7 SWAP6 POP POP POP POP POP POP JUMP JUMPDEST PUSH0 PUSH1 0x20 DUP3 DUP5 SUB SLT ISZERO PUSH2 0x4935 JUMPI PUSH0 PUSH0 REVERT JUMPDEST POP CALLDATALOAD SWAP2 SWAP1 POP JUMP JUMPDEST DUP12 DUP2 MSTORE DUP11 PUSH1 0x20 DUP3 ADD MSTORE PUSH1 0x1 DUP1 PUSH1 0xA0 SHL SUB DUP11 AND PUSH1 0x40 DUP3 ADD MSTORE PUSH2 0x160 PUSH1 0x60 DUP3 ADD MSTORE PUSH0 PUSH2 0x496A PUSH2 0x160 DUP4 ADD DUP12 PUSH2 0x484C JUMP JUMPDEST DUP3 DUP2 SUB PUSH1 0x80 DUP5 ADD MSTORE PUSH2 0x497C DUP2 DUP12 PUSH2 0x484C JUMP JUMPDEST SWAP1 POP DUP3 DUP2 SUB PUSH1 0xA0 DUP5 ADD MSTORE PUSH2 0x4990 DUP2 DUP11 PUSH2 0x484C JUMP JUMPDEST SWAP1 POP DUP8 PUSH1 0xC0 DUP5 ADD MSTORE DUP7 PUSH1 0xE0 DUP5 ADD MSTORE DUP3 DUP2 SUB PUSH2 0x100 DUP5 ADD MSTORE PUSH2 0x49B1 DUP2 DUP8 PUSH2 0x484C JUMP JUMPDEST SWAP5 ISZERO ISZERO PUSH2 0x120 DUP5 ADD MSTORE POP POP PUSH2 0x140 ADD MSTORE SWAP10 SWAP9 POP POP POP POP POP POP POP POP POP JUMP JUMPDEST PUSH1 0x20 DUP2 MSTORE PUSH0 PUSH2 0x474C PUSH1 0x20 DUP4 ADD DUP5 PUSH2 0x484C JUMP JUMPDEST DUP1 CALLDATALOAD PUSH1 0xFF DUP2 AND DUP2 EQ PUSH2 0x472E JUMPI PUSH0 PUSH0 REVERT JUMPDEST PUSH0 PUSH0 PUSH0 PUSH0 PUSH0 PUSH0 PUSH1 0xC0 DUP8 DUP10 SUB SLT ISZERO PUSH2 0x4A05 JUMPI PUSH0 PUSH0 REVERT JUMPDEST PUSH2 0x4A0E DUP8 PUSH2 0x4718 JUMP JUMPDEST SWAP6 POP PUSH1 0x20 DUP8 ADD CALLDATALOAD PUSH1 0x1 PUSH1 0x1 PUSH1 0x40 SHL SUB DUP2 GT ISZERO PUSH2 0x4A28 JUMPI PUSH0 PUSH0 REVERT JUMPDEST PUSH2 0x4A34 DUP10 DUP3 DUP11 ADD PUSH2 0x4767 JUMP JUMPDEST SWAP6 POP POP PUSH2 0x4A43 PUSH1 0x40 DUP9 ADD PUSH2 0x49E0 JUMP JUMPDEST SWAP4 POP PUSH1 0x60 DUP8 ADD CALLDATALOAD PUSH1 0x1 PUSH1 0x1 PUSH1 0x40 SHL SUB DUP2 GT ISZERO PUSH2 0x4A5D JUMPI PUSH0 PUSH0 REVERT JUMPDEST PUSH2 0x4A69 DUP10 DUP3 DUP11 ADD PUSH2 0x4767 JUMP JUMPDEST SWAP4 POP POP PUSH1 0x80 DUP8 ADD CALLDATALOAD PUSH1 0x1 PUSH1 0x1 PUSH1 0x40 SHL SUB DUP2 GT ISZERO PUSH2 0x4A84 JUMPI PUSH0 PUSH0 REVERT JUMPDEST PUSH2 0x4A90 DUP10 DUP3 DUP11 ADD PUSH2 0x4767 JUMP JUMPDEST SWAP3 POP POP PUSH1 0xA0 DUP8 ADD CALLDATALOAD PUSH1 0x1 PUSH1 0x1 PUSH1 0x40 SHL SUB DUP2 GT ISZERO PUSH2 0x4AAB JUMPI PUSH0 PUSH0 REVERT JUMPDEST PUSH2 0x4AB7 DUP10 DUP3 DUP11 ADD PUSH2 0x4767 JUMP JUMPDEST SWAP2 POP POP SWAP3 SWAP6 POP SWAP3 SWAP6 POP SWAP3 SWAP6 JUMP JUMPDEST PUSH2 0x140 DUP2 MSTORE PUSH0 PUSH2 0x4AD8 PUSH2 0x140 DUP4 ADD DUP14 PUSH2 0x484C JUMP JUMPDEST DUP3 DUP2 SUB PUSH1 0x20 DUP5 ADD MSTORE PUSH2 0x4AEA DUP2 DUP14 PUSH2 0x484C JUMP JUMPDEST SWAP1 POP DUP11 PUSH1 0x40 DUP5 ADD MSTORE DUP3 DUP2 SUB PUSH1 0x60 DUP5 ADD MSTORE PUSH2 0x4B04 DUP2 DUP12 PUSH2 0x484C JUMP JUMPDEST SWAP1 POP DUP3 DUP2 SUB PUSH1 0x80 DUP5 ADD MSTORE PUSH2 0x4B18 DUP2 DUP11 PUSH2 0x484C JUMP JUMPDEST SWAP1 POP DUP3 DUP2 SUB PUSH1 0xA0 DUP5 ADD MSTORE PUSH2 0x4B2C DUP2 DUP10 PUSH2 0x484C JUMP JUMPDEST PUSH1 0x1 PUSH1 0x1 PUSH1 0xA0 SHL SUB SWAP8 DUP9 AND PUSH1 0xC0 DUP6 ADD MSTORE SWAP6 SWAP1 SWAP7 AND PUSH1 0xE0 DUP4 ADD MSTORE POP PUSH2 0x100 DUP2 ADD SWAP3 SWAP1 SWAP3 MSTORE PUSH2 0x120 SWAP1 SWAP2 ADD MSTORE SWAP8 SWAP7 POP POP POP POP POP POP POP JUMP JUMPDEST PUSH1 0xE0 DUP2 MSTORE PUSH0 PUSH2 0x4B73 PUSH1 0xE0 DUP4 ADD DUP11 PUSH2 0x484C JUMP JUMPDEST DUP3 DUP2 SUB PUSH1 0x20 DUP5 ADD MSTORE PUSH2 0x4B85 DUP2 DUP11 PUSH2 0x484C JUMP JUMPDEST SWAP1 POP DUP3 DUP2 SUB PUSH1 0x40 DUP5 ADD MSTORE PUSH2 0x4B99 DUP2 DUP10 PUSH2 0x484C JUMP JUMPDEST SWAP1 POP DUP3 DUP2 SUB PUSH1 0x60 DUP5 ADD MSTORE PUSH2 0x4BAD DUP2 DUP9 PUSH2 0x484C JUMP JUMPDEST SWAP1 POP DUP3 DUP2 SUB PUSH1 0x80 DUP5 ADD MSTORE PUSH2 0x4BC1 DUP2 DUP8 PUSH2 0x484C JUMP JUMPDEST SWAP5 ISZERO ISZERO PUSH1 0xA0 DUP5 ADD MSTORE POP POP PUSH1 0xC0 ADD MSTORE SWAP6 SWAP5 POP POP POP POP POP JUMP JUMPDEST PUSH0 DUP2 MLOAD DUP1 DUP5 MSTORE PUSH1 0x20 DUP5 ADD SWAP4 POP PUSH1 0x20 DUP4 ADD PUSH0 JUMPDEST DUP3 DUP2 LT ISZERO PUSH2 0x4C08 JUMPI DUP2 MLOAD DUP7 MSTORE PUSH1 0x20 SWAP6 DUP7 ADD SWAP6 SWAP1 SWAP2 ADD SWAP1 PUSH1 0x1 ADD PUSH2 0x4BEA JUMP JUMPDEST POP SWAP4 SWAP5 SWAP4 POP POP POP POP JUMP JUMPDEST PUSH0 DUP3 DUP3 MLOAD DUP1 DUP6 MSTORE PUSH1 0x20 DUP6 ADD SWAP5 POP PUSH1 0x20 DUP2 PUSH1 0x5 SHL DUP4 ADD ADD PUSH1 0x20 DUP6 ADD PUSH0 JUMPDEST DUP4 DUP2 LT ISZERO PUSH2 0x4C60 JUMPI PUSH1 0x1F NOT DUP6 DUP5 SUB ADD DUP9 MSTORE PUSH2 0x4C4A DUP4 DUP4 MLOAD PUSH2 0x484C JUMP JUMPDEST PUSH1 0x20 SWAP9 DUP10 ADD SWAP9 SWAP1 SWAP4 POP SWAP2 SWAP1 SWAP2 ADD SWAP1 PUSH1 0x1 ADD PUSH2 0x4C2E JUMP JUMPDEST POP SWAP1 SWAP7 SWAP6 POP POP POP POP POP POP JUMP JUMPDEST PUSH1 0xC0 DUP2 MSTORE PUSH0 PUSH2 0x4C7E PUSH1 0xC0 DUP4 ADD DUP10 PUSH2 0x4BD8 JUMP JUMPDEST DUP3 DUP2 SUB PUSH1 0x20 DUP5 ADD MSTORE PUSH2 0x4C90 DUP2 DUP10 PUSH2 0x4C12 JUMP JUMPDEST DUP4 DUP2 SUB PUSH1 0x40 DUP6 ADD MSTORE DUP8 MLOAD DUP1 DUP3 MSTORE PUSH1 0x20 DUP1 DUP11 ADD SWAP4 POP SWAP1 SWAP2 ADD SWAP1 PUSH0 JUMPDEST DUP2 DUP2 LT ISZERO PUSH2 0x4CD1 JUMPI DUP4 MLOAD PUSH1 0x1 PUSH1 0x1 PUSH1 0xA0 SHL SUB AND DUP4 MSTORE PUSH1 0x20 SWAP4 DUP5 ADD SWAP4 SWAP1 SWAP3 ADD SWAP2 PUSH1 0x1 ADD PUSH2 0x4CAA JUMP JUMPDEST POP POP DUP4 DUP2 SUB PUSH1 0x60 DUP6 ADD MSTORE PUSH2 0x4CE5 DUP2 DUP9 PUSH2 0x4C12 JUMP JUMPDEST SWAP2 POP POP DUP3 DUP2 SUB PUSH1 0x80 DUP5 ADD MSTORE PUSH2 0x4CFA DUP2 DUP7 PUSH2 0x4C12 JUMP JUMPDEST SWAP1 POP DUP3 DUP2 SUB PUSH1 0xA0 DUP5 ADD MSTORE PUSH2 0x4D0E DUP2 DUP6 PUSH2 0x4BD8 JUMP JUMPDEST SWAP10 SWAP9 POP POP POP POP POP POP POP POP POP JUMP JUMPDEST DUP9 DUP2 MSTORE PUSH1 0x20 DUP2 ADD DUP9 SWAP1 MSTORE PUSH1 0x1 PUSH1 0x1 PUSH1 0xA0 SHL SUB DUP8 DUP2 AND PUSH1 0x40 DUP4 ADD MSTORE DUP7 AND PUSH1 0x60 DUP3 ADD MSTORE PUSH1 0x80 DUP2 ADD DUP6 SWAP1 MSTORE PUSH1 0xA0 DUP2 ADD DUP5 SWAP1 MSTORE PUSH1 0xC0 DUP2 ADD DUP4 SWAP1 MSTORE PUSH2 0x100 PUSH1 0xE0 DUP3 ADD DUP2 SWAP1 MSTORE PUSH0 SWAP1 PUSH2 0x4D69 SWAP1 DUP4 ADD DUP5 PUSH2 0x484C JUMP JUMPDEST SWAP11 SWAP10 POP POP POP POP POP POP POP POP POP POP JUMP JUMPDEST PUSH1 0x1 PUSH1 0x1 PUSH1 0xA0 SHL SUB DUP10 AND DUP2 MSTORE PUSH2 0x100 PUSH1 0x20 DUP3 ADD DUP2 SWAP1 MSTORE PUSH0 SWAP1 PUSH2 0x4D9B SWAP1 DUP4 ADD DUP11 PUSH2 0x484C JUMP JUMPDEST DUP3 DUP2 SUB PUSH1 0x40 DUP5 ADD MSTORE PUSH2 0x4DAD DUP2 DUP11 PUSH2 0x484C JUMP JUMPDEST SWAP1 POP DUP3 DUP2 SUB PUSH1 0x60 DUP5 ADD MSTORE PUSH2 0x4DC1 DUP2 DUP10 PUSH2 0x484C JUMP JUMPDEST SWAP1 POP DUP7 PUSH1 0x80 DUP5 ADD MSTORE DUP6 PUSH1 0xA0 DUP5 ADD MSTORE DUP3 DUP2 SUB PUSH1 0xC0 DUP5 ADD MSTORE PUSH2 0x4DE1 DUP2 DUP7 PUSH2 0x484C JUMP JUMPDEST SWAP2 POP POP DUP3 ISZERO ISZERO PUSH1 0xE0 DUP4 ADD MSTORE SWAP10 SWAP9 POP POP POP POP POP POP POP POP POP JUMP JUMPDEST DUP7 DUP2 MSTORE PUSH1 0xC0 PUSH1 0x20 DUP3 ADD MSTORE PUSH0 PUSH2 0x4E11 PUSH1 0xC0 DUP4 ADD DUP9 PUSH2 0x484C JUMP JUMPDEST PUSH1 0x1 PUSH1 0x1 PUSH1 0xA0 SHL SUB DUP8 AND PUSH1 0x40 DUP5 ADD MSTORE DUP3 DUP2 SUB PUSH1 0x60 DUP5 ADD MSTORE PUSH2 0x4E32 DUP2 DUP8 PUSH2 0x484C JUMP JUMPDEST SWAP1 POP DUP3 DUP2 SUB PUSH1 0x80 DUP5 ADD MSTORE PUSH2 0x4E46 DUP2 DUP7 PUSH2 0x484C JUMP JUMPDEST SWAP2 POP POP DUP3 PUSH1 0xA0 DUP4 ADD MSTORE SWAP8 SWAP7 POP POP POP POP POP POP POP JUMP JUMPDEST PUSH0 PUSH0 PUSH0 PUSH0 PUSH0 PUSH0 PUSH1 0xC0 DUP8 DUP10 SUB SLT ISZERO PUSH2 0x4E6F JUMPI PUSH0 PUSH0 REVERT JUMPDEST PUSH2 0x4E78 DUP8 PUSH2 0x49E0 JUMP JUMPDEST SWAP6 POP PUSH1 0x20 DUP8 ADD CALLDATALOAD SWAP5 POP PUSH1 0x40 DUP8 ADD CALLDATALOAD PUSH1 0x1 PUSH1 0x1 PUSH1 0x40 SHL SUB DUP2 GT ISZERO PUSH2 0x4E99 JUMPI PUSH0 PUSH0 REVERT JUMPDEST PUSH2 0x4EA5 DUP10 DUP3 DUP11 ADD PUSH2 0x4767 JUMP JUMPDEST SWAP5 POP POP PUSH1 0x60 DUP8 ADD CALLDATALOAD PUSH1 0x1 PUSH1 0x1 PUSH1 0x40 SHL SUB DUP2 GT ISZERO PUSH2 0x4A5D JUMPI PUSH0 PUSH0 REVERT JUMPDEST PUSH1 0x4 DUP2 LT PUSH2 0x4ED0 JUMPI PUSH2 0x4ED0 PUSH2 0x487A JUMP JUMPDEST POP JUMP JUMPDEST DUP8 DUP2 MSTORE PUSH1 0x20 DUP2 ADD DUP8 SWAP1 MSTORE PUSH1 0x1 PUSH1 0x1 PUSH1 0xA0 SHL SUB DUP7 AND PUSH1 0x40 DUP3 ADD MSTORE PUSH1 0x60 DUP2 ADD DUP6 SWAP1 MSTORE PUSH2 0x4EFC DUP5 PUSH2 0x4EC0 JUMP JUMPDEST DUP4 PUSH1 0x80 DUP3 ADD MSTORE PUSH1 0xE0 PUSH1 0xA0 DUP3 ADD MSTORE PUSH0 PUSH2 0x4F17 PUSH1 0xE0 DUP4 ADD DUP6 PUSH2 0x484C JUMP JUMPDEST SWAP1 POP DUP3 PUSH1 0xC0 DUP4 ADD MSTORE SWAP9 SWAP8 POP POP POP POP POP POP POP POP JUMP JUMPDEST PUSH0 PUSH0 PUSH0 PUSH0 PUSH0 PUSH0 PUSH1 0xC0 DUP8 DUP10 SUB SLT ISZERO PUSH2 0x4F40 JUMPI PUSH0 PUSH0 REVERT JUMPDEST DUP7 CALLDATALOAD SWAP6 POP PUSH1 0x20 DUP8 ADD CALLDATALOAD PUSH1 0x1 PUSH1 0x1 PUSH1 0x40 SHL SUB DUP2 GT ISZERO PUSH2 0x4F5C JUMPI PUSH0 PUSH0 REVERT JUMPDEST PUSH2 0x4F68 DUP10 DUP3 DUP11 ADD PUSH2 0x4767 JUMP JUMPDEST SWAP6 POP POP PUSH1 0x40 DUP8 ADD CALLDATALOAD PUSH1 0x1 PUSH1 0x1 PUSH1 0x40 SHL SUB DUP2 GT ISZERO PUSH2 0x4F83 JUMPI PUSH0 PUSH0 REVERT JUMPDEST PUSH2 0x4F8F DUP10 DUP3 DUP11 ADD PUSH2 0x4767 JUMP JUMPDEST SWAP5 POP POP PUSH1 0x60 DUP8 ADD CALLDATALOAD PUSH1 0x1 PUSH1 0x1 PUSH1 0x40 SHL SUB DUP2 GT ISZERO PUSH2 0x4FAA JUMPI PUSH0 PUSH0 REVERT JUMPDEST PUSH2 0x4FB6 DUP10 DUP3 DUP11 ADD PUSH2 0x4767 JUMP JUMPDEST SWAP4 POP POP PUSH1 0x80 DUP8 ADD CALLDATALOAD SWAP2 POP PUSH1 0xA0 DUP8 ADD CALLDATALOAD PUSH1 0x1 PUSH1 0x1 PUSH1 0x40 SHL SUB DUP2 GT ISZERO PUSH2 0x4AAB JUMPI PUSH0 PUSH0 REVERT JUMPDEST PUSH1 0x5 DUP2 LT PUSH2 0x489E JUMPI PUSH2 0x489E PUSH2 0x487A JUMP JUMPDEST PUSH2 0x489E DUP2 PUSH2 0x4EC0 JUMP JUMPDEST DUP14 DUP2 MSTORE PUSH2 0x1A0 PUSH1 0x20 DUP3 ADD MSTORE PUSH0 PUSH2 0x500B PUSH2 0x1A0 DUP4 ADD DUP16 PUSH2 0x484C JUMP JUMPDEST PUSH2 0x5018 PUSH1 0x40 DUP5 ADD DUP16 PUSH2 0x4FD8 JUMP JUMPDEST DUP13 PUSH1 0x60 DUP5 ADD MSTORE DUP12 PUSH1 0x80 DUP5 ADD MSTORE PUSH2 0x5039 PUSH1 0xA0 DUP5 ADD DUP13 PUSH1 0x1 PUSH1 0x1 PUSH1 0xA0 SHL SUB AND SWAP1 MSTORE JUMP JUMPDEST DUP3 DUP2 SUB PUSH1 0xC0 DUP5 ADD MSTORE PUSH2 0x504B DUP2 DUP12 PUSH2 0x484C JUMP JUMPDEST SWAP1 POP DUP3 DUP2 SUB PUSH1 0xE0 DUP5 ADD MSTORE PUSH2 0x505F DUP2 DUP11 PUSH2 0x484C JUMP JUMPDEST SWAP1 POP DUP3 DUP2 SUB PUSH2 0x100 DUP5 ADD MSTORE PUSH2 0x5074 DUP2 DUP10 PUSH2 0x484C JUMP JUMPDEST SWAP1 POP DUP3 DUP2 SUB PUSH2 0x120 DUP5 ADD MSTORE PUSH2 0x5089 DUP2 DUP9 PUSH2 0x484C JUMP JUMPDEST SWAP2 POP POP PUSH2 0x509A PUSH2 0x140 DUP4 ADD DUP7 PUSH2 0x4FE8 JUMP JUMPDEST PUSH1 0x1 PUSH1 0x1 PUSH1 0xA0 SHL SUB SWAP4 SWAP1 SWAP4 AND PUSH2 0x160 DUP3 ADD MSTORE PUSH2 0x180 ADD MSTORE SWAP12 SWAP11 POP POP POP POP POP POP POP POP POP POP POP JUMP JUMPDEST PUSH1 0x1 PUSH1 0x1 PUSH1 0xA0 SHL SUB DUP8 DUP2 AND DUP3 MSTORE DUP7 AND PUSH1 0x20 DUP3 ADD MSTORE PUSH1 0x40 DUP2 ADD DUP6 SWAP1 MSTORE PUSH1 0x60 DUP2 ADD DUP5 SWAP1 MSTORE PUSH1 0x80 DUP2 ADD DUP4 SWAP1 MSTORE PUSH1 0xC0 PUSH1 0xA0 DUP3 ADD DUP2 SWAP1 MSTORE PUSH0 SWAP1 PUSH2 0x5100 SWAP1 DUP4 ADD DUP5 PUSH2 0x484C JUMP JUMPDEST SWAP9 SWAP8 POP POP POP POP POP POP POP POP JUMP JUMPDEST PUSH1 0x1 DUP1 PUSH1 0xA0 SHL SUB DUP7 AND DUP2 MSTORE DUP5 PUSH1 0x20 DUP3 ADD MSTORE PUSH1 0xA0 PUSH1 0x40 DUP3 ADD MSTORE PUSH0 PUSH2 0x5132 PUSH1 0xA0 DUP4 ADD DUP7 PUSH2 0x484C JUMP JUMPDEST DUP3 DUP2 SUB PUSH1 0x60 DUP5 ADD MSTORE PUSH2 0x5144 DUP2 DUP7 PUSH2 0x484C JUMP JUMPDEST SWAP2 POP POP DUP3 PUSH1 0x80 DUP4 ADD MSTORE SWAP7 SWAP6 POP POP POP POP POP POP JUMP JUMPDEST PUSH0 PUSH0 PUSH0 PUSH0 PUSH1 0x80 DUP6 DUP8 SUB SLT ISZERO PUSH2 0x516A JUMPI PUSH0 PUSH0 REVERT JUMPDEST DUP5 CALLDATALOAD SWAP4 POP PUSH1 0x20 DUP6 ADD CALLDATALOAD SWAP3 POP PUSH2 0x5181 PUSH1 0x40 DUP7 ADD PUSH2 0x49E0 JUMP JUMPDEST SWAP2 POP PUSH1 0x60 DUP6 ADD CALLDATALOAD PUSH1 0x1 PUSH1 0x1 PUSH1 0x40 SHL SUB DUP2 GT ISZERO PUSH2 0x4834 JUMPI PUSH0 PUSH0 REVERT JUMPDEST PUSH0 PUSH0 PUSH1 0x40 DUP4 DUP6 SUB SLT ISZERO PUSH2 0x51AC JUMPI PUSH0 PUSH0 REVERT JUMPDEST POP POP DUP1 CALLDATALOAD SWAP3 PUSH1 0x20 SWAP1 SWAP2 ADD CALLDATALOAD SWAP2 POP JUMP JUMPDEST PUSH1 0x20 DUP2 MSTORE PUSH0 PUSH2 0x474C PUSH1 0x20 DUP4 ADD DUP5 PUSH2 0x4BD8 JUMP JUMPDEST DUP8 DUP2 MSTORE DUP7 PUSH1 0x20 DUP3 ADD MSTORE PUSH1 0xE0 PUSH1 0x40 DUP3 ADD MSTORE PUSH0 PUSH2 0x51EB PUSH1 0xE0 DUP4 ADD DUP9 PUSH2 0x484C JUMP JUMPDEST PUSH1 0x1 PUSH1 0x1 PUSH1 0xA0 SHL SUB DUP8 AND PUSH1 0x60 DUP5 ADD MSTORE DUP3 DUP2 SUB PUSH1 0x80 DUP5 ADD MSTORE PUSH2 0x520C DUP2 DUP8 PUSH2 0x484C JUMP JUMPDEST SWAP1 POP DUP3 DUP2 SUB PUSH1 0xA0 DUP5 ADD MSTORE PUSH2 0x5220 DUP2 DUP7 PUSH2 0x484C JUMP JUMPDEST SWAP2 POP POP DUP3 PUSH1 0xC0 DUP4 ADD MSTORE SWAP9 SWAP8 POP POP POP POP POP POP POP POP JUMP JUMPDEST PUSH1 0x20 DUP1 DUP3 MSTORE PUSH1 0x22 SWAP1 DUP3 ADD MSTORE PUSH32 0x4D757368436861696E3A2063616C6C6572206973206E6F74207468652041646D PUSH1 0x40 DUP3 ADD MSTORE PUSH2 0x34B7 PUSH1 0xF1 SHL PUSH1 0x60 DUP3 ADD MSTORE PUSH1 0x80 ADD SWAP1 JUMP JUMPDEST PUSH1 0x20 DUP1 DUP3 MSTORE PUSH1 0x1F SWAP1 DUP3 ADD MSTORE PUSH32 0x4D757368436861696E3A20626174636820646F6573206E6F7420657869737400 PUSH1 0x40 DUP3 ADD MSTORE PUSH1 0x60 ADD SWAP1 JUMP JUMPDEST PUSH1 0x20 DUP1 DUP3 MSTORE PUSH1 0x29 SWAP1 DUP3 ADD MSTORE PUSH32 0x4D757368436861696E3A20696E636F727265637420726F6C6520666F72207468 PUSH1 0x40 DUP3 ADD MSTORE PUSH9 0x34B99030B1BA34B7B7 PUSH1 0xB9 SHL PUSH1 0x60 DUP3 ADD MSTORE PUSH1 0x80 ADD SWAP1 JUMP JUMPDEST PUSH1 0x20 DUP1 DUP3 MSTORE PUSH1 0x2A SWAP1 DUP3 ADD MSTORE PUSH32 0x4D757368436861696E3A207061727469636970616E74206163636F756E742069 PUSH1 0x40 DUP3 ADD MSTORE PUSH10 0x7320696E616374697665 PUSH1 0xB0 SHL PUSH1 0x60 DUP3 ADD MSTORE PUSH1 0x80 ADD SWAP1 JUMP JUMPDEST PUSH4 0x4E487B71 PUSH1 0xE0 SHL PUSH0 MSTORE PUSH1 0x11 PUSH1 0x4 MSTORE PUSH1 0x24 PUSH0 REVERT JUMPDEST PUSH0 PUSH1 0x1 DUP3 ADD PUSH2 0x5366 JUMPI PUSH2 0x5366 PUSH2 0x5341 JUMP JUMPDEST POP PUSH1 0x1 ADD SWAP1 JUMP JUMPDEST PUSH1 0x1 DUP2 DUP2 SHR SWAP1 DUP3 AND DUP1 PUSH2 0x5381 JUMPI PUSH1 0x7F DUP3 AND SWAP2 POP JUMPDEST PUSH1 0x20 DUP3 LT DUP2 SUB PUSH2 0x10A4 JUMPI PUSH4 0x4E487B71 PUSH1 0xE0 SHL PUSH0 MSTORE PUSH1 0x22 PUSH1 0x4 MSTORE PUSH1 0x24 PUSH0 REVERT JUMPDEST PUSH1 0x1F DUP3 GT ISZERO PUSH2 0x53F1 JUMPI DUP3 DUP3 GT ISZERO PUSH2 0x53F1 JUMPI DUP1 PUSH0 MSTORE PUSH1 0x20 PUSH0 KECCAK256 PUSH1 0x1F DUP5 ADD PUSH1 0x5 SHR PUSH1 0x20 DUP6 LT ISZERO PUSH2 0x53CA JUMPI POP PUSH0 JUMPDEST SWAP1 DUP2 ADD SWAP1 PUSH1 0x1F DUP5 ADD PUSH1 0x5 SHR SUB PUSH0 JUMPDEST DUP2 DUP2 LT ISZERO PUSH2 0x53ED JUMPI PUSH0 DUP4 DUP3 ADD SSTORE PUSH1 0x1 ADD PUSH2 0x53D8 JUMP JUMPDEST POP POP POP JUMPDEST POP POP POP JUMP JUMPDEST DUP2 MLOAD PUSH1 0x1 PUSH1 0x1 PUSH1 0x40 SHL SUB DUP2 GT ISZERO PUSH2 0x540F JUMPI PUSH2 0x540F PUSH2 0x4753 JUMP JUMPDEST PUSH2 0x5423 DUP2 PUSH2 0x541D DUP5 SLOAD PUSH2 0x536D JUMP JUMPDEST DUP5 PUSH2 0x539F JUMP JUMPDEST PUSH1 0x20 PUSH1 0x1F DUP3 GT PUSH1 0x1 DUP2 EQ PUSH2 0x5455 JUMPI PUSH0 DUP4 ISZERO PUSH2 0x543E JUMPI POP DUP5 DUP3 ADD MLOAD JUMPDEST PUSH0 NOT PUSH1 0x3 DUP6 SWAP1 SHL SHR NOT AND PUSH1 0x1 DUP5 SWAP1 SHL OR DUP5 SSTORE PUSH2 0x54AD JUMP JUMPDEST PUSH0 DUP5 DUP2 MSTORE PUSH1 0x20 DUP2 KECCAK256 PUSH1 0x1F NOT DUP6 AND SWAP2 JUMPDEST DUP3 DUP2 LT ISZERO PUSH2 0x5484 JUMPI DUP8 DUP6 ADD MLOAD DUP3 SSTORE PUSH1 0x20 SWAP5 DUP6 ADD SWAP5 PUSH1 0x1 SWAP1 SWAP3 ADD SWAP2 ADD PUSH2 0x5464 JUMP JUMPDEST POP DUP5 DUP3 LT ISZERO PUSH2 0x54A1 JUMPI DUP7 DUP5 ADD MLOAD PUSH0 NOT PUSH1 0x3 DUP8 SWAP1 SHL PUSH1 0xF8 AND SHR NOT AND DUP2 SSTORE JUMPDEST POP POP PUSH1 0x1 DUP4 PUSH1 0x1 SHL ADD DUP5 SSTORE JUMPDEST POP POP POP POP POP JUMP JUMPDEST PUSH0 DUP2 MLOAD DUP1 PUSH1 0x20 DUP5 ADD DUP6 MCOPY PUSH0 SWAP4 ADD SWAP3 DUP4 MSTORE POP SWAP1 SWAP2 SWAP1 POP JUMP JUMPDEST PUSH13 0x233937B6902330B936B2B91D1 PUSH1 0x9D SHL DUP2 MSTORE PUSH0 PUSH2 0x54EC PUSH1 0xD DUP4 ADD DUP9 PUSH2 0x54B4 JUMP JUMPDEST PUSH12 0x10169F102A3930B232B91D1 PUSH1 0xA5 SHL DUP2 MSTORE PUSH2 0x550B PUSH1 0xC DUP3 ADD DUP9 PUSH2 0x54B4 JUMP JUMPDEST SWAP1 POP PUSH13 0x103E10283934B1B297B5B39D1 PUSH1 0x9D SHL DUP2 MSTORE PUSH2 0x552D PUSH1 0xD DUP3 ADD DUP8 PUSH2 0x54B4 JUMP JUMPDEST SWAP1 POP PUSH8 0x103E1028BA3C9D1 PUSH1 0xC5 SHL DUP2 MSTORE PUSH2 0x554A PUSH1 0x8 DUP3 ADD DUP7 PUSH2 0x54B4 JUMP JUMPDEST SWAP1 POP PUSH3 0x206B67 PUSH1 0xE8 SHL DUP2 MSTORE PUSH10 0x103E102737BA32B99D1 PUSH1 0xB5 SHL PUSH1 0x3 DUP3 ADD MSTORE PUSH2 0x5100 PUSH1 0xD DUP3 ADD DUP6 PUSH2 0x54B4 JUMP JUMPDEST PUSH1 0x60 DUP2 MSTORE PUSH0 PUSH2 0x5587 PUSH1 0x60 DUP4 ADD DUP7 PUSH2 0x484C JUMP JUMPDEST SWAP1 POP PUSH2 0x5596 PUSH1 0x20 DUP4 ADD DUP6 PUSH2 0x488E JUMP JUMPDEST DUP3 PUSH1 0x40 DUP4 ADD MSTORE SWAP5 SWAP4 POP POP POP POP JUMP JUMPDEST PUSH0 DUP2 SLOAD PUSH2 0x55B0 DUP2 PUSH2 0x536D JUMP JUMPDEST PUSH1 0x1 DUP3 AND DUP1 ISZERO PUSH2 0x55C7 JUMPI PUSH1 0x1 DUP2 EQ PUSH2 0x55DC JUMPI PUSH2 0x5609 JUMP JUMPDEST PUSH1 0xFF NOT DUP4 AND DUP7 MSTORE DUP2 ISZERO ISZERO DUP3 MUL DUP7 ADD SWAP4 POP PUSH2 0x5609 JUMP JUMPDEST DUP5 PUSH0 MSTORE PUSH1 0x20 PUSH0 KECCAK256 PUSH0 JUMPDEST DUP4 DUP2 LT ISZERO PUSH2 0x5601 JUMPI DUP2 SLOAD DUP9 DUP3 ADD MSTORE PUSH1 0x1 SWAP1 SWAP2 ADD SWAP1 PUSH1 0x20 ADD PUSH2 0x55E5 JUMP JUMPDEST POP POP DUP2 DUP7 ADD SWAP4 POP JUMPDEST POP POP POP SWAP3 SWAP2 POP POP JUMP JUMPDEST PUSH0 PUSH2 0x561D DUP3 DUP6 PUSH2 0x55A4 JUMP JUMPDEST PUSH2 0x161 PUSH1 0xF5 SHL DUP2 MSTORE PUSH2 0x5632 PUSH1 0x2 DUP3 ADD DUP6 PUSH2 0x55A4 JUMP JUMPDEST SWAP6 SWAP5 POP POP POP POP POP JUMP JUMPDEST PUSH4 0x4E487B71 PUSH1 0xE0 SHL PUSH0 MSTORE PUSH1 0x32 PUSH1 0x4 MSTORE PUSH1 0x24 PUSH0 REVERT JUMPDEST PUSH6 0x2330B9369D1 PUSH1 0xD5 SHL DUP2 MSTORE PUSH0 PUSH2 0x5669 PUSH1 0x6 DUP4 ADD DUP9 PUSH2 0x54B4 JUMP JUMPDEST PUSH12 0x103E102B30B934B2BA3C9D1 PUSH1 0xA5 SHL DUP2 MSTORE PUSH2 0x5688 PUSH1 0xC DUP3 ADD DUP9 PUSH2 0x54B4 JUMP JUMPDEST SWAP1 POP PUSH8 0x103E1028BA3C9D1 PUSH1 0xC5 SHL DUP2 MSTORE PUSH2 0x56A5 PUSH1 0x8 DUP3 ADD DUP8 PUSH2 0x54B4 JUMP JUMPDEST SWAP1 POP PUSH3 0x206B67 PUSH1 0xE8 SHL DUP2 MSTORE PUSH13 0x103E102130B930B733B0BC9D1 PUSH1 0x9D SHL PUSH1 0x3 DUP3 ADD MSTORE PUSH2 0x56D3 PUSH1 0x10 DUP3 ADD DUP7 PUSH2 0x54B4 JUMP JUMPDEST SWAP1 POP PUSH2 0x161 PUSH1 0xF5 SHL DUP2 MSTORE PUSH2 0x5100 PUSH1 0x2 DUP3 ADD DUP6 PUSH2 0x54B4 JUMP JUMPDEST PUSH1 0x80 DUP2 MSTORE PUSH0 PUSH2 0x56FC PUSH1 0x80 DUP4 ADD DUP8 PUSH2 0x484C JUMP JUMPDEST SWAP1 POP PUSH2 0x570B PUSH1 0x20 DUP4 ADD DUP7 PUSH2 0x4FD8 JUMP JUMPDEST PUSH1 0x40 DUP3 ADD SWAP4 SWAP1 SWAP4 MSTORE PUSH1 0x60 ADD MSTORE SWAP3 SWAP2 POP POP JUMP JUMPDEST DUP1 DUP3 MUL DUP2 ISZERO DUP3 DUP3 DIV DUP5 EQ OR PUSH2 0x5734 JUMPI PUSH2 0x5734 PUSH2 0x5341 JUMP JUMPDEST SWAP3 SWAP2 POP POP JUMP JUMPDEST DUP1 DUP3 ADD DUP1 DUP3 GT ISZERO PUSH2 0x5734 JUMPI PUSH2 0x5734 PUSH2 0x5341 JUMP JUMPDEST PUSH9 0x2B32B434B1B6329D1 PUSH1 0xBD SHL DUP2 MSTORE PUSH0 PUSH2 0x576A PUSH1 0x9 DUP4 ADD DUP9 PUSH2 0x54B4 JUMP JUMPDEST PUSH9 0x103E10233937B69D1 PUSH1 0xBD SHL DUP2 MSTORE PUSH2 0x5786 PUSH1 0x9 DUP3 ADD DUP9 PUSH2 0x54B4 JUMP JUMPDEST SWAP1 POP PUSH7 0x103E102A379D1 PUSH1 0xCD SHL DUP2 MSTORE PUSH2 0x57A2 PUSH1 0x7 DUP3 ADD DUP8 PUSH2 0x54B4 JUMP JUMPDEST SWAP1 POP PUSH8 0x103E1022AA209D1 PUSH1 0xC5 SHL DUP2 MSTORE PUSH2 0x57BF PUSH1 0x8 DUP3 ADD DUP7 PUSH2 0x54B4 JUMP JUMPDEST SWAP1 POP PUSH6 0x206872287329 PUSH1 0xD0 SHL DUP2 MSTORE PUSH14 0x103E1021B7B73234BA34B7B71D1 PUSH1 0x95 SHL PUSH1 0x6 DUP3 ADD MSTORE PUSH2 0x5100 PUSH1 0x14 DUP3 ADD DUP6 PUSH2 0x54B4 JUMP JUMPDEST PUSH1 0x60 DUP2 MSTORE PUSH0 PUSH2 0x5803 PUSH1 0x60 DUP4 ADD DUP7 PUSH2 0x484C JUMP JUMPDEST DUP3 DUP2 SUB PUSH1 0x20 DUP5 ADD MSTORE PUSH2 0x5815 DUP2 DUP7 PUSH2 0x484C JUMP JUMPDEST SWAP2 POP POP DUP3 PUSH1 0x40 DUP4 ADD MSTORE SWAP5 SWAP4 POP POP POP POP JUMP JUMPDEST PUSH8 0x2B32B73237B91D1 PUSH1 0xC5 SHL DUP2 MSTORE PUSH0 PUSH2 0x5842 PUSH1 0x8 DUP4 ADD DUP8 PUSH2 0x54B4 JUMP JUMPDEST PUSH17 0x103E1028BA3C902932B1B2B4BB32B21D1 PUSH1 0x7D SHL DUP2 MSTORE PUSH2 0x5866 PUSH1 0x11 DUP3 ADD DUP8 PUSH2 0x54B4 JUMP JUMPDEST SWAP1 POP PUSH3 0x206B67 PUSH1 0xE8 SHL DUP2 MSTORE PUSH14 0x103E1021B7B73234BA34B7B71D1 PUSH1 0x95 SHL PUSH1 0x3 DUP3 ADD MSTORE PUSH2 0x5895 PUSH1 0x11 DUP3 ADD DUP7 PUSH2 0x54B4 JUMP JUMPDEST SWAP1 POP PUSH10 0x103E102737BA32B99D1 PUSH1 0xB5 SHL DUP2 MSTORE PUSH2 0x58B4 PUSH1 0xA DUP3 ADD DUP6 PUSH2 0x54B4 JUMP JUMPDEST SWAP8 SWAP7 POP POP POP POP POP POP POP JUMP JUMPDEST PUSH1 0x60 DUP2 ADD PUSH2 0x58CC DUP6 PUSH2 0x4EC0 JUMP JUMPDEST SWAP4 DUP2 MSTORE PUSH1 0x20 DUP2 ADD SWAP3 SWAP1 SWAP3 MSTORE PUSH1 0x40 SWAP1 SWAP2 ADD MSTORE SWAP1 JUMP JUMPDEST PUSH32 0x3D3D3D3D3D3D3D3D3D3D3D3D3D3D3D3D3D3D3D3D3D3D3D3D3D3D3D3D3D3D3D3D DUP2 MSTORE PUSH9 0x1E9E9E9E9E9E9E9E85 PUSH1 0xB9 SHL PUSH1 0x20 DUP3 ADD MSTORE PUSH1 0x29 ADD SWAP1 JUMP JUMPDEST PUSH0 PUSH2 0x5925 DUP3 PUSH2 0x58E0 JUMP JUMPDEST PUSH32 0x20204D555348434841494E205048204155444954205245504F52540A00000000 DUP2 MSTORE PUSH9 0x10102130BA31B41D1 PUSH1 0xBD SHL PUSH1 0x1C DUP3 ADD MSTORE PUSH2 0x5967 PUSH1 0x25 DUP3 ADD DUP8 PUSH2 0x55A4 JUMP JUMPDEST PUSH1 0x5 PUSH1 0xF9 SHL DUP2 MSTORE PUSH10 0x101029BA30BA3AB99D1 PUSH1 0xB5 SHL PUSH1 0x1 DUP3 ADD MSTORE SWAP1 POP PUSH2 0x5990 PUSH1 0xB DUP3 ADD DUP7 PUSH2 0x54B4 JUMP JUMPDEST PUSH1 0x5 PUSH1 0xF9 SHL DUP2 MSTORE PUSH16 0x10102A37BA30B61022BB32B73A399D1 PUSH1 0x85 SHL PUSH1 0x1 DUP3 ADD MSTORE SWAP1 POP PUSH2 0x59BF PUSH1 0x11 DUP3 ADD DUP6 PUSH2 0x54B4 JUMP JUMPDEST PUSH1 0x5 PUSH1 0xF9 SHL DUP2 MSTORE SWAP1 POP PUSH2 0x59D4 PUSH1 0x1 DUP3 ADD PUSH2 0x58E0 JUMP JUMPDEST SWAP7 SWAP6 POP POP POP POP POP POP JUMP JUMPDEST PUSH0 PUSH2 0x59E9 DUP3 DUP11 PUSH2 0x54B4 JUMP JUMPDEST PUSH2 0xA5B PUSH1 0xF0 SHL DUP2 MSTORE PUSH2 0x59FE PUSH1 0x2 DUP3 ADD DUP11 PUSH2 0x54B4 JUMP JUMPDEST SWAP1 POP PUSH2 0x2E9 PUSH1 0xF5 SHL DUP2 MSTORE PUSH2 0x5A15 PUSH1 0x2 DUP3 ADD DUP10 PUSH2 0x55A4 JUMP JUMPDEST PUSH1 0x5 PUSH1 0xF9 SHL DUP2 MSTORE PUSH14 0x101010102937B632901010101D1 PUSH1 0x95 SHL PUSH1 0x1 DUP3 ADD MSTORE SWAP1 POP PUSH2 0x5A42 PUSH1 0xF DUP3 ADD DUP9 PUSH2 0x55A4 JUMP JUMPDEST PUSH1 0x5 PUSH1 0xF9 SHL DUP2 MSTORE PUSH14 0x1010101020B1BA37B91010101D1 PUSH1 0x95 SHL PUSH1 0x1 DUP3 ADD MSTORE SWAP1 POP PUSH2 0x5A6F PUSH1 0xF DUP3 ADD DUP8 PUSH2 0x54B4 JUMP JUMPDEST PUSH1 0x5 PUSH1 0xF9 SHL DUP2 MSTORE PUSH14 0x101010102232BA30B4B639901D1 PUSH1 0x95 SHL PUSH1 0x1 DUP3 ADD SWAP1 DUP2 MSTORE SWAP2 POP PUSH1 0xF ADD PUSH2 0x5A9E DUP2 DUP8 PUSH2 0x55A4 JUMP JUMPDEST PUSH1 0x5 PUSH1 0xF9 SHL DUP2 MSTORE SWAP2 POP POP PUSH1 0x1 DUP2 ADD PUSH2 0x5B21 PUSH2 0x5AE6 PUSH2 0x5AD9 PUSH2 0x5AD3 DUP5 PUSH14 0x101010102A34B6B2901010101D1 PUSH1 0x95 SHL DUP2 MSTORE PUSH1 0xE ADD SWAP1 JUMP JUMPDEST DUP9 PUSH2 0x54B4 JUMP JUMPDEST PUSH1 0x5 PUSH1 0xF9 SHL DUP2 MSTORE PUSH1 0x1 ADD SWAP1 JUMP JUMPDEST PUSH32 0x2D2D2D2D2D2D2D2D2D2D2D2D2D2D2D2D2D2D2D2D2D2D2D2D2D2D2D2D2D2D2D2D DUP2 MSTORE PUSH9 0x169696969696969685 PUSH1 0xB9 SHL PUSH1 0x20 DUP3 ADD MSTORE PUSH1 0x29 ADD SWAP1 JUMP JUMPDEST SWAP12 SWAP11 POP POP POP POP POP POP POP POP POP POP POP JUMP JUMPDEST PUSH4 0x4E487B71 PUSH1 0xE0 SHL PUSH0 MSTORE PUSH1 0x12 PUSH1 0x4 MSTORE PUSH1 0x24 PUSH0 REVERT JUMPDEST PUSH0 DUP3 PUSH2 0x5B52 JUMPI PUSH2 0x5B52 PUSH2 0x5B30 JUMP JUMPDEST POP DIV SWAP1 JUMP JUMPDEST PUSH0 DUP2 PUSH2 0x5B65 JUMPI PUSH2 0x5B65 PUSH2 0x5341 JUMP JUMPDEST POP PUSH0 NOT ADD SWAP1 JUMP JUMPDEST PUSH0 DUP3 PUSH2 0x5B7A JUMPI PUSH2 0x5B7A PUSH2 0x5B30 JUMP JUMPDEST POP MOD SWAP1 JUMP JUMPDEST PUSH1 0x40 DUP2 MSTORE PUSH0 PUSH2 0x5B91 PUSH1 0x40 DUP4 ADD DUP6 PUSH2 0x484C JUMP JUMPDEST SWAP1 POP DUP3 PUSH1 0x20 DUP4 ADD MSTORE SWAP4 SWAP3 POP POP POP JUMP JUMPDEST PUSH10 0x465450482D323032362D PUSH1 0xB0 SHL DUP2 MSTORE PUSH0 PUSH2 0x474C PUSH1 0xA DUP4 ADD DUP5 PUSH2 0x54B4 JUMP JUMPDEST PUSH0 PUSH2 0x5BD2 PUSH2 0x5BCC DUP4 DUP7 PUSH2 0x54B4 JUMP JUMPDEST DUP5 PUSH2 0x54B4 JUMP JUMPDEST SWAP5 SWAP4 POP POP POP POP JUMP INVALID PREVRANDAO PUSH6 0x6C6976657265 PUSH5 0x3A20436861 PUSH10 0x6E206F6620437573746F PUSH5 0x7920436C6F PUSH20 0x6564A2646970667358221220BA36AD02F4FA8442 0xAE 0xF6 TLOAD 0xAE 0x22 0xEB DUP12 0xBD PUSH25 0xB9C6BE48527FDBCB48C041AF4F4EF464736F6C634300082200 CALLER "
		},
		"gasEstimates": {
			"creation": {
				"codeDepositCost": "4720400",
				"executionCost": "infinite",
				"totalCost": "infinite"
			},
			"external": {
				"admin()": "2445",
				"allBatchIds(uint256)": "4618",
				"auditLog(uint256)": "infinite",
				"batchAuditTrail(uint256,uint256)": "4768",
				"batchDelivery(uint256)": "2524",
				"batchShipment(uint256)": "2502",
				"batchTransfer(uint256)": "2524",
				"batches(uint256)": "infinite",
				"confirmDelivery(uint256,uint256,uint8,string)": "infinite",
				"deactivateParticipant(address)": "29062",
				"deliveries(uint256)": "infinite",
				"getAllBatches()": "infinite",
				"getAuditEntry(uint256)": "infinite",
				"getAuditReport(uint256)": "infinite",
				"getBatchAuditTrail(uint256)": "infinite",
				"getBatchStatus(uint256)": "infinite",
				"getDeliveryRecord(uint256)": "infinite",
				"getParticipant(address)": "infinite",
				"getProvenance(uint256)": "infinite",
				"getShipmentRecord(uint256)": "infinite",
				"getTransferRecord(uint256)": "infinite",
				"logShipment(uint256,string,string,string,uint256,string)": "infinite",
				"participants(address)": "infinite",
				"reactivateParticipant(address)": "29029",
				"registerBatch(uint8,uint256,string,string,string,string)": "infinite",
				"registerParticipant(address,string,uint8,string,string,string)": "infinite",
				"shipments(uint256)": "infinite",
				"transferToTrader(uint256,address,uint256,string)": "infinite",
				"transfers(uint256)": "infinite"
			},
			"internal": {
				"_addAudit(uint256,string memory,address,string memory,string memory)": "infinite",
				"_addrShort(address)": "infinite",
				"_conditionName(enum MushChainPH.Condition)": "infinite",
				"_generateBatchCode(uint256)": "infinite",
				"_padded(uint256)": "infinite",
				"_roleName(enum MushChainPH.Role)": "infinite",
				"_statusName(enum MushChainPH.BatchStatus)": "infinite",
				"_uint2str(uint256)": "infinite",
				"_varietyName(enum MushChainPH.Variety)": "infinite"
			}
		},
		"methodIdentifiers": {
			"admin()": "f851a440",
			"allBatchIds(uint256)": "290b17ec",
			"auditLog(uint256)": "f22ac6f1",
			"batchAuditTrail(uint256,uint256)": "e3da5f03",
			"batchDelivery(uint256)": "b98eae9c",
			"batchShipment(uint256)": "b76b7536",
			"batchTransfer(uint256)": "a217d08e",
			"batches(uint256)": "b32c4d8d",
			"confirmDelivery(uint256,uint256,uint8,string)": "d8a3081d",
			"deactivateParticipant(address)": "de97b81c",
			"deliveries(uint256)": "a9e4a324",
			"getAllBatches()": "e80e076b",
			"getAuditEntry(uint256)": "a61ecc62",
			"getAuditReport(uint256)": "f8031e90",
			"getBatchAuditTrail(uint256)": "73247a03",
			"getBatchStatus(uint256)": "2d1bbc8e",
			"getDeliveryRecord(uint256)": "cfc0c449",
			"getParticipant(address)": "7143059f",
			"getProvenance(uint256)": "60f1233d",
			"getShipmentRecord(uint256)": "9595b8c5",
			"getTransferRecord(uint256)": "c752e8e9",
			"logShipment(uint256,string,string,string,uint256,string)": "abd39cfa",
			"participants(address)": "09e69ede",
			"reactivateParticipant(address)": "0048e5a5",
			"registerBatch(uint8,uint256,string,string,string,string)": "a835e8fa",
			"registerParticipant(address,string,uint8,string,string,string)": "55ceb89d",
			"shipments(uint256)": "2ac08a93",
			"transferToTrader(uint256,address,uint256,string)": "027f99f8",
			"transfers(uint256)": "9377d711"
		}
	},
	"abi": [
		{
			"inputs": [],
			"stateMutability": "nonpayable",
			"type": "constructor"
		},
		{
			"anonymous": false,
			"inputs": [
				{
					"indexed": true,
					"internalType": "uint256",
					"name": "batchId",
					"type": "uint256"
				},
				{
					"indexed": false,
					"internalType": "string",
					"name": "action",
					"type": "string"
				},
				{
					"indexed": true,
					"internalType": "address",
					"name": "actor",
					"type": "address"
				},
				{
					"indexed": false,
					"internalType": "uint256",
					"name": "timestamp",
					"type": "uint256"
				}
			],
			"name": "AuditEntryAdded",
			"type": "event"
		},
		{
			"anonymous": false,
			"inputs": [
				{
					"indexed": true,
					"internalType": "uint256",
					"name": "batchId",
					"type": "uint256"
				},
				{
					"indexed": false,
					"internalType": "string",
					"name": "batchCode",
					"type": "string"
				},
				{
					"indexed": true,
					"internalType": "address",
					"name": "farmer",
					"type": "address"
				},
				{
					"indexed": false,
					"internalType": "enum MushChainPH.Variety",
					"name": "variety",
					"type": "uint8"
				},
				{
					"indexed": false,
					"internalType": "uint256",
					"name": "quantityKg",
					"type": "uint256"
				},
				{
					"indexed": false,
					"internalType": "uint256",
					"name": "timestamp",
					"type": "uint256"
				}
			],
			"name": "BatchMinted",
			"type": "event"
		},
		{
			"anonymous": false,
			"inputs": [
				{
					"indexed": true,
					"internalType": "uint256",
					"name": "batchId",
					"type": "uint256"
				},
				{
					"indexed": true,
					"internalType": "address",
					"name": "vendor",
					"type": "address"
				},
				{
					"indexed": false,
					"internalType": "enum MushChainPH.Condition",
					"name": "condition",
					"type": "uint8"
				},
				{
					"indexed": false,
					"internalType": "uint256",
					"name": "quantityReceived",
					"type": "uint256"
				},
				{
					"indexed": false,
					"internalType": "uint256",
					"name": "timestamp",
					"type": "uint256"
				}
			],
			"name": "DeliveryConfirmed",
			"type": "event"
		},
		{
			"anonymous": false,
			"inputs": [
				{
					"indexed": true,
					"internalType": "uint256",
					"name": "batchId",
					"type": "uint256"
				},
				{
					"indexed": true,
					"internalType": "address",
					"name": "from",
					"type": "address"
				},
				{
					"indexed": true,
					"internalType": "address",
					"name": "to",
					"type": "address"
				},
				{
					"indexed": false,
					"internalType": "uint256",
					"name": "pricePerKg",
					"type": "uint256"
				},
				{
					"indexed": false,
					"internalType": "uint256",
					"name": "quantity",
					"type": "uint256"
				},
				{
					"indexed": false,
					"internalType": "uint256",
					"name": "timestamp",
					"type": "uint256"
				}
			],
			"name": "OwnershipTransferred",
			"type": "event"
		},
		{
			"anonymous": false,
			"inputs": [
				{
					"indexed": true,
					"internalType": "address",
					"name": "wallet",
					"type": "address"
				},
				{
					"indexed": false,
					"internalType": "string",
					"name": "fullName",
					"type": "string"
				},
				{
					"indexed": false,
					"internalType": "enum MushChainPH.Role",
					"name": "role",
					"type": "uint8"
				},
				{
					"indexed": false,
					"internalType": "uint256",
					"name": "timestamp",
					"type": "uint256"
				}
			],
			"name": "ParticipantRegistered",
			"type": "event"
		},
		{
			"anonymous": false,
			"inputs": [
				{
					"indexed": true,
					"internalType": "uint256",
					"name": "batchId",
					"type": "uint256"
				},
				{
					"indexed": true,
					"internalType": "address",
					"name": "transporter",
					"type": "address"
				},
				{
					"indexed": false,
					"internalType": "string",
					"name": "vehiclePlate",
					"type": "string"
				},
				{
					"indexed": false,
					"internalType": "string",
					"name": "destination",
					"type": "string"
				},
				{
					"indexed": false,
					"internalType": "uint256",
					"name": "timestamp",
					"type": "uint256"
				}
			],
			"name": "ShipmentLogged",
			"type": "event"
		},
		{
			"inputs": [],
			"name": "admin",
			"outputs": [
				{
					"internalType": "address",
					"name": "",
					"type": "address"
				}
			],
			"stateMutability": "view",
			"type": "function"
		},
		{
			"inputs": [
				{
					"internalType": "uint256",
					"name": "",
					"type": "uint256"
				}
			],
			"name": "allBatchIds",
			"outputs": [
				{
					"internalType": "uint256",
					"name": "",
					"type": "uint256"
				}
			],
			"stateMutability": "view",
			"type": "function"
		},
		{
			"inputs": [
				{
					"internalType": "uint256",
					"name": "",
					"type": "uint256"
				}
			],
			"name": "auditLog",
			"outputs": [
				{
					"internalType": "uint256",
					"name": "entryId",
					"type": "uint256"
				},
				{
					"internalType": "uint256",
					"name": "batchId",
					"type": "uint256"
				},
				{
					"internalType": "string",
					"name": "action",
					"type": "string"
				},
				{
					"internalType": "address",
					"name": "actor",
					"type": "address"
				},
				{
					"internalType": "string",
					"name": "actorRole",
					"type": "string"
				},
				{
					"internalType": "string",
					"name": "details",
					"type": "string"
				},
				{
					"internalType": "uint256",
					"name": "timestamp",
					"type": "uint256"
				}
			],
			"stateMutability": "view",
			"type": "function"
		},
		{
			"inputs": [
				{
					"internalType": "uint256",
					"name": "",
					"type": "uint256"
				},
				{
					"internalType": "uint256",
					"name": "",
					"type": "uint256"
				}
			],
			"name": "batchAuditTrail",
			"outputs": [
				{
					"internalType": "uint256",
					"name": "",
					"type": "uint256"
				}
			],
			"stateMutability": "view",
			"type": "function"
		},
		{
			"inputs": [
				{
					"internalType": "uint256",
					"name": "",
					"type": "uint256"
				}
			],
			"name": "batchDelivery",
			"outputs": [
				{
					"internalType": "uint256",
					"name": "",
					"type": "uint256"
				}
			],
			"stateMutability": "view",
			"type": "function"
		},
		{
			"inputs": [
				{
					"internalType": "uint256",
					"name": "",
					"type": "uint256"
				}
			],
			"name": "batchShipment",
			"outputs": [
				{
					"internalType": "uint256",
					"name": "",
					"type": "uint256"
				}
			],
			"stateMutability": "view",
			"type": "function"
		},
		{
			"inputs": [
				{
					"internalType": "uint256",
					"name": "",
					"type": "uint256"
				}
			],
			"name": "batchTransfer",
			"outputs": [
				{
					"internalType": "uint256",
					"name": "",
					"type": "uint256"
				}
			],
			"stateMutability": "view",
			"type": "function"
		},
		{
			"inputs": [
				{
					"internalType": "uint256",
					"name": "",
					"type": "uint256"
				}
			],
			"name": "batches",
			"outputs": [
				{
					"internalType": "uint256",
					"name": "batchId",
					"type": "uint256"
				},
				{
					"internalType": "string",
					"name": "batchCode",
					"type": "string"
				},
				{
					"internalType": "enum MushChainPH.Variety",
					"name": "variety",
					"type": "uint8"
				},
				{
					"internalType": "uint256",
					"name": "quantityKg",
					"type": "uint256"
				},
				{
					"internalType": "uint256",
					"name": "harvestTimestamp",
					"type": "uint256"
				},
				{
					"internalType": "address",
					"name": "farmer",
					"type": "address"
				},
				{
					"internalType": "string",
					"name": "farmName",
					"type": "string"
				},
				{
					"internalType": "string",
					"name": "barangay",
					"type": "string"
				},
				{
					"internalType": "string",
					"name": "municipality",
					"type": "string"
				},
				{
					"internalType": "string",
					"name": "growingNotes",
					"type": "string"
				},
				{
					"internalType": "enum MushChainPH.BatchStatus",
					"name": "status",
					"type": "uint8"
				},
				{
					"internalType": "address",
					"name": "currentOwner",
					"type": "address"
				},
				{
					"internalType": "uint256",
					"name": "mintedAt",
					"type": "uint256"
				}
			],
			"stateMutability": "view",
			"type": "function"
		},
		{
			"inputs": [
				{
					"internalType": "uint256",
					"name": "_batchId",
					"type": "uint256"
				},
				{
					"internalType": "uint256",
					"name": "_quantityReceived",
					"type": "uint256"
				},
				{
					"internalType": "uint8",
					"name": "_condition",
					"type": "uint8"
				},
				{
					"internalType": "string",
					"name": "_discrepancyNotes",
					"type": "string"
				}
			],
			"name": "confirmDelivery",
			"outputs": [],
			"stateMutability": "nonpayable",
			"type": "function"
		},
		{
			"inputs": [
				{
					"internalType": "address",
					"name": "_wallet",
					"type": "address"
				}
			],
			"name": "deactivateParticipant",
			"outputs": [],
			"stateMutability": "nonpayable",
			"type": "function"
		},
		{
			"inputs": [
				{
					"internalType": "uint256",
					"name": "",
					"type": "uint256"
				}
			],
			"name": "deliveries",
			"outputs": [
				{
					"internalType": "uint256",
					"name": "confirmationId",
					"type": "uint256"
				},
				{
					"internalType": "uint256",
					"name": "batchId",
					"type": "uint256"
				},
				{
					"internalType": "address",
					"name": "vendor",
					"type": "address"
				},
				{
					"internalType": "uint256",
					"name": "quantityReceived",
					"type": "uint256"
				},
				{
					"internalType": "enum MushChainPH.Condition",
					"name": "conditionAtDelivery",
					"type": "uint8"
				},
				{
					"internalType": "string",
					"name": "discrepancyNotes",
					"type": "string"
				},
				{
					"internalType": "uint256",
					"name": "confirmedAt",
					"type": "uint256"
				}
			],
			"stateMutability": "view",
			"type": "function"
		},
		{
			"inputs": [],
			"name": "getAllBatches",
			"outputs": [
				{
					"internalType": "uint256[]",
					"name": "",
					"type": "uint256[]"
				}
			],
			"stateMutability": "view",
			"type": "function"
		},
		{
			"inputs": [
				{
					"internalType": "uint256",
					"name": "_entryId",
					"type": "uint256"
				}
			],
			"name": "getAuditEntry",
			"outputs": [
				{
					"internalType": "uint256",
					"name": "batchId",
					"type": "uint256"
				},
				{
					"internalType": "string",
					"name": "action",
					"type": "string"
				},
				{
					"internalType": "address",
					"name": "actor",
					"type": "address"
				},
				{
					"internalType": "string",
					"name": "actorRole",
					"type": "string"
				},
				{
					"internalType": "string",
					"name": "details",
					"type": "string"
				},
				{
					"internalType": "uint256",
					"name": "timestamp",
					"type": "uint256"
				}
			],
			"stateMutability": "view",
			"type": "function"
		},
		{
			"inputs": [
				{
					"internalType": "uint256",
					"name": "_batchId",
					"type": "uint256"
				}
			],
			"name": "getAuditReport",
			"outputs": [
				{
					"internalType": "string",
					"name": "report",
					"type": "string"
				}
			],
			"stateMutability": "view",
			"type": "function"
		},
		{
			"inputs": [
				{
					"internalType": "uint256",
					"name": "_batchId",
					"type": "uint256"
				}
			],
			"name": "getBatchAuditTrail",
			"outputs": [
				{
					"internalType": "uint256[]",
					"name": "entryIds",
					"type": "uint256[]"
				},
				{
					"internalType": "string[]",
					"name": "actions",
					"type": "string[]"
				},
				{
					"internalType": "address[]",
					"name": "actors",
					"type": "address[]"
				},
				{
					"internalType": "string[]",
					"name": "actorRoles",
					"type": "string[]"
				},
				{
					"internalType": "string[]",
					"name": "details",
					"type": "string[]"
				},
				{
					"internalType": "uint256[]",
					"name": "timestamps",
					"type": "uint256[]"
				}
			],
			"stateMutability": "view",
			"type": "function"
		},
		{
			"inputs": [
				{
					"internalType": "uint256",
					"name": "_batchId",
					"type": "uint256"
				}
			],
			"name": "getBatchStatus",
			"outputs": [
				{
					"internalType": "string",
					"name": "",
					"type": "string"
				}
			],
			"stateMutability": "view",
			"type": "function"
		},
		{
			"inputs": [
				{
					"internalType": "uint256",
					"name": "_batchId",
					"type": "uint256"
				}
			],
			"name": "getDeliveryRecord",
			"outputs": [
				{
					"internalType": "address",
					"name": "vendor",
					"type": "address"
				},
				{
					"internalType": "uint256",
					"name": "quantityReceived",
					"type": "uint256"
				},
				{
					"internalType": "string",
					"name": "condition",
					"type": "string"
				},
				{
					"internalType": "string",
					"name": "discrepancyNotes",
					"type": "string"
				},
				{
					"internalType": "uint256",
					"name": "confirmedAt",
					"type": "uint256"
				}
			],
			"stateMutability": "view",
			"type": "function"
		},
		{
			"inputs": [
				{
					"internalType": "address",
					"name": "_wallet",
					"type": "address"
				}
			],
			"name": "getParticipant",
			"outputs": [
				{
					"internalType": "string",
					"name": "fullName",
					"type": "string"
				},
				{
					"internalType": "string",
					"name": "role",
					"type": "string"
				},
				{
					"internalType": "string",
					"name": "organization",
					"type": "string"
				},
				{
					"internalType": "string",
					"name": "barangay",
					"type": "string"
				},
				{
					"internalType": "string",
					"name": "municipality",
					"type": "string"
				},
				{
					"internalType": "bool",
					"name": "isActive",
					"type": "bool"
				},
				{
					"internalType": "uint256",
					"name": "registeredAt",
					"type": "uint256"
				}
			],
			"stateMutability": "view",
			"type": "function"
		},
		{
			"inputs": [
				{
					"internalType": "uint256",
					"name": "_batchId",
					"type": "uint256"
				}
			],
			"name": "getProvenance",
			"outputs": [
				{
					"internalType": "string",
					"name": "batchCode",
					"type": "string"
				},
				{
					"internalType": "string",
					"name": "variety",
					"type": "string"
				},
				{
					"internalType": "uint256",
					"name": "quantityKg",
					"type": "uint256"
				},
				{
					"internalType": "string",
					"name": "farmName",
					"type": "string"
				},
				{
					"internalType": "string",
					"name": "location",
					"type": "string"
				},
				{
					"internalType": "string",
					"name": "statusLabel",
					"type": "string"
				},
				{
					"internalType": "address",
					"name": "farmer",
					"type": "address"
				},
				{
					"internalType": "address",
					"name": "currentOwner",
					"type": "address"
				},
				{
					"internalType": "uint256",
					"name": "harvestTimestamp",
					"type": "uint256"
				},
				{
					"internalType": "uint256",
					"name": "mintedAt",
					"type": "uint256"
				}
			],
			"stateMutability": "view",
			"type": "function"
		},
		{
			"inputs": [
				{
					"internalType": "uint256",
					"name": "_batchId",
					"type": "uint256"
				}
			],
			"name": "getShipmentRecord",
			"outputs": [
				{
					"internalType": "address",
					"name": "transporter",
					"type": "address"
				},
				{
					"internalType": "string",
					"name": "vehiclePlate",
					"type": "string"
				},
				{
					"internalType": "string",
					"name": "departurePoint",
					"type": "string"
				},
				{
					"internalType": "string",
					"name": "destination",
					"type": "string"
				},
				{
					"internalType": "uint256",
					"name": "departureTime",
					"type": "uint256"
				},
				{
					"internalType": "uint256",
					"name": "estimatedArrival",
					"type": "uint256"
				},
				{
					"internalType": "string",
					"name": "conditionNotes",
					"type": "string"
				},
				{
					"internalType": "bool",
					"name": "isDelivered",
					"type": "bool"
				}
			],
			"stateMutability": "view",
			"type": "function"
		},
		{
			"inputs": [
				{
					"internalType": "uint256",
					"name": "_batchId",
					"type": "uint256"
				}
			],
			"name": "getTransferRecord",
			"outputs": [
				{
					"internalType": "address",
					"name": "fromParticipant",
					"type": "address"
				},
				{
					"internalType": "address",
					"name": "toParticipant",
					"type": "address"
				},
				{
					"internalType": "uint256",
					"name": "agreedPricePerKg",
					"type": "uint256"
				},
				{
					"internalType": "uint256",
					"name": "quantityKg",
					"type": "uint256"
				},
				{
					"internalType": "uint256",
					"name": "transferredAt",
					"type": "uint256"
				},
				{
					"internalType": "string",
					"name": "notes",
					"type": "string"
				}
			],
			"stateMutability": "view",
			"type": "function"
		},
		{
			"inputs": [
				{
					"internalType": "uint256",
					"name": "_batchId",
					"type": "uint256"
				},
				{
					"internalType": "string",
					"name": "_vehiclePlate",
					"type": "string"
				},
				{
					"internalType": "string",
					"name": "_departurePoint",
					"type": "string"
				},
				{
					"internalType": "string",
					"name": "_destination",
					"type": "string"
				},
				{
					"internalType": "uint256",
					"name": "_estimatedHours",
					"type": "uint256"
				},
				{
					"internalType": "string",
					"name": "_conditionNotes",
					"type": "string"
				}
			],
			"name": "logShipment",
			"outputs": [],
			"stateMutability": "nonpayable",
			"type": "function"
		},
		{
			"inputs": [
				{
					"internalType": "address",
					"name": "",
					"type": "address"
				}
			],
			"name": "participants",
			"outputs": [
				{
					"internalType": "address",
					"name": "wallet",
					"type": "address"
				},
				{
					"internalType": "string",
					"name": "fullName",
					"type": "string"
				},
				{
					"internalType": "enum MushChainPH.Role",
					"name": "role",
					"type": "uint8"
				},
				{
					"internalType": "string",
					"name": "organization",
					"type": "string"
				},
				{
					"internalType": "string",
					"name": "barangay",
					"type": "string"
				},
				{
					"internalType": "string",
					"name": "municipality",
					"type": "string"
				},
				{
					"internalType": "bool",
					"name": "isActive",
					"type": "bool"
				},
				{
					"internalType": "uint256",
					"name": "registeredAt",
					"type": "uint256"
				}
			],
			"stateMutability": "view",
			"type": "function"
		},
		{
			"inputs": [
				{
					"internalType": "address",
					"name": "_wallet",
					"type": "address"
				}
			],
			"name": "reactivateParticipant",
			"outputs": [],
			"stateMutability": "nonpayable",
			"type": "function"
		},
		{
			"inputs": [
				{
					"internalType": "uint8",
					"name": "_variety",
					"type": "uint8"
				},
				{
					"internalType": "uint256",
					"name": "_quantityKg",
					"type": "uint256"
				},
				{
					"internalType": "string",
					"name": "_farmName",
					"type": "string"
				},
				{
					"internalType": "string",
					"name": "_barangay",
					"type": "string"
				},
				{
					"internalType": "string",
					"name": "_municipality",
					"type": "string"
				},
				{
					"internalType": "string",
					"name": "_growingNotes",
					"type": "string"
				}
			],
			"name": "registerBatch",
			"outputs": [
				{
					"internalType": "uint256",
					"name": "batchId",
					"type": "uint256"
				}
			],
			"stateMutability": "nonpayable",
			"type": "function"
		},
		{
			"inputs": [
				{
					"internalType": "address",
					"name": "_wallet",
					"type": "address"
				},
				{
					"internalType": "string",
					"name": "_fullName",
					"type": "string"
				},
				{
					"internalType": "uint8",
					"name": "_role",
					"type": "uint8"
				},
				{
					"internalType": "string",
					"name": "_organization",
					"type": "string"
				},
				{
					"internalType": "string",
					"name": "_barangay",
					"type": "string"
				},
				{
					"internalType": "string",
					"name": "_municipality",
					"type": "string"
				}
			],
			"name": "registerParticipant",
			"outputs": [],
			"stateMutability": "nonpayable",
			"type": "function"
		},
		{
			"inputs": [
				{
					"internalType": "uint256",
					"name": "",
					"type": "uint256"
				}
			],
			"name": "shipments",
			"outputs": [
				{
					"internalType": "uint256",
					"name": "shipmentId",
					"type": "uint256"
				},
				{
					"internalType": "uint256",
					"name": "batchId",
					"type": "uint256"
				},
				{
					"internalType": "address",
					"name": "transporter",
					"type": "address"
				},
				{
					"internalType": "string",
					"name": "vehiclePlate",
					"type": "string"
				},
				{
					"internalType": "string",
					"name": "departurePoint",
					"type": "string"
				},
				{
					"internalType": "string",
					"name": "destination",
					"type": "string"
				},
				{
					"internalType": "uint256",
					"name": "departureTime",
					"type": "uint256"
				},
				{
					"internalType": "uint256",
					"name": "estimatedArrival",
					"type": "uint256"
				},
				{
					"internalType": "string",
					"name": "conditionNotes",
					"type": "string"
				},
				{
					"internalType": "bool",
					"name": "isDelivered",
					"type": "bool"
				},
				{
					"internalType": "uint256",
					"name": "recordedAt",
					"type": "uint256"
				}
			],
			"stateMutability": "view",
			"type": "function"
		},
		{
			"inputs": [
				{
					"internalType": "uint256",
					"name": "_batchId",
					"type": "uint256"
				},
				{
					"internalType": "address",
					"name": "_trader",
					"type": "address"
				},
				{
					"internalType": "uint256",
					"name": "_pricePerKg",
					"type": "uint256"
				},
				{
					"internalType": "string",
					"name": "_notes",
					"type": "string"
				}
			],
			"name": "transferToTrader",
			"outputs": [],
			"stateMutability": "nonpayable",
			"type": "function"
		},
		{
			"inputs": [
				{
					"internalType": "uint256",
					"name": "",
					"type": "uint256"
				}
			],
			"name": "transfers",
			"outputs": [
				{
					"internalType": "uint256",
					"name": "transferId",
					"type": "uint256"
				},
				{
					"internalType": "uint256",
					"name": "batchId",
					"type": "uint256"
				},
				{
					"internalType": "address",
					"name": "fromParticipant",
					"type": "address"
				},
				{
					"internalType": "address",
					"name": "toParticipant",
					"type": "address"
				},
				{
					"internalType": "uint256",
					"name": "agreedPricePerKg",
					"type": "uint256"
				},
				{
					"internalType": "uint256",
					"name": "quantityKg",
					"type": "uint256"
				},
				{
					"internalType": "uint256",
					"name": "transferredAt",
					"type": "uint256"
				},
				{
					"internalType": "string",
					"name": "notes",
					"type": "string"
				}
			],
			"stateMutability": "view",
			"type": "function"
		}
	]
}